{
	"data": {
		"bytecode": {
			"linkReferences": {},
			"object": "6101606040523480156200001257600080fd5b506040516200684e3803806200684e833981810160405281019062000038919062000481565b8383866040518060400160405280601281526020017f476f7665726e616e6365436f6e747261637400000000000000000000000000008152508062000082620001c760201b60201c565b60008280519060200120905060008280519060200120905060007f8b73c3c69bb8fe3d512ecc4cf759cc79239f7b179b0ffacaa9a75d522b39400f90508260e081815250508161010081815250504660a08181525050620000eb8184846200020460201b60201c565b608081815250503073ffffffffffffffffffffffffffffffffffffffff1660c08173ffffffffffffffffffffffffffffffffffffffff1660601b81525050806101208181525050505050505080600090805190602001906200014f9291906200038c565b50508073ffffffffffffffffffffffffffffffffffffffff166101408173ffffffffffffffffffffffffffffffffffffffff1660601b81525050506200019b816200024060201b60201c565b50620001ad81620002e260201b60201c565b5080600881905550816009819055505050505050620007f3565b60606040518060400160405280600181526020017f3100000000000000000000000000000000000000000000000000000000000000815250905090565b60008383834630604051602001620002219594939291906200058a565b6040516020818303038152906040528051906020012090509392505050565b620002506200038360201b60201c565b81111562000295576040517f08c379a00000000000000000000000000000000000000000000000000000000081526004016200028c90620005e7565b60405180910390fd5b60006005549050816005819055507f0553476bf02ef2726e8ce5ced78d63e26e602e4a2257b1f559418e24b46339978183604051620002d692919062000609565b60405180910390a15050565b7f08f74ea46ef7894f65eabfb5e6e695de773a000b47c529ab559178069b226401600660009054906101000a900473ffffffffffffffffffffffffffffffffffffffff1682604051620003379291906200055d565b60405180910390a180600660006101000a81548173ffffffffffffffffffffffffffffffffffffffff021916908373ffffffffffffffffffffffffffffffffffffffff16021790555050565b60006064905090565b8280546200039a90620006cb565b90600052602060002090601f016020900481019282620003be57600085556200040a565b82601f10620003d957805160ff19168380011785556200040a565b828001600101855582156200040a579182015b8281111562000409578251825591602001919060010190620003ec565b5b5090506200041991906200041d565b5090565b5b80821115620004385760008160009055506001016200041e565b5090565b6000815190506200044d81620007a5565b92915050565b6000815190506200046481620007bf565b92915050565b6000815190506200047b81620007d9565b92915050565b600080600080600060a086880312156200049a57600080fd5b6000620004aa888289016200043c565b9550506020620004bd8882890162000453565b9450506040620004d0888289016200046a565b9350506060620004e3888289016200046a565b9250506080620004f6888289016200046a565b9150509295509295909350565b6200050e8162000647565b82525050565b6200051f816200066f565b82525050565b60006200053460438362000636565b9150620005418262000730565b606082019050919050565b6200055781620006c1565b82525050565b600060408201905062000574600083018562000503565b62000583602083018462000503565b9392505050565b600060a082019050620005a1600083018862000514565b620005b0602083018762000514565b620005bf604083018662000514565b620005ce60608301856200054c565b620005dd608083018462000503565b9695505050505050565b60006020820190508181036000830152620006028162000525565b9050919050565b60006040820190506200062060008301856200054c565b6200062f60208301846200054c565b9392505050565b600082825260208201905092915050565b60006200065482620006a1565b9050919050565b60006200066882620006a1565b9050919050565b6000819050919050565b6000620006868262000647565b9050919050565b60006200069a826200065b565b9050919050565b600073ffffffffffffffffffffffffffffffffffffffff82169050919050565b6000819050919050565b60006002820490506001821680620006e457607f821691505b60208210811415620006fb57620006fa62000701565b5b50919050565b7f4e487b7100000000000000000000000000000000000000000000000000000000600052602260045260246000fd5b7f476f7665726e6f72566f74657351756f72756d4672616374696f6e3a2071756f60008201527f72756d4e756d657261746f72206f7665722071756f72756d44656e6f6d696e6160208201527f746f720000000000000000000000000000000000000000000000000000000000604082015250565b620007b08162000679565b8114620007bc57600080fd5b50565b620007ca816200068d565b8114620007d657600080fd5b50565b620007e481620006c1565b8114620007f057600080fd5b50565b60805160a05160c05160601c60e05161010051610120516101405160601c615fec6200086260003960008181611a5c0152818161263201526127dd01526000612ab201526000612af401526000612ad301526000612a0801526000612a5e01526000612a870152615fec6000f3fe6080604052600436106102345760003560e01c8063725ae3dc1161012e578063c01f9e37116100ab578063deaaa7cc1161006f578063deaaa7cc1461097a578063eb9019d4146109a5578063f23a6e61146109e2578063f8ce560a14610a1f578063fc0c546a14610a5c5761027a565b8063c01f9e3714610881578063c28bc2fa146108be578063c59057e4146108e7578063d33219b414610924578063dd4e2ba51461094f5761027a565b8063a7713a70116100f2578063a7713a7014610788578063a890c910146107b3578063ab58fb8e146107dc578063b58131b014610819578063bc197c81146108445761027a565b8063725ae3dc1461067b5780637b3c71d3146106a65780637d5e81e2146106e357806397c3d334146107205780639a802a6d1461074b5761027a565b80632d63f693116101bc5780634385963211610180578063438596321461055a578063544ffc9c1461059757806354fd4d50146105d657806356781388146106015780635f398a141461063e5761027a565b80632d63f6931461044d5780632fe3e2611461048a5780633932abb1146104b55780633bccf4fd146104e05780633e4f49e61461051d5761027a565b806306fdde031161020357806306fdde031461034d578063102d7f2c14610378578063150b7a02146103a3578063160cbed7146103e05780632656227d1461041d5761027a565b806301ffc9a71461027f57806302a251a3146102bc57806303420181146102e757806306f3f9e6146103245761027a565b3661027a573073ffffffffffffffffffffffffffffffffffffffff16610258610a87565b73ffffffffffffffffffffffffffffffffffffffff161461027857600080fd5b005b600080fd5b34801561028b57600080fd5b506102a660048036038101906102a191906140f6565b610a96565b6040516102b39190614d07565b60405180910390f35b3480156102c857600080fd5b506102d1610aa8565b6040516102de9190615112565b60405180910390f35b3480156102f357600080fd5b5061030e60048036038101906103099190614316565b610ab2565b60405161031b9190615112565b60405180910390f35b34801561033057600080fd5b5061034b60048036038101906103469190614148565b610b97565b005b34801561035957600080fd5b50610362610c93565b60405161036f9190614eb0565b60405180910390f35b34801561038457600080fd5b5061038d610d25565b60405161039a9190615112565b60405180910390f35b3480156103af57600080fd5b506103ca60048036038101906103c59190613d1d565b610d2b565b6040516103d79190614e5f565b60405180910390f35b3480156103ec57600080fd5b5061040760048036038101906104029190613f36565b610d3f565b6040516104149190615112565b60405180910390f35b61043760048036038101906104329190613f36565b611063565b6040516104449190615112565b60405180910390f35b34801561045957600080fd5b50610474600480360381019061046f9190614148565b611248565b6040516104819190615112565b60405180910390f35b34801561049657600080fd5b5061049f6112b6565b6040516104ac9190614d22565b60405180910390f35b3480156104c157600080fd5b506104ca6112da565b6040516104d79190615112565b60405180910390f35b3480156104ec57600080fd5b50610507600480360381019061050291906143e8565b6112e4565b6040516105149190615112565b60405180910390f35b34801561052957600080fd5b50610544600480360381019061053f9190614148565b61136e565b6040516105519190614e95565b60405180910390f35b34801561056657600080fd5b50610581600480360381019061057c919061419a565b611380565b60405161058e9190614d07565b60405180910390f35b3480156105a357600080fd5b506105be60048036038101906105b99190614148565b6113eb565b6040516105cd93929190615206565b60405180910390f35b3480156105e257600080fd5b506105eb611423565b6040516105f89190614eb0565b60405180910390f35b34801561060d57600080fd5b50610628600480360381019061062391906141d6565b611460565b6040516106359190615112565b60405180910390f35b34801561064a57600080fd5b506106656004803603810190610660919061427e565b611491565b6040516106729190615112565b60405180910390f35b34801561068757600080fd5b506106906114fb565b60405161069d9190615112565b60405180910390f35b3480156106b257600080fd5b506106cd60048036038101906106c89190614212565b611501565b6040516106da9190615112565b60405180910390f35b3480156106ef57600080fd5b5061070a60048036038101906107059190613fe1565b611569565b6040516107179190615112565b60405180910390f35b34801561072c57600080fd5b50610735611581565b6040516107429190615112565b60405180910390f35b34801561075757600080fd5b50610772600480360381019061076d9190613ecf565b61158a565b60405161077f9190615112565b60405180910390f35b34801561079457600080fd5b5061079d6115a0565b6040516107aa9190615112565b60405180910390f35b3480156107bf57600080fd5b506107da60048036038101906107d5919061411f565b6115aa565b005b3480156107e857600080fd5b5061080360048036038101906107fe9190614148565b6116a6565b6040516108109190615112565b60405180910390f35b34801561082557600080fd5b5061082e611782565b60405161083b9190615112565b60405180910390f35b34801561085057600080fd5b5061086b60048036038101906108669190613c5e565b611787565b6040516108789190614e5f565b60405180910390f35b34801561088d57600080fd5b506108a860048036038101906108a39190614148565b61179c565b6040516108b59190615112565b60405180910390f35b3480156108ca57600080fd5b506108e560048036038101906108e09190613e63565b61180a565b005b3480156108f357600080fd5b5061090e60048036038101906109099190613f36565b611950565b60405161091b9190615112565b60405180910390f35b34801561093057600080fd5b5061093961198c565b6040516109469190614b62565b60405180910390f35b34801561095b57600080fd5b506109646119b6565b6040516109719190614eb0565b60405180910390f35b34801561098657600080fd5b5061098f6119f3565b60405161099c9190614d22565b60405180910390f35b3480156109b157600080fd5b506109cc60048036038101906109c79190613e27565b611a17565b6040516109d99190615112565b60405180910390f35b3480156109ee57600080fd5b50610a096004803603810190610a049190613d98565b611a33565b604051610a169190614e5f565b60405180910390f35b348015610a2b57600080fd5b50610a466004803603810190610a419190614148565b611a48565b604051610a539190615112565b60405180910390f35b348015610a6857600080fd5b50610a71611a5a565b604051610a7e9190614e7a565b60405180910390f35b6000610a91611a7e565b905090565b6000610aa182611aa8565b9050919050565b6000600954905090565b600080610b35610b2d7fb3b3f3b703cd84ce352197dcff232b1b5d3cfb2025ce47cf04742d0651f1af888c8c8c8c604051610aee929190614afb565b60405180910390208b80519060200120604051602001610b12959493929190614dc7565b60405160208183030381529060405280519060200120611b22565b868686611b3c565b9050610b888a828b8b8b8080601f016020809104026020016040519081016040528093929190818152602001838380828437600081840152601f19601f820116905080830192505050505050508a611b67565b91505098975050505050505050565b610b9f610a87565b73ffffffffffffffffffffffffffffffffffffffff16610bbd611d70565b73ffffffffffffffffffffffffffffffffffffffff1614610c13576040517f08c379a0000000000000000000000000000000000000000000000000000000008152600401610c0a90614ef2565b60405180910390fd5b3073ffffffffffffffffffffffffffffffffffffffff16610c32610a87565b73ffffffffffffffffffffffffffffffffffffffff1614610c87576000610c57611d78565b604051610c65929190614afb565b604051809103902090505b80610c7b6002611d85565b14610c8557610c70565b505b610c9081611e61565b50565b606060008054610ca290615820565b80601f0160208091040260200160405190810160405280929190818152602001828054610cce90615820565b8015610d1b5780601f10610cf057610100808354040283529160200191610d1b565b820191906000526020600020905b815481529060010190602001808311610cfe57829003601f168201915b5050505050905090565b60085481565b600063150b7a0260e01b9050949350505050565b600080610d4e86868686611950565b905060046007811115610d8a577f4e487b7100000000000000000000000000000000000000000000000000000000600052602160045260246000fd5b610d938261136e565b6007811115610dcb577f4e487b7100000000000000000000000000000000000000000000000000000000600052602160045260246000fd5b14610e0b576040517f08c379a0000000000000000000000000000000000000000000000000000000008152600401610e0290615052565b60405180910390fd5b6000600660009054906101000a900473ffffffffffffffffffffffffffffffffffffffff1673ffffffffffffffffffffffffffffffffffffffff1663f27a0c926040518163ffffffff1660e01b815260040160206040518083038186803b158015610e7557600080fd5b505afa158015610e89573d6000803e3d6000fd5b505050506040513d601f19601f82011682018060405250810190610ead9190614171565b9050600660009054906101000a900473ffffffffffffffffffffffffffffffffffffffff1673ffffffffffffffffffffffffffffffffffffffff1663b1c5f4278888886000896040518663ffffffff1660e01b8152600401610f13959493929190614c29565b60206040518083038186803b158015610f2b57600080fd5b505afa158015610f3f573d6000803e3d6000fd5b505050506040513d601f19601f82011682018060405250810190610f6391906140cd565b6007600084815260200190815260200160002081905550600660009054906101000a900473ffffffffffffffffffffffffffffffffffffffff1673ffffffffffffffffffffffffffffffffffffffff16638f2a0bb0888888600089876040518763ffffffff1660e01b8152600401610fe096959493929190614c91565b600060405180830381600087803b158015610ffa57600080fd5b505af115801561100e573d6000803e3d6000fd5b505050507f9a2e42fd6722813d69113e7d0079d3d940171428df7373df9c7f7617cfda28928282426110409190615549565b60405161104e9291906151dd565b60405180910390a18192505050949350505050565b60008061107286868686611950565b9050600061107f8261136e565b9050600460078111156110bb577f4e487b7100000000000000000000000000000000000000000000000000000000600052602160045260246000fd5b8160078111156110f4577f4e487b7100000000000000000000000000000000000000000000000000000000600052602160045260246000fd5b1480611170575060056007811115611135577f4e487b7100000000000000000000000000000000000000000000000000000000600052602160045260246000fd5b81600781111561116e577f4e487b7100000000000000000000000000000000000000000000000000000000600052602160045260246000fd5b145b6111af576040517f08c379a00000000000000000000000000000000000000000000000000000000081526004016111a690615052565b60405180910390fd5b600180600084815260200190815260200160002060020160006101000a81548160ff0219169083151502179055507f712ae1383f79ac853f8d882153778e0260ef8f03b504e2866e0593e04d2b291f8260405161120c9190615112565b60405180910390a16112218288888888611ef6565b61122e8288888888612026565b61123b828888888861203a565b8192505050949350505050565b60006112a5600160008481526020019081526020016000206000016040518060200160405290816000820160009054906101000a900467ffffffffffffffff1667ffffffffffffffff1667ffffffffffffffff1681525050612095565b67ffffffffffffffff169050919050565b7fb3b3f3b703cd84ce352197dcff232b1b5d3cfb2025ce47cf04742d0651f1af8881565b6000600854905090565b60008061134561133d7f150214d74d59b7d1e90c73fc22ef3d991dd0a76b046543d4d80ab92d2a50328f898960405160200161132293929190614d90565b60405160208183030381529060405280519060200120611b22565b868686611b3c565b9050611362878288604051806020016040528060008152506120a3565b91505095945050505050565b6000611379826120c3565b9050919050565b60006004600084815260200190815260200160002060030160008373ffffffffffffffffffffffffffffffffffffffff1673ffffffffffffffffffffffffffffffffffffffff16815260200190815260200160002060009054906101000a900460ff16905092915050565b600080600080600460008681526020019081526020016000209050806000015481600101548260020154935093509350509193909250565b60606040518060400160405280600181526020017f3100000000000000000000000000000000000000000000000000000000000000815250905090565b60008061146b611d70565b9050611488848285604051806020016040528060008152506120a3565b91505092915050565b60008061149c611d70565b90506114ef87828888888080601f016020809104026020016040519081016040528093929190818152602001838380828437600081840152601f19601f8201169050808301925050505050505087611b67565b91505095945050505050565b60095481565b60008061150c611d70565b905061155e86828787878080601f016020809104026020016040519081016040528093929190818152602001838380828437600081840152601f19601f820116905080830192505050505050506120a3565b915050949350505050565b600061157785858585612301565b9050949350505050565b60006064905090565b600061159784848461262e565b90509392505050565b6000600554905090565b6115b2610a87565b73ffffffffffffffffffffffffffffffffffffffff166115d0611d70565b73ffffffffffffffffffffffffffffffffffffffff1614611626576040517f08c379a000000000000000000000000000000000000000000000000000000000815260040161161d90614ef2565b60405180910390fd5b3073ffffffffffffffffffffffffffffffffffffffff16611645610a87565b73ffffffffffffffffffffffffffffffffffffffff161461169a57600061166a611d78565b604051611678929190614afb565b604051809103902090505b8061168e6002611d85565b1461169857611683565b505b6116a3816126e4565b50565b600080600660009054906101000a900473ffffffffffffffffffffffffffffffffffffffff1673ffffffffffffffffffffffffffffffffffffffff1663d45c443560076000868152602001908152602001600020546040518263ffffffff1660e01b81526004016117179190614d22565b60206040518083038186803b15801561172f57600080fd5b505afa158015611743573d6000803e3d6000fd5b505050506040513d601f19601f820116820180604052508101906117679190614171565b905060018114611777578061177a565b60005b915050919050565b600090565b600063bc197c8160e01b905095945050505050565b60006117f9600160008481526020019081526020016000206001016040518060200160405290816000820160009054906101000a900467ffffffffffffffff1667ffffffffffffffff1667ffffffffffffffff1681525050612095565b67ffffffffffffffff169050919050565b611812610a87565b73ffffffffffffffffffffffffffffffffffffffff16611830611d70565b73ffffffffffffffffffffffffffffffffffffffff1614611886576040517f08c379a000000000000000000000000000000000000000000000000000000000815260040161187d90614ef2565b60405180910390fd5b3073ffffffffffffffffffffffffffffffffffffffff166118a5610a87565b73ffffffffffffffffffffffffffffffffffffffff16146118fa5760006118ca611d78565b6040516118d8929190614afb565b604051809103902090505b806118ee6002611d85565b146118f8576118e3565b505b6119498483838080601f016020809104026020016040519081016040528093929190818152602001838380828437600081840152601f19601f8201169050808301925050505050505085612783565b5050505050565b6000848484846040516020016119699493929190614bcf565b6040516020818303038152906040528051906020012060001c9050949350505050565b6000600660009054906101000a900473ffffffffffffffffffffffffffffffffffffffff16905090565b60606040518060400160405280602081526020017f737570706f72743d627261766f2671756f72756d3d666f722c6162737461696e815250905090565b7f150214d74d59b7d1e90c73fc22ef3d991dd0a76b046543d4d80ab92d2a50328f81565b6000611a2b8383611a266127b2565b61262e565b905092915050565b600063f23a6e6160e01b905095945050505050565b6000611a53826127c9565b9050919050565b7f000000000000000000000000000000000000000000000000000000000000000081565b6000600660009054906101000a900473ffffffffffffffffffffffffffffffffffffffff16905090565b60007f6e665ced000000000000000000000000000000000000000000000000000000007bffffffffffffffffffffffffffffffffffffffffffffffffffffffff1916827bffffffffffffffffffffffffffffffffffffffffffffffffffffffff19161480611b1b5750611b1a8261289f565b5b9050919050565b6000611b35611b2f612a04565b83612b1e565b9050919050565b6000806000611b4d87878787612b51565b91509150611b5a81612c5e565b8192505050949350505050565b60008060016000888152602001908152602001600020905060016007811115611bb9577f4e487b7100000000000000000000000000000000000000000000000000000000600052602160045260246000fd5b611bc28861136e565b6007811115611bfa577f4e487b7100000000000000000000000000000000000000000000000000000000600052602160045260246000fd5b14611c3a576040517f08c379a0000000000000000000000000000000000000000000000000000000008152600401611c3190614fd2565b60405180910390fd5b6000611c9987611c89846000016040518060200160405290816000820160009054906101000a900467ffffffffffffffff1667ffffffffffffffff1667ffffffffffffffff1681525050612095565b67ffffffffffffffff168661262e565b9050611ca88888888488612faf565b600084511415611d0b578673ffffffffffffffffffffffffffffffffffffffff167fb8e138887d0aa13bab447e82de9d5c1777041ecd21ca36ba824ff1e6c07ddda489888489604051611cfe949392919061523d565b60405180910390a2611d62565b8673ffffffffffffffffffffffffffffffffffffffff167fe2babfbac5889a709b63bb7f598b324e08bc5a4fb9ec647fb3cbc9ec07eb87128988848989604051611d59959493929190615289565b60405180910390a25b809250505095945050505050565b600033905090565b3660008036915091509091565b6000611d9082613228565b15611dc7576040517f3db2a12a00000000000000000000000000000000000000000000000000000000815260040160405180910390fd5b60008260000160009054906101000a9004600f0b905082600101600082600f0b600f0b815260200190815260200160002054915082600101600082600f0b600f0b815260200190815260200160002060009055600181018360000160006101000a8154816fffffffffffffffffffffffffffffffff0219169083600f0b6fffffffffffffffffffffffffffffffff16021790555050919050565b611e69611581565b811115611eab576040517f08c379a0000000000000000000000000000000000000000000000000000000008152600401611ea290614f12565b60405180910390fd5b60006005549050816005819055507f0553476bf02ef2726e8ce5ced78d63e26e602e4a2257b1f559418e24b46339978183604051611eea9291906151dd565b60405180910390a15050565b3073ffffffffffffffffffffffffffffffffffffffff16611f15610a87565b73ffffffffffffffffffffffffffffffffffffffff161461201f5760005b845181101561201d573073ffffffffffffffffffffffffffffffffffffffff16858281518110611f8c577f4e487b7100000000000000000000000000000000000000000000000000000000600052603260045260246000fd5b602002602001015173ffffffffffffffffffffffffffffffffffffffff16141561200c5761200b838281518110611fec577f4e487b7100000000000000000000000000000000000000000000000000000000600052603260045260246000fd5b602002602001015180519060200120600261325d90919063ffffffff16565b5b8061201690615883565b9050611f33565b505b5050505050565b61203385858585856132d9565b5050505050565b3073ffffffffffffffffffffffffffffffffffffffff16612059610a87565b73ffffffffffffffffffffffffffffffffffffffff161461208e5761207e6002613228565b61208d5761208c6002613377565b5b5b5050505050565b600081600001519050919050565b60006120b9858585856120b46127b2565b611b67565b9050949350505050565b6000806120cf836133f8565b90506004600781111561210b577f4e487b7100000000000000000000000000000000000000000000000000000000600052602160045260246000fd5b816007811115612144577f4e487b7100000000000000000000000000000000000000000000000000000000600052602160045260246000fd5b1461215257809150506122fc565b6000600760008581526020019081526020016000205490506000801b81141561217f5781925050506122fc565b600660009054906101000a900473ffffffffffffffffffffffffffffffffffffffff1673ffffffffffffffffffffffffffffffffffffffff16632ab0f529826040518263ffffffff1660e01b81526004016121da9190614d22565b60206040518083038186803b1580156121f257600080fd5b505afa158015612206573d6000803e3d6000fd5b505050506040513d601f19601f8201168201806040525081019061222a91906140a4565b1561223a576007925050506122fc565b600660009054906101000a900473ffffffffffffffffffffffffffffffffffffffff1673ffffffffffffffffffffffffffffffffffffffff1663584b153e826040518263ffffffff1660e01b81526004016122959190614d22565b60206040518083038186803b1580156122ad57600080fd5b505afa1580156122c1573d6000803e3d6000fd5b505050506040513d601f19601f820116820180604052508101906122e591906140a4565b156122f5576005925050506122fc565b6002925050505b919050565b600061230b611782565b612328612316611d70565b6001436123239190615668565b611a17565b1015612369576040517f08c379a0000000000000000000000000000000000000000000000000000000008152600401612360906150f2565b60405180910390fd5b600061237e8686868680519060200120611950565b905084518651146123c4576040517f08c379a00000000000000000000000000000000000000000000000000000000081526004016123bb90614f52565b60405180910390fd5b8351865114612408576040517f08c379a00000000000000000000000000000000000000000000000000000000081526004016123ff90614f52565b60405180910390fd5b600086511161244c576040517f08c379a000000000000000000000000000000000000000000000000000000000815260040161244390614ff2565b60405180910390fd5b60006001600083815260200190815260200160002090506124ac816000016040518060200160405290816000820160009054906101000a900467ffffffffffffffff1667ffffffffffffffff1667ffffffffffffffff168152505061350d565b6124eb576040517f08c379a00000000000000000000000000000000000000000000000000000000081526004016124e2906150b2565b60405180910390fd5b60006124fd6124f86112da565b613527565b61250643613527565b612510919061559f565b9050600061252461251f610aa8565b613527565b8261252f919061559f565b9050612547828460000161357e90919063ffffffff16565b61255d818460010161357e90919063ffffffff16565b7f7d84a6263ae0d98d3329bd7b46bb4e8d6f98cd35a7adb45c274c8b7fd5ebd5e084612587611d70565b8b8b8d5167ffffffffffffffff8111156125ca577f4e487b7100000000000000000000000000000000000000000000000000000000600052604160045260246000fd5b6040519080825280602002602001820160405280156125fd57816020015b60608152602001906001900390816125e85790505b508c88888e6040516126179998979695949392919061512d565b60405180910390a183945050505050949350505050565b60007f000000000000000000000000000000000000000000000000000000000000000073ffffffffffffffffffffffffffffffffffffffff16633a46b1a885856040518363ffffffff1660e01b815260040161268b929190614ba6565b60206040518083038186803b1580156126a357600080fd5b505afa1580156126b7573d6000803e3d6000fd5b505050506040513d601f19601f820116820180604052508101906126db9190614171565b90509392505050565b7f08f74ea46ef7894f65eabfb5e6e695de773a000b47c529ab559178069b226401600660009054906101000a900473ffffffffffffffffffffffffffffffffffffffff1682604051612737929190614b7d565b60405180910390a180600660006101000a81548173ffffffffffffffffffffffffffffffffffffffff021916908373ffffffffffffffffffffffffffffffffffffffff16021790555050565b60606127a9848484604051806060016040528060298152602001615f8e602991396135ad565b90509392505050565b606060405180602001604052806000815250905090565b60006127d3611581565b6127db6115a0565b7f000000000000000000000000000000000000000000000000000000000000000073ffffffffffffffffffffffffffffffffffffffff16638e539e8c856040518263ffffffff1660e01b81526004016128349190615112565b60206040518083038186803b15801561284c57600080fd5b505afa158015612860573d6000803e3d6000fd5b505050506040513d601f19601f820116820180604052508101906128849190614171565b61288e919061560e565b61289891906155dd565b9050919050565b6000639a802a6d60e01b630342018160e01b635f398a1460e01b7f79dd796f000000000000000000000000000000000000000000000000000000001818187bffffffffffffffffffffffffffffffffffffffffffffffffffffffff1916827bffffffffffffffffffffffffffffffffffffffffffffffffffffffff1916148061298557507f79dd796f000000000000000000000000000000000000000000000000000000007bffffffffffffffffffffffffffffffffffffffffffffffffffffffff1916827bffffffffffffffffffffffffffffffffffffffffffffffffffffffff1916145b806129ed57507f4e2312e0000000000000000000000000000000000000000000000000000000007bffffffffffffffffffffffffffffffffffffffffffffffffffffffff1916827bffffffffffffffffffffffffffffffffffffffffffffffffffffffff1916145b806129fd57506129fc826136c1565b5b9050919050565b60007f000000000000000000000000000000000000000000000000000000000000000073ffffffffffffffffffffffffffffffffffffffff163073ffffffffffffffffffffffffffffffffffffffff16148015612a8057507f000000000000000000000000000000000000000000000000000000000000000046145b15612aad577f00000000000000000000000000000000000000000000000000000000000000009050612b1b565b612b187f00000000000000000000000000000000000000000000000000000000000000007f00000000000000000000000000000000000000000000000000000000000000007f000000000000000000000000000000000000000000000000000000000000000061372b565b90505b90565b60008282604051602001612b33929190614b2b565b60405160208183030381529060405280519060200120905092915050565b6000807f7fffffffffffffffffffffffffffffff5d576e7357a4501ddfe92f46681b20a08360001c1115612b8c576000600391509150612c55565b601b8560ff1614158015612ba45750601c8560ff1614155b15612bb6576000600491509150612c55565b600060018787878760405160008152602001604052604051612bdb9493929190614e1a565b6020604051602081039080840390855afa158015612bfd573d6000803e3d6000fd5b505050602060405103519050600073ffffffffffffffffffffffffffffffffffffffff168173ffffffffffffffffffffffffffffffffffffffff161415612c4c57600060019250925050612c55565b80600092509250505b94509492505050565b60006004811115612c98577f4e487b7100000000000000000000000000000000000000000000000000000000600052602160045260246000fd5b816004811115612cd1577f4e487b7100000000000000000000000000000000000000000000000000000000600052602160045260246000fd5b1415612cdc57612fac565b60016004811115612d16577f4e487b7100000000000000000000000000000000000000000000000000000000600052602160045260246000fd5b816004811115612d4f577f4e487b7100000000000000000000000000000000000000000000000000000000600052602160045260246000fd5b1415612d90576040517f08c379a0000000000000000000000000000000000000000000000000000000008152600401612d8790614ed2565b60405180910390fd5b60026004811115612dca577f4e487b7100000000000000000000000000000000000000000000000000000000600052602160045260246000fd5b816004811115612e03577f4e487b7100000000000000000000000000000000000000000000000000000000600052602160045260246000fd5b1415612e44576040517f08c379a0000000000000000000000000000000000000000000000000000000008152600401612e3b90614f32565b60405180910390fd5b60036004811115612e7e577f4e487b7100000000000000000000000000000000000000000000000000000000600052602160045260246000fd5b816004811115612eb7577f4e487b7100000000000000000000000000000000000000000000000000000000600052602160045260246000fd5b1415612ef8576040517f08c379a0000000000000000000000000000000000000000000000000000000008152600401612eef90614f72565b60405180910390fd5b600480811115612f31577f4e487b7100000000000000000000000000000000000000000000000000000000600052602160045260246000fd5b816004811115612f6a577f4e487b7100000000000000000000000000000000000000000000000000000000600052602160045260246000fd5b1415612fab576040517f08c379a0000000000000000000000000000000000000000000000000000000008152600401612fa290615012565b60405180910390fd5b5b50565b60006004600087815260200190815260200160002090508060030160008673ffffffffffffffffffffffffffffffffffffffff1673ffffffffffffffffffffffffffffffffffffffff16815260200190815260200160002060009054906101000a900460ff1615613055576040517f08c379a000000000000000000000000000000000000000000000000000000000815260040161304c90614f92565b60405180910390fd5b60018160030160008773ffffffffffffffffffffffffffffffffffffffff1673ffffffffffffffffffffffffffffffffffffffff16815260200190815260200160002060006101000a81548160ff021916908315150217905550600060028111156130e9577f4e487b7100000000000000000000000000000000000000000000000000000000600052602160045260246000fd5b60ff168460ff161415613116578281600001600082825461310a9190615549565b92505081905550613220565b60016002811115613150577f4e487b7100000000000000000000000000000000000000000000000000000000600052602160045260246000fd5b60ff168460ff16141561317d57828160010160008282546131719190615549565b9250508190555061321f565b6002808111156131b6577f4e487b7100000000000000000000000000000000000000000000000000000000600052602160045260246000fd5b60ff168460ff1614156131e357828160020160008282546131d79190615549565b9250508190555061321e565b6040517f08c379a000000000000000000000000000000000000000000000000000000000815260040161321590615092565b60405180910390fd5b5b5b505050505050565b60008160000160009054906101000a9004600f0b600f0b8260000160109054906101000a9004600f0b600f0b13159050919050565b60008260000160109054906101000a9004600f0b90508183600101600083600f0b600f0b815260200190815260200160002081905550600181018360000160106101000a8154816fffffffffffffffffffffffffffffffff0219169083600f0b6fffffffffffffffffffffffffffffffff160217905550505050565b600660009054906101000a900473ffffffffffffffffffffffffffffffffffffffff1673ffffffffffffffffffffffffffffffffffffffff1663e38335e5348686866000876040518763ffffffff1660e01b815260040161333e959493929190614c29565b6000604051808303818588803b15801561335757600080fd5b505af115801561336b573d6000803e3d6000fd5b50505050505050505050565b60008160000160006101000a8154816fffffffffffffffffffffffffffffffff0219169083600f0b6fffffffffffffffffffffffffffffffff16021790555060008160000160106101000a8154816fffffffffffffffffffffffffffffffff0219169083600f0b6fffffffffffffffffffffffffffffffff16021790555050565b6000806001600084815260200190815260200160002090508060020160009054906101000a900460ff1615613431576007915050613508565b8060020160019054906101000a900460ff1615613452576002915050613508565b600061345d84611248565b905060008114156134a3576040517f08c379a000000000000000000000000000000000000000000000000000000000815260040161349a90615072565b60405180910390fd5b4381106134b557600092505050613508565b60006134c08561179c565b90504381106134d55760019350505050613508565b6134de85613765565b80156134ef57506134ee856137ac565b5b156135005760049350505050613508565b600393505050505b919050565b600080826000015167ffffffffffffffff16149050919050565b600067ffffffffffffffff8016821115613576576040517f08c379a000000000000000000000000000000000000000000000000000000000815260040161356d90615032565b60405180910390fd5b819050919050565b808260000160006101000a81548167ffffffffffffffff021916908367ffffffffffffffff1602179055505050565b6060824710156135f2576040517f08c379a00000000000000000000000000000000000000000000000000000000081526004016135e990614fb2565b60405180910390fd5b6135fb856137d7565b61363a576040517f08c379a0000000000000000000000000000000000000000000000000000000008152600401613631906150d2565b60405180910390fd5b6000808673ffffffffffffffffffffffffffffffffffffffff1685876040516136639190614b14565b60006040518083038185875af1925050503d80600081146136a0576040519150601f19603f3d011682016040523d82523d6000602084013e6136a5565b606091505b50915091506136b58282866137fa565b92505050949350505050565b60007f01ffc9a7000000000000000000000000000000000000000000000000000000007bffffffffffffffffffffffffffffffffffffffffffffffffffffffff1916827bffffffffffffffffffffffffffffffffffffffffffffffffffffffff1916149050919050565b60008383834630604051602001613746959493929190614d3d565b6040516020818303038152906040528051906020012090509392505050565b600080600460008481526020019081526020016000209050806002015481600101546137919190615549565b6137a261379d85611248565b611a48565b1115915050919050565b6000806004600084815260200190815260200160002090508060000154816001015411915050919050565b6000808273ffffffffffffffffffffffffffffffffffffffff163b119050919050565b6060831561380a5782905061385a565b60008351111561381d5782518084602001fd5b816040517f08c379a00000000000000000000000000000000000000000000000000000000081526004016138519190614eb0565b60405180910390fd5b9392505050565b600061387461386f8461530f565b6152ea565b9050808382526020820190508285602086028201111561389357600080fd5b60005b858110156138c357816138a98882613a3b565b845260208401935060208301925050600181019050613896565b5050509392505050565b60006138e06138db8461533b565b6152ea565b905080838252602082019050828560208602820111156138ff57600080fd5b60005b8581101561394957813567ffffffffffffffff81111561392157600080fd5b80860161392e8982613b6c565b85526020850194506020840193505050600181019050613902565b5050509392505050565b600061396661396184615367565b6152ea565b9050808382526020820190508285602086028201111561398557600080fd5b60005b858110156139b5578161399b8882613c1f565b845260208401935060208301925050600181019050613988565b5050509392505050565b60006139d26139cd84615393565b6152ea565b9050828152602081018484840111156139ea57600080fd5b6139f58482856157de565b509392505050565b6000613a10613a0b846153c4565b6152ea565b905082815260208101848484011115613a2857600080fd5b613a338482856157de565b509392505050565b600081359050613a4a81615eec565b92915050565b600082601f830112613a6157600080fd5b8135613a71848260208601613861565b91505092915050565b600082601f830112613a8b57600080fd5b8135613a9b8482602086016138cd565b91505092915050565b600082601f830112613ab557600080fd5b8135613ac5848260208601613953565b91505092915050565b600081519050613add81615f03565b92915050565b600081359050613af281615f1a565b92915050565b600081519050613b0781615f1a565b92915050565b600081359050613b1c81615f31565b92915050565b60008083601f840112613b3457600080fd5b8235905067ffffffffffffffff811115613b4d57600080fd5b602083019150836001820283011115613b6557600080fd5b9250929050565b600082601f830112613b7d57600080fd5b8135613b8d8482602086016139bf565b91505092915050565b600081359050613ba581615f48565b92915050565b60008083601f840112613bbd57600080fd5b8235905067ffffffffffffffff811115613bd657600080fd5b602083019150836001820283011115613bee57600080fd5b9250929050565b600082601f830112613c0657600080fd5b8135613c168482602086016139fd565b91505092915050565b600081359050613c2e81615f5f565b92915050565b600081519050613c4381615f5f565b92915050565b600081359050613c5881615f76565b92915050565b600080600080600060a08688031215613c7657600080fd5b6000613c8488828901613a3b565b9550506020613c9588828901613a3b565b945050604086013567ffffffffffffffff811115613cb257600080fd5b613cbe88828901613aa4565b935050606086013567ffffffffffffffff811115613cdb57600080fd5b613ce788828901613aa4565b925050608086013567ffffffffffffffff811115613d0457600080fd5b613d1088828901613b6c565b9150509295509295909350565b60008060008060808587031215613d3357600080fd5b6000613d4187828801613a3b565b9450506020613d5287828801613a3b565b9350506040613d6387828801613c1f565b925050606085013567ffffffffffffffff811115613d8057600080fd5b613d8c87828801613b6c565b91505092959194509250565b600080600080600060a08688031215613db057600080fd5b6000613dbe88828901613a3b565b9550506020613dcf88828901613a3b565b9450506040613de088828901613c1f565b9350506060613df188828901613c1f565b925050608086013567ffffffffffffffff811115613e0e57600080fd5b613e1a88828901613b6c565b9150509295509295909350565b60008060408385031215613e3a57600080fd5b6000613e4885828601613a3b565b9250506020613e5985828601613c1f565b9150509250929050565b60008060008060608587031215613e7957600080fd5b6000613e8787828801613a3b565b9450506020613e9887828801613c1f565b935050604085013567ffffffffffffffff811115613eb557600080fd5b613ec187828801613b22565b925092505092959194509250565b600080600060608486031215613ee457600080fd5b6000613ef286828701613a3b565b9350506020613f0386828701613c1f565b925050604084013567ffffffffffffffff811115613f2057600080fd5b613f2c86828701613b6c565b9150509250925092565b60008060008060808587031215613f4c57600080fd5b600085013567ffffffffffffffff811115613f6657600080fd5b613f7287828801613a50565b945050602085013567ffffffffffffffff811115613f8f57600080fd5b613f9b87828801613aa4565b935050604085013567ffffffffffffffff811115613fb857600080fd5b613fc487828801613a7a565b9250506060613fd587828801613ae3565b91505092959194509250565b60008060008060808587031215613ff757600080fd5b600085013567ffffffffffffffff81111561401157600080fd5b61401d87828801613a50565b945050602085013567ffffffffffffffff81111561403a57600080fd5b61404687828801613aa4565b935050604085013567ffffffffffffffff81111561406357600080fd5b61406f87828801613a7a565b925050606085013567ffffffffffffffff81111561408c57600080fd5b61409887828801613bf5565b91505092959194509250565b6000602082840312156140b657600080fd5b60006140c484828501613ace565b91505092915050565b6000602082840312156140df57600080fd5b60006140ed84828501613af8565b91505092915050565b60006020828403121561410857600080fd5b600061411684828501613b0d565b91505092915050565b60006020828403121561413157600080fd5b600061413f84828501613b96565b91505092915050565b60006020828403121561415a57600080fd5b600061416884828501613c1f565b91505092915050565b60006020828403121561418357600080fd5b600061419184828501613c34565b91505092915050565b600080604083850312156141ad57600080fd5b60006141bb85828601613c1f565b92505060206141cc85828601613a3b565b9150509250929050565b600080604083850312156141e957600080fd5b60006141f785828601613c1f565b925050602061420885828601613c49565b9150509250929050565b6000806000806060858703121561422857600080fd5b600061423687828801613c1f565b945050602061424787828801613c49565b935050604085013567ffffffffffffffff81111561426457600080fd5b61427087828801613bab565b925092505092959194509250565b60008060008060006080868803121561429657600080fd5b60006142a488828901613c1f565b95505060206142b588828901613c49565b945050604086013567ffffffffffffffff8111156142d257600080fd5b6142de88828901613bab565b9350935050606086013567ffffffffffffffff8111156142fd57600080fd5b61430988828901613b6c565b9150509295509295909350565b60008060008060008060008060e0898b03121561433257600080fd5b60006143408b828c01613c1f565b98505060206143518b828c01613c49565b975050604089013567ffffffffffffffff81111561436e57600080fd5b61437a8b828c01613bab565b9650965050606089013567ffffffffffffffff81111561439957600080fd5b6143a58b828c01613b6c565b94505060806143b68b828c01613c49565b93505060a06143c78b828c01613ae3565b92505060c06143d88b828c01613ae3565b9150509295985092959890939650565b600080600080600060a0868803121561440057600080fd5b600061440e88828901613c1f565b955050602061441f88828901613c49565b945050604061443088828901613c49565b935050606061444188828901613ae3565b925050608061445288828901613ae3565b9150509295509295909350565b600061446b83836144b7565b60208301905092915050565b600061448383836146e4565b905092915050565b600061449783836147b4565b905092915050565b60006144ab8383614abf565b60208301905092915050565b6144c08161569c565b82525050565b6144cf8161569c565b82525050565b60006144e082615435565b6144ea81856154ab565b93506144f5836153f5565b8060005b8381101561452657815161450d888261445f565b975061451883615477565b9250506001810190506144f9565b5085935050505092915050565b600061453e82615440565b61454881856154bc565b93508360208202850161455a85615405565b8060005b8581101561459657848403895281516145778582614477565b945061458283615484565b925060208a0199505060018101905061455e565b50829750879550505050505092915050565b60006145b38261544b565b6145bd81856154cd565b9350836020820285016145cf85615415565b8060005b8581101561460b57848403895281516145ec858261448b565b94506145f783615491565b925060208a019950506001810190506145d3565b50829750879550505050505092915050565b600061462882615456565b61463281856154de565b935061463d83615425565b8060005b8381101561466e578151614655888261449f565b97506146608361549e565b925050600181019050614641565b5085935050505092915050565b614684816156c0565b82525050565b614693816156cc565b82525050565b6146aa6146a5826156cc565b6158cc565b82525050565b6146b9816156d6565b82525050565b60006146cb8385615511565b93506146d88385846157de565b82840190509392505050565b60006146ef82615461565b6146f981856154ef565b93506147098185602086016157ed565b614712816159c1565b840191505092915050565b600061472882615461565b6147328185615500565b93506147428185602086016157ed565b61474b816159c1565b840191505092915050565b600061476182615461565b61476b8185615511565b935061477b8185602086016157ed565b80840191505092915050565b6147908161577c565b82525050565b61479f816157a0565b82525050565b6147ae816157b2565b82525050565b60006147bf8261546c565b6147c9818561551c565b93506147d98185602086016157ed565b6147e2816159c1565b840191505092915050565b60006147f88261546c565b614802818561552d565b93506148128185602086016157ed565b61481b816159c1565b840191505092915050565b600061483360188361552d565b915061483e826159df565b602082019050919050565b600061485660188361552d565b915061486182615a08565b602082019050919050565b600061487960438361552d565b915061488482615a31565b606082019050919050565b600061489c601f8361552d565b91506148a782615aa6565b602082019050919050565b60006148bf60028361553e565b91506148ca82615acf565b600282019050919050565b60006148e260218361552d565b91506148ed82615af8565b604082019050919050565b600061490560228361552d565b915061491082615b47565b604082019050919050565b600061492860278361552d565b915061493382615b96565b604082019050919050565b600061494b60268361552d565b915061495682615be5565b604082019050919050565b600061496e60238361552d565b915061497982615c34565b604082019050919050565b600061499160188361552d565b915061499c82615c83565b602082019050919050565b60006149b460228361552d565b91506149bf82615cac565b604082019050919050565b60006149d760268361552d565b91506149e282615cfb565b604082019050919050565b60006149fa60218361552d565b9150614a0582615d4a565b604082019050919050565b6000614a1d601d8361552d565b9150614a2882615d99565b602082019050919050565b6000614a4060358361552d565b9150614a4b82615dc2565b604082019050919050565b6000614a6360218361552d565b9150614a6e82615e11565b604082019050919050565b6000614a86601d8361552d565b9150614a9182615e60565b602082019050919050565b6000614aa960318361552d565b9150614ab482615e89565b604082019050919050565b614ac881615751565b82525050565b614ad781615751565b82525050565b614ae6816157cc565b82525050565b614af58161576f565b82525050565b6000614b088284866146bf565b91508190509392505050565b6000614b208284614756565b915081905092915050565b6000614b36826148b2565b9150614b428285614699565b602082019150614b528284614699565b6020820191508190509392505050565b6000602082019050614b7760008301846144c6565b92915050565b6000604082019050614b9260008301856144c6565b614b9f60208301846144c6565b9392505050565b6000604082019050614bbb60008301856144c6565b614bc86020830184614ace565b9392505050565b60006080820190508181036000830152614be981876144d5565b90508181036020830152614bfd818661461d565b90508181036040830152614c118185614533565b9050614c20606083018461468a565b95945050505050565b600060a0820190508181036000830152614c4381886144d5565b90508181036020830152614c57818761461d565b90508181036040830152614c6b8186614533565b9050614c7a60608301856147a5565b614c87608083018461468a565b9695505050505050565b600060c0820190508181036000830152614cab81896144d5565b90508181036020830152614cbf818861461d565b90508181036040830152614cd38187614533565b9050614ce260608301866147a5565b614cef608083018561468a565b614cfc60a0830184614ace565b979650505050505050565b6000602082019050614d1c600083018461467b565b92915050565b6000602082019050614d37600083018461468a565b92915050565b600060a082019050614d52600083018861468a565b614d5f602083018761468a565b614d6c604083018661468a565b614d796060830185614ace565b614d8660808301846144c6565b9695505050505050565b6000606082019050614da5600083018661468a565b614db26020830185614ace565b614dbf6040830184614aec565b949350505050565b600060a082019050614ddc600083018861468a565b614de96020830187614ace565b614df66040830186614aec565b614e03606083018561468a565b614e10608083018461468a565b9695505050505050565b6000608082019050614e2f600083018761468a565b614e3c6020830186614aec565b614e49604083018561468a565b614e56606083018461468a565b95945050505050565b6000602082019050614e7460008301846146b0565b92915050565b6000602082019050614e8f6000830184614787565b92915050565b6000602082019050614eaa6000830184614796565b92915050565b60006020820190508181036000830152614eca81846147ed565b905092915050565b60006020820190508181036000830152614eeb81614826565b9050919050565b60006020820190508181036000830152614f0b81614849565b9050919050565b60006020820190508181036000830152614f2b8161486c565b9050919050565b60006020820190508181036000830152614f4b8161488f565b9050919050565b60006020820190508181036000830152614f6b816148d5565b9050919050565b60006020820190508181036000830152614f8b816148f8565b9050919050565b60006020820190508181036000830152614fab8161491b565b9050919050565b60006020820190508181036000830152614fcb8161493e565b9050919050565b60006020820190508181036000830152614feb81614961565b9050919050565b6000602082019050818103600083015261500b81614984565b9050919050565b6000602082019050818103600083015261502b816149a7565b9050919050565b6000602082019050818103600083015261504b816149ca565b9050919050565b6000602082019050818103600083015261506b816149ed565b9050919050565b6000602082019050818103600083015261508b81614a10565b9050919050565b600060208201905081810360008301526150ab81614a33565b9050919050565b600060208201905081810360008301526150cb81614a56565b9050919050565b600060208201905081810360008301526150eb81614a79565b9050919050565b6000602082019050818103600083015261510b81614a9c565b9050919050565b60006020820190506151276000830184614ace565b92915050565b600061012082019050615143600083018c614ace565b615150602083018b6144c6565b8181036040830152615162818a6144d5565b90508181036060830152615176818961461d565b9050818103608083015261518a81886145a8565b905081810360a083015261519e8187614533565b90506151ad60c0830186614add565b6151ba60e0830185614add565b8181036101008301526151cd81846147ed565b90509a9950505050505050505050565b60006040820190506151f26000830185614ace565b6151ff6020830184614ace565b9392505050565b600060608201905061521b6000830186614ace565b6152286020830185614ace565b6152356040830184614ace565b949350505050565b60006080820190506152526000830187614ace565b61525f6020830186614aec565b61526c6040830185614ace565b818103606083015261527e81846147ed565b905095945050505050565b600060a08201905061529e6000830188614ace565b6152ab6020830187614aec565b6152b86040830186614ace565b81810360608301526152ca81856147ed565b905081810360808301526152de818461471d565b90509695505050505050565b60006152f4615305565b90506153008282615852565b919050565b6000604051905090565b600067ffffffffffffffff82111561532a57615329615992565b5b602082029050602081019050919050565b600067ffffffffffffffff82111561535657615355615992565b5b602082029050602081019050919050565b600067ffffffffffffffff82111561538257615381615992565b5b602082029050602081019050919050565b600067ffffffffffffffff8211156153ae576153ad615992565b5b6153b7826159c1565b9050602081019050919050565b600067ffffffffffffffff8211156153df576153de615992565b5b6153e8826159c1565b9050602081019050919050565b6000819050602082019050919050565b6000819050602082019050919050565b6000819050602082019050919050565b6000819050602082019050919050565b600081519050919050565b600081519050919050565b600081519050919050565b600081519050919050565b600081519050919050565b600081519050919050565b6000602082019050919050565b6000602082019050919050565b6000602082019050919050565b6000602082019050919050565b600082825260208201905092915050565b600082825260208201905092915050565b600082825260208201905092915050565b600082825260208201905092915050565b600082825260208201905092915050565b600082825260208201905092915050565b600081905092915050565b600082825260208201905092915050565b600082825260208201905092915050565b600081905092915050565b600061555482615751565b915061555f83615751565b9250827fffffffffffffffffffffffffffffffffffffffffffffffffffffffffffffffff03821115615594576155936158d6565b5b828201905092915050565b60006155aa8261575b565b91506155b58361575b565b92508267ffffffffffffffff038211156155d2576155d16158d6565b5b828201905092915050565b60006155e882615751565b91506155f383615751565b92508261560357615602615905565b5b828204905092915050565b600061561982615751565b915061562483615751565b9250817fffffffffffffffffffffffffffffffffffffffffffffffffffffffffffffffff048311821515161561565d5761565c6158d6565b5b828202905092915050565b600061567382615751565b915061567e83615751565b925082821015615691576156906158d6565b5b828203905092915050565b60006156a782615731565b9050919050565b60006156b982615731565b9050919050565b60008115159050919050565b6000819050919050565b60007fffffffff0000000000000000000000000000000000000000000000000000000082169050919050565b600061570d826156ae565b9050919050565b600081905061572282615ed8565b919050565b6000819050919050565b600073ffffffffffffffffffffffffffffffffffffffff82169050919050565b6000819050919050565b600067ffffffffffffffff82169050919050565b600060ff82169050919050565b60006157878261578e565b9050919050565b600061579982615731565b9050919050565b60006157ab82615714565b9050919050565b60006157c56157c083615727565b6159d2565b9050919050565b60006157d78261575b565b9050919050565b82818337600083830152505050565b60005b8381101561580b5780820151818401526020810190506157f0565b8381111561581a576000848401525b50505050565b6000600282049050600182168061583857607f821691505b6020821081141561584c5761584b615963565b5b50919050565b61585b826159c1565b810181811067ffffffffffffffff8211171561587a57615879615992565b5b80604052505050565b600061588e82615751565b91507fffffffffffffffffffffffffffffffffffffffffffffffffffffffffffffffff8214156158c1576158c06158d6565b5b600182019050919050565b6000819050919050565b7f4e487b7100000000000000000000000000000000000000000000000000000000600052601160045260246000fd5b7f4e487b7100000000000000000000000000000000000000000000000000000000600052601260045260246000fd5b7f4e487b7100000000000000000000000000000000000000000000000000000000600052602160045260246000fd5b7f4e487b7100000000000000000000000000000000000000000000000000000000600052602260045260246000fd5b7f4e487b7100000000000000000000000000000000000000000000000000000000600052604160045260246000fd5b6000601f19601f8301169050919050565b60008160001b9050919050565b7f45434453413a20696e76616c6964207369676e61747572650000000000000000600082015250565b7f476f7665726e6f723a206f6e6c79476f7665726e616e63650000000000000000600082015250565b7f476f7665726e6f72566f74657351756f72756d4672616374696f6e3a2071756f60008201527f72756d4e756d657261746f72206f7665722071756f72756d44656e6f6d696e6160208201527f746f720000000000000000000000000000000000000000000000000000000000604082015250565b7f45434453413a20696e76616c6964207369676e6174757265206c656e67746800600082015250565b7f1901000000000000000000000000000000000000000000000000000000000000600082015250565b7f476f7665726e6f723a20696e76616c69642070726f706f73616c206c656e677460008201527f6800000000000000000000000000000000000000000000000000000000000000602082015250565b7f45434453413a20696e76616c6964207369676e6174757265202773272076616c60008201527f7565000000000000000000000000000000000000000000000000000000000000602082015250565b7f476f7665726e6f72566f74696e6753696d706c653a20766f746520616c72656160008201527f6479206361737400000000000000000000000000000000000000000000000000602082015250565b7f416464726573733a20696e73756666696369656e742062616c616e636520666f60008201527f722063616c6c0000000000000000000000000000000000000000000000000000602082015250565b7f476f7665726e6f723a20766f7465206e6f742063757272656e746c792061637460008201527f6976650000000000000000000000000000000000000000000000000000000000602082015250565b7f476f7665726e6f723a20656d7074792070726f706f73616c0000000000000000600082015250565b7f45434453413a20696e76616c6964207369676e6174757265202776272076616c60008201527f7565000000000000000000000000000000000000000000000000000000000000602082015250565b7f53616665436173743a2076616c756520646f65736e27742066697420696e203660008201527f3420626974730000000000000000000000000000000000000000000000000000602082015250565b7f476f7665726e6f723a2070726f706f73616c206e6f742073756363657373667560008201527f6c00000000000000000000000000000000000000000000000000000000000000602082015250565b7f476f7665726e6f723a20756e6b6e6f776e2070726f706f73616c206964000000600082015250565b7f476f7665726e6f72566f74696e6753696d706c653a20696e76616c696420766160008201527f6c756520666f7220656e756d20566f7465547970650000000000000000000000602082015250565b7f476f7665726e6f723a2070726f706f73616c20616c726561647920657869737460008201527f7300000000000000000000000000000000000000000000000000000000000000602082015250565b7f416464726573733a2063616c6c20746f206e6f6e2d636f6e7472616374000000600082015250565b7f476f7665726e6f723a2070726f706f73657220766f7465732062656c6f77207060008201527f726f706f73616c207468726573686f6c64000000000000000000000000000000602082015250565b60088110615ee957615ee8615934565b5b50565b615ef58161569c565b8114615f0057600080fd5b50565b615f0c816156c0565b8114615f1757600080fd5b50565b615f23816156cc565b8114615f2e57600080fd5b50565b615f3a816156d6565b8114615f4557600080fd5b50565b615f5181615702565b8114615f5c57600080fd5b50565b615f6881615751565b8114615f7357600080fd5b50565b615f7f8161576f565b8114615f8a57600080fd5b5056fe416464726573733a206c6f772d6c6576656c2063616c6c20776974682076616c7565206661696c6564a26469706673582212203364fe093d184147e9b5a2de1d79f186efdcd07da225bf7e89e78d9c2b38172e64736f6c63430008040033",
			"opcodes": "PUSH2 0x160 PUSH1 0x40 MSTORE CALLVALUE DUP1 ISZERO PUSH3 0x12 JUMPI PUSH1 0x0 DUP1 REVERT JUMPDEST POP PUSH1 0x40 MLOAD PUSH3 0x684E CODESIZE SUB DUP1 PUSH3 0x684E DUP4 CODECOPY DUP2 DUP2 ADD PUSH1 0x40 MSTORE DUP2 ADD SWAP1 PUSH3 0x38 SWAP2 SWAP1 PUSH3 0x481 JUMP JUMPDEST DUP4 DUP4 DUP7 PUSH1 0x40 MLOAD DUP1 PUSH1 0x40 ADD PUSH1 0x40 MSTORE DUP1 PUSH1 0x12 DUP2 MSTORE PUSH1 0x20 ADD PUSH32 0x476F7665726E616E6365436F6E74726163740000000000000000000000000000 DUP2 MSTORE POP DUP1 PUSH3 0x82 PUSH3 0x1C7 PUSH1 0x20 SHL PUSH1 0x20 SHR JUMP JUMPDEST PUSH1 0x0 DUP3 DUP1 MLOAD SWAP1 PUSH1 0x20 ADD KECCAK256 SWAP1 POP PUSH1 0x0 DUP3 DUP1 MLOAD SWAP1 PUSH1 0x20 ADD KECCAK256 SWAP1 POP PUSH1 0x0 PUSH32 0x8B73C3C69BB8FE3D512ECC4CF759CC79239F7B179B0FFACAA9A75D522B39400F SWAP1 POP DUP3 PUSH1 0xE0 DUP2 DUP2 MSTORE POP POP DUP2 PUSH2 0x100 DUP2 DUP2 MSTORE POP POP CHAINID PUSH1 0xA0 DUP2 DUP2 MSTORE POP POP PUSH3 0xEB DUP2 DUP5 DUP5 PUSH3 0x204 PUSH1 0x20 SHL PUSH1 0x20 SHR JUMP JUMPDEST PUSH1 0x80 DUP2 DUP2 MSTORE POP POP ADDRESS PUSH20 0xFFFFFFFFFFFFFFFFFFFFFFFFFFFFFFFFFFFFFFFF AND PUSH1 0xC0 DUP2 PUSH20 0xFFFFFFFFFFFFFFFFFFFFFFFFFFFFFFFFFFFFFFFF AND PUSH1 0x60 SHL DUP2 MSTORE POP POP DUP1 PUSH2 0x120 DUP2 DUP2 MSTORE POP POP POP POP POP POP POP DUP1 PUSH1 0x0 SWAP1 DUP1 MLOAD SWAP1 PUSH1 0x20 ADD SWAP1 PUSH3 0x14F SWAP3 SWAP2 SWAP1 PUSH3 0x38C JUMP JUMPDEST POP POP DUP1 PUSH20 0xFFFFFFFFFFFFFFFFFFFFFFFFFFFFFFFFFFFFFFFF AND PUSH2 0x140 DUP2 PUSH20 0xFFFFFFFFFFFFFFFFFFFFFFFFFFFFFFFFFFFFFFFF AND PUSH1 0x60 SHL DUP2 MSTORE POP POP POP PUSH3 0x19B DUP2 PUSH3 0x240 PUSH1 0x20 SHL PUSH1 0x20 SHR JUMP JUMPDEST POP PUSH3 0x1AD DUP2 PUSH3 0x2E2 PUSH1 0x20 SHL PUSH1 0x20 SHR JUMP JUMPDEST POP DUP1 PUSH1 0x8 DUP2 SWAP1 SSTORE POP DUP2 PUSH1 0x9 DUP2 SWAP1 SSTORE POP POP POP POP POP POP PUSH3 0x7F3 JUMP JUMPDEST PUSH1 0x60 PUSH1 0x40 MLOAD DUP1 PUSH1 0x40 ADD PUSH1 0x40 MSTORE DUP1 PUSH1 0x1 DUP2 MSTORE PUSH1 0x20 ADD PUSH32 0x3100000000000000000000000000000000000000000000000000000000000000 DUP2 MSTORE POP SWAP1 POP SWAP1 JUMP JUMPDEST PUSH1 0x0 DUP4 DUP4 DUP4 CHAINID ADDRESS PUSH1 0x40 MLOAD PUSH1 0x20 ADD PUSH3 0x221 SWAP6 SWAP5 SWAP4 SWAP3 SWAP2 SWAP1 PUSH3 0x58A JUMP JUMPDEST PUSH1 0x40 MLOAD PUSH1 0x20 DUP2 DUP4 SUB SUB DUP2 MSTORE SWAP1 PUSH1 0x40 MSTORE DUP1 MLOAD SWAP1 PUSH1 0x20 ADD KECCAK256 SWAP1 POP SWAP4 SWAP3 POP POP POP JUMP JUMPDEST PUSH3 0x250 PUSH3 0x383 PUSH1 0x20 SHL PUSH1 0x20 SHR JUMP JUMPDEST DUP2 GT ISZERO PUSH3 0x295 JUMPI PUSH1 0x40 MLOAD PUSH32 0x8C379A000000000000000000000000000000000000000000000000000000000 DUP2 MSTORE PUSH1 0x4 ADD PUSH3 0x28C SWAP1 PUSH3 0x5E7 JUMP JUMPDEST PUSH1 0x40 MLOAD DUP1 SWAP2 SUB SWAP1 REVERT JUMPDEST PUSH1 0x0 PUSH1 0x5 SLOAD SWAP1 POP DUP2 PUSH1 0x5 DUP2 SWAP1 SSTORE POP PUSH32 0x553476BF02EF2726E8CE5CED78D63E26E602E4A2257B1F559418E24B4633997 DUP2 DUP4 PUSH1 0x40 MLOAD PUSH3 0x2D6 SWAP3 SWAP2 SWAP1 PUSH3 0x609 JUMP JUMPDEST PUSH1 0x40 MLOAD DUP1 SWAP2 SUB SWAP1 LOG1 POP POP JUMP JUMPDEST PUSH32 0x8F74EA46EF7894F65EABFB5E6E695DE773A000B47C529AB559178069B226401 PUSH1 0x6 PUSH1 0x0 SWAP1 SLOAD SWAP1 PUSH2 0x100 EXP SWAP1 DIV PUSH20 0xFFFFFFFFFFFFFFFFFFFFFFFFFFFFFFFFFFFFFFFF AND DUP3 PUSH1 0x40 MLOAD PUSH3 0x337 SWAP3 SWAP2 SWAP1 PUSH3 0x55D JUMP JUMPDEST PUSH1 0x40 MLOAD DUP1 SWAP2 SUB SWAP1 LOG1 DUP1 PUSH1 0x6 PUSH1 0x0 PUSH2 0x100 EXP DUP2 SLOAD DUP2 PUSH20 0xFFFFFFFFFFFFFFFFFFFFFFFFFFFFFFFFFFFFFFFF MUL NOT AND SWAP1 DUP4 PUSH20 0xFFFFFFFFFFFFFFFFFFFFFFFFFFFFFFFFFFFFFFFF AND MUL OR SWAP1 SSTORE POP POP JUMP JUMPDEST PUSH1 0x0 PUSH1 0x64 SWAP1 POP SWAP1 JUMP JUMPDEST DUP3 DUP1 SLOAD PUSH3 0x39A SWAP1 PUSH3 0x6CB JUMP JUMPDEST SWAP1 PUSH1 0x0 MSTORE PUSH1 0x20 PUSH1 0x0 KECCAK256 SWAP1 PUSH1 0x1F ADD PUSH1 0x20 SWAP1 DIV DUP2 ADD SWAP3 DUP3 PUSH3 0x3BE JUMPI PUSH1 0x0 DUP6 SSTORE PUSH3 0x40A JUMP JUMPDEST DUP3 PUSH1 0x1F LT PUSH3 0x3D9 JUMPI DUP1 MLOAD PUSH1 0xFF NOT AND DUP4 DUP1 ADD OR DUP6 SSTORE PUSH3 0x40A JUMP JUMPDEST DUP3 DUP1 ADD PUSH1 0x1 ADD DUP6 SSTORE DUP3 ISZERO PUSH3 0x40A JUMPI SWAP2 DUP3 ADD JUMPDEST DUP3 DUP2 GT ISZERO PUSH3 0x409 JUMPI DUP3 MLOAD DUP3 SSTORE SWAP2 PUSH1 0x20 ADD SWAP2 SWAP1 PUSH1 0x1 ADD SWAP1 PUSH3 0x3EC JUMP JUMPDEST JUMPDEST POP SWAP1 POP PUSH3 0x419 SWAP2 SWAP1 PUSH3 0x41D JUMP JUMPDEST POP SWAP1 JUMP JUMPDEST JUMPDEST DUP1 DUP3 GT ISZERO PUSH3 0x438 JUMPI PUSH1 0x0 DUP2 PUSH1 0x0 SWAP1 SSTORE POP PUSH1 0x1 ADD PUSH3 0x41E JUMP JUMPDEST POP SWAP1 JUMP JUMPDEST PUSH1 0x0 DUP2 MLOAD SWAP1 POP PUSH3 0x44D DUP2 PUSH3 0x7A5 JUMP JUMPDEST SWAP3 SWAP2 POP POP JUMP JUMPDEST PUSH1 0x0 DUP2 MLOAD SWAP1 POP PUSH3 0x464 DUP2 PUSH3 0x7BF JUMP JUMPDEST SWAP3 SWAP2 POP POP JUMP JUMPDEST PUSH1 0x0 DUP2 MLOAD SWAP1 POP PUSH3 0x47B DUP2 PUSH3 0x7D9 JUMP JUMPDEST SWAP3 SWAP2 POP POP JUMP JUMPDEST PUSH1 0x0 DUP1 PUSH1 0x0 DUP1 PUSH1 0x0 PUSH1 0xA0 DUP7 DUP9 SUB SLT ISZERO PUSH3 0x49A JUMPI PUSH1 0x0 DUP1 REVERT JUMPDEST PUSH1 0x0 PUSH3 0x4AA DUP9 DUP3 DUP10 ADD PUSH3 0x43C JUMP JUMPDEST SWAP6 POP POP PUSH1 0x20 PUSH3 0x4BD DUP9 DUP3 DUP10 ADD PUSH3 0x453 JUMP JUMPDEST SWAP5 POP POP PUSH1 0x40 PUSH3 0x4D0 DUP9 DUP3 DUP10 ADD PUSH3 0x46A JUMP JUMPDEST SWAP4 POP POP PUSH1 0x60 PUSH3 0x4E3 DUP9 DUP3 DUP10 ADD PUSH3 0x46A JUMP JUMPDEST SWAP3 POP POP PUSH1 0x80 PUSH3 0x4F6 DUP9 DUP3 DUP10 ADD PUSH3 0x46A JUMP JUMPDEST SWAP2 POP POP SWAP3 SWAP6 POP SWAP3 SWAP6 SWAP1 SWAP4 POP JUMP JUMPDEST PUSH3 0x50E DUP2 PUSH3 0x647 JUMP JUMPDEST DUP3 MSTORE POP POP JUMP JUMPDEST PUSH3 0x51F DUP2 PUSH3 0x66F JUMP JUMPDEST DUP3 MSTORE POP POP JUMP JUMPDEST PUSH1 0x0 PUSH3 0x534 PUSH1 0x43 DUP4 PUSH3 0x636 JUMP JUMPDEST SWAP2 POP PUSH3 0x541 DUP3 PUSH3 0x730 JUMP JUMPDEST PUSH1 0x60 DUP3 ADD SWAP1 POP SWAP2 SWAP1 POP JUMP JUMPDEST PUSH3 0x557 DUP2 PUSH3 0x6C1 JUMP JUMPDEST DUP3 MSTORE POP POP JUMP JUMPDEST PUSH1 0x0 PUSH1 0x40 DUP3 ADD SWAP1 POP PUSH3 0x574 PUSH1 0x0 DUP4 ADD DUP6 PUSH3 0x503 JUMP JUMPDEST PUSH3 0x583 PUSH1 0x20 DUP4 ADD DUP5 PUSH3 0x503 JUMP JUMPDEST SWAP4 SWAP3 POP POP POP JUMP JUMPDEST PUSH1 0x0 PUSH1 0xA0 DUP3 ADD SWAP1 POP PUSH3 0x5A1 PUSH1 0x0 DUP4 ADD DUP9 PUSH3 0x514 JUMP JUMPDEST PUSH3 0x5B0 PUSH1 0x20 DUP4 ADD DUP8 PUSH3 0x514 JUMP JUMPDEST PUSH3 0x5BF PUSH1 0x40 DUP4 ADD DUP7 PUSH3 0x514 JUMP JUMPDEST PUSH3 0x5CE PUSH1 0x60 DUP4 ADD DUP6 PUSH3 0x54C JUMP JUMPDEST PUSH3 0x5DD PUSH1 0x80 DUP4 ADD DUP5 PUSH3 0x503 JUMP JUMPDEST SWAP7 SWAP6 POP POP POP POP POP POP JUMP JUMPDEST PUSH1 0x0 PUSH1 0x20 DUP3 ADD SWAP1 POP DUP2 DUP2 SUB PUSH1 0x0 DUP4 ADD MSTORE PUSH3 0x602 DUP2 PUSH3 0x525 JUMP JUMPDEST SWAP1 POP SWAP2 SWAP1 POP JUMP JUMPDEST PUSH1 0x0 PUSH1 0x40 DUP3 ADD SWAP1 POP PUSH3 0x620 PUSH1 0x0 DUP4 ADD DUP6 PUSH3 0x54C JUMP JUMPDEST PUSH3 0x62F PUSH1 0x20 DUP4 ADD DUP5 PUSH3 0x54C JUMP JUMPDEST SWAP4 SWAP3 POP POP POP JUMP JUMPDEST PUSH1 0x0 DUP3 DUP3 MSTORE PUSH1 0x20 DUP3 ADD SWAP1 POP SWAP3 SWAP2 POP POP JUMP JUMPDEST PUSH1 0x0 PUSH3 0x654 DUP3 PUSH3 0x6A1 JUMP JUMPDEST SWAP1 POP SWAP2 SWAP1 POP JUMP JUMPDEST PUSH1 0x0 PUSH3 0x668 DUP3 PUSH3 0x6A1 JUMP JUMPDEST SWAP1 POP SWAP2 SWAP1 POP JUMP JUMPDEST PUSH1 0x0 DUP2 SWAP1 POP SWAP2 SWAP1 POP JUMP JUMPDEST PUSH1 0x0 PUSH3 0x686 DUP3 PUSH3 0x647 JUMP JUMPDEST SWAP1 POP SWAP2 SWAP1 POP JUMP JUMPDEST PUSH1 0x0 PUSH3 0x69A DUP3 PUSH3 0x65B JUMP JUMPDEST SWAP1 POP SWAP2 SWAP1 POP JUMP JUMPDEST PUSH1 0x0 PUSH20 0xFFFFFFFFFFFFFFFFFFFFFFFFFFFFFFFFFFFFFFFF DUP3 AND SWAP1 POP SWAP2 SWAP1 POP JUMP JUMPDEST PUSH1 0x0 DUP2 SWAP1 POP SWAP2 SWAP1 POP JUMP JUMPDEST PUSH1 0x0 PUSH1 0x2 DUP3 DIV SWAP1 POP PUSH1 0x1 DUP3 AND DUP1 PUSH3 0x6E4 JUMPI PUSH1 0x7F DUP3 AND SWAP2 POP JUMPDEST PUSH1 0x20 DUP3 LT DUP2 EQ ISZERO PUSH3 0x6FB JUMPI PUSH3 0x6FA PUSH3 0x701 JUMP JUMPDEST JUMPDEST POP SWAP2 SWAP1 POP JUMP JUMPDEST PUSH32 0x4E487B7100000000000000000000000000000000000000000000000000000000 PUSH1 0x0 MSTORE PUSH1 0x22 PUSH1 0x4 MSTORE PUSH1 0x24 PUSH1 0x0 REVERT JUMPDEST PUSH32 0x476F7665726E6F72566F74657351756F72756D4672616374696F6E3A2071756F PUSH1 0x0 DUP3 ADD MSTORE PUSH32 0x72756D4E756D657261746F72206F7665722071756F72756D44656E6F6D696E61 PUSH1 0x20 DUP3 ADD MSTORE PUSH32 0x746F720000000000000000000000000000000000000000000000000000000000 PUSH1 0x40 DUP3 ADD MSTORE POP JUMP JUMPDEST PUSH3 0x7B0 DUP2 PUSH3 0x679 JUMP JUMPDEST DUP2 EQ PUSH3 0x7BC JUMPI PUSH1 0x0 DUP1 REVERT JUMPDEST POP JUMP JUMPDEST PUSH3 0x7CA DUP2 PUSH3 0x68D JUMP JUMPDEST DUP2 EQ PUSH3 0x7D6 JUMPI PUSH1 0x0 DUP1 REVERT JUMPDEST POP JUMP JUMPDEST PUSH3 0x7E4 DUP2 PUSH3 0x6C1 JUMP JUMPDEST DUP2 EQ PUSH3 0x7F0 JUMPI PUSH1 0x0 DUP1 REVERT JUMPDEST POP JUMP JUMPDEST PUSH1 0x80 MLOAD PUSH1 0xA0 MLOAD PUSH1 0xC0 MLOAD PUSH1 0x60 SHR PUSH1 0xE0 MLOAD PUSH2 0x100 MLOAD PUSH2 0x120 MLOAD PUSH2 0x140 MLOAD PUSH1 0x60 SHR PUSH2 0x5FEC PUSH3 0x862 PUSH1 0x0 CODECOPY PUSH1 0x0 DUP2 DUP2 PUSH2 0x1A5C ADD MSTORE DUP2 DUP2 PUSH2 0x2632 ADD MSTORE PUSH2 0x27DD ADD MSTORE PUSH1 0x0 PUSH2 0x2AB2 ADD MSTORE PUSH1 0x0 PUSH2 0x2AF4 ADD MSTORE PUSH1 0x0 PUSH2 0x2AD3 ADD MSTORE PUSH1 0x0 PUSH2 0x2A08 ADD MSTORE PUSH1 0x0 PUSH2 0x2A5E ADD MSTORE PUSH1 0x0 PUSH2 0x2A87 ADD MSTORE PUSH2 0x5FEC PUSH1 0x0 RETURN INVALID PUSH1 0x80 PUSH1 0x40 MSTORE PUSH1 0x4 CALLDATASIZE LT PUSH2 0x234 JUMPI PUSH1 0x0 CALLDATALOAD PUSH1 0xE0 SHR DUP1 PUSH4 0x725AE3DC GT PUSH2 0x12E JUMPI DUP1 PUSH4 0xC01F9E37 GT PUSH2 0xAB JUMPI DUP1 PUSH4 0xDEAAA7CC GT PUSH2 0x6F JUMPI DUP1 PUSH4 0xDEAAA7CC EQ PUSH2 0x97A JUMPI DUP1 PUSH4 0xEB9019D4 EQ PUSH2 0x9A5 JUMPI DUP1 PUSH4 0xF23A6E61 EQ PUSH2 0x9E2 JUMPI DUP1 PUSH4 0xF8CE560A EQ PUSH2 0xA1F JUMPI DUP1 PUSH4 0xFC0C546A EQ PUSH2 0xA5C JUMPI PUSH2 0x27A JUMP JUMPDEST DUP1 PUSH4 0xC01F9E37 EQ PUSH2 0x881 JUMPI DUP1 PUSH4 0xC28BC2FA EQ PUSH2 0x8BE JUMPI DUP1 PUSH4 0xC59057E4 EQ PUSH2 0x8E7 JUMPI DUP1 PUSH4 0xD33219B4 EQ PUSH2 0x924 JUMPI DUP1 PUSH4 0xDD4E2BA5 EQ PUSH2 0x94F JUMPI PUSH2 0x27A JUMP JUMPDEST DUP1 PUSH4 0xA7713A70 GT PUSH2 0xF2 JUMPI DUP1 PUSH4 0xA7713A70 EQ PUSH2 0x788 JUMPI DUP1 PUSH4 0xA890C910 EQ PUSH2 0x7B3 JUMPI DUP1 PUSH4 0xAB58FB8E EQ PUSH2 0x7DC JUMPI DUP1 PUSH4 0xB58131B0 EQ PUSH2 0x819 JUMPI DUP1 PUSH4 0xBC197C81 EQ PUSH2 0x844 JUMPI PUSH2 0x27A JUMP JUMPDEST DUP1 PUSH4 0x725AE3DC EQ PUSH2 0x67B JUMPI DUP1 PUSH4 0x7B3C71D3 EQ PUSH2 0x6A6 JUMPI DUP1 PUSH4 0x7D5E81E2 EQ PUSH2 0x6E3 JUMPI DUP1 PUSH4 0x97C3D334 EQ PUSH2 0x720 JUMPI DUP1 PUSH4 0x9A802A6D EQ PUSH2 0x74B JUMPI PUSH2 0x27A JUMP JUMPDEST DUP1 PUSH4 0x2D63F693 GT PUSH2 0x1BC JUMPI DUP1 PUSH4 0x43859632 GT PUSH2 0x180 JUMPI DUP1 PUSH4 0x43859632 EQ PUSH2 0x55A JUMPI DUP1 PUSH4 0x544FFC9C EQ PUSH2 0x597 JUMPI DUP1 PUSH4 0x54FD4D50 EQ PUSH2 0x5D6 JUMPI DUP1 PUSH4 0x56781388 EQ PUSH2 0x601 JUMPI DUP1 PUSH4 0x5F398A14 EQ PUSH2 0x63E JUMPI PUSH2 0x27A JUMP JUMPDEST DUP1 PUSH4 0x2D63F693 EQ PUSH2 0x44D JUMPI DUP1 PUSH4 0x2FE3E261 EQ PUSH2 0x48A JUMPI DUP1 PUSH4 0x3932ABB1 EQ PUSH2 0x4B5 JUMPI DUP1 PUSH4 0x3BCCF4FD EQ PUSH2 0x4E0 JUMPI DUP1 PUSH4 0x3E4F49E6 EQ PUSH2 0x51D JUMPI PUSH2 0x27A JUMP JUMPDEST DUP1 PUSH4 0x6FDDE03 GT PUSH2 0x203 JUMPI DUP1 PUSH4 0x6FDDE03 EQ PUSH2 0x34D JUMPI DUP1 PUSH4 0x102D7F2C EQ PUSH2 0x378 JUMPI DUP1 PUSH4 0x150B7A02 EQ PUSH2 0x3A3 JUMPI DUP1 PUSH4 0x160CBED7 EQ PUSH2 0x3E0 JUMPI DUP1 PUSH4 0x2656227D EQ PUSH2 0x41D JUMPI PUSH2 0x27A JUMP JUMPDEST DUP1 PUSH4 0x1FFC9A7 EQ PUSH2 0x27F JUMPI DUP1 PUSH4 0x2A251A3 EQ PUSH2 0x2BC JUMPI DUP1 PUSH4 0x3420181 EQ PUSH2 0x2E7 JUMPI DUP1 PUSH4 0x6F3F9E6 EQ PUSH2 0x324 JUMPI PUSH2 0x27A JUMP JUMPDEST CALLDATASIZE PUSH2 0x27A JUMPI ADDRESS PUSH20 0xFFFFFFFFFFFFFFFFFFFFFFFFFFFFFFFFFFFFFFFF AND PUSH2 0x258 PUSH2 0xA87 JUMP JUMPDEST PUSH20 0xFFFFFFFFFFFFFFFFFFFFFFFFFFFFFFFFFFFFFFFF AND EQ PUSH2 0x278 JUMPI PUSH1 0x0 DUP1 REVERT JUMPDEST STOP JUMPDEST PUSH1 0x0 DUP1 REVERT JUMPDEST CALLVALUE DUP1 ISZERO PUSH2 0x28B JUMPI PUSH1 0x0 DUP1 REVERT JUMPDEST POP PUSH2 0x2A6 PUSH1 0x4 DUP1 CALLDATASIZE SUB DUP2 ADD SWAP1 PUSH2 0x2A1 SWAP2 SWAP1 PUSH2 0x40F6 JUMP JUMPDEST PUSH2 0xA96 JUMP JUMPDEST PUSH1 0x40 MLOAD PUSH2 0x2B3 SWAP2 SWAP1 PUSH2 0x4D07 JUMP JUMPDEST PUSH1 0x40 MLOAD DUP1 SWAP2 SUB SWAP1 RETURN JUMPDEST CALLVALUE DUP1 ISZERO PUSH2 0x2C8 JUMPI PUSH1 0x0 DUP1 REVERT JUMPDEST POP PUSH2 0x2D1 PUSH2 0xAA8 JUMP JUMPDEST PUSH1 0x40 MLOAD PUSH2 0x2DE SWAP2 SWAP1 PUSH2 0x5112 JUMP JUMPDEST PUSH1 0x40 MLOAD DUP1 SWAP2 SUB SWAP1 RETURN JUMPDEST CALLVALUE DUP1 ISZERO PUSH2 0x2F3 JUMPI PUSH1 0x0 DUP1 REVERT JUMPDEST POP PUSH2 0x30E PUSH1 0x4 DUP1 CALLDATASIZE SUB DUP2 ADD SWAP1 PUSH2 0x309 SWAP2 SWAP1 PUSH2 0x4316 JUMP JUMPDEST PUSH2 0xAB2 JUMP JUMPDEST PUSH1 0x40 MLOAD PUSH2 0x31B SWAP2 SWAP1 PUSH2 0x5112 JUMP JUMPDEST PUSH1 0x40 MLOAD DUP1 SWAP2 SUB SWAP1 RETURN JUMPDEST CALLVALUE DUP1 ISZERO PUSH2 0x330 JUMPI PUSH1 0x0 DUP1 REVERT JUMPDEST POP PUSH2 0x34B PUSH1 0x4 DUP1 CALLDATASIZE SUB DUP2 ADD SWAP1 PUSH2 0x346 SWAP2 SWAP1 PUSH2 0x4148 JUMP JUMPDEST PUSH2 0xB97 JUMP JUMPDEST STOP JUMPDEST CALLVALUE DUP1 ISZERO PUSH2 0x359 JUMPI PUSH1 0x0 DUP1 REVERT JUMPDEST POP PUSH2 0x362 PUSH2 0xC93 JUMP JUMPDEST PUSH1 0x40 MLOAD PUSH2 0x36F SWAP2 SWAP1 PUSH2 0x4EB0 JUMP JUMPDEST PUSH1 0x40 MLOAD DUP1 SWAP2 SUB SWAP1 RETURN JUMPDEST CALLVALUE DUP1 ISZERO PUSH2 0x384 JUMPI PUSH1 0x0 DUP1 REVERT JUMPDEST POP PUSH2 0x38D PUSH2 0xD25 JUMP JUMPDEST PUSH1 0x40 MLOAD PUSH2 0x39A SWAP2 SWAP1 PUSH2 0x5112 JUMP JUMPDEST PUSH1 0x40 MLOAD DUP1 SWAP2 SUB SWAP1 RETURN JUMPDEST CALLVALUE DUP1 ISZERO PUSH2 0x3AF JUMPI PUSH1 0x0 DUP1 REVERT JUMPDEST POP PUSH2 0x3CA PUSH1 0x4 DUP1 CALLDATASIZE SUB DUP2 ADD SWAP1 PUSH2 0x3C5 SWAP2 SWAP1 PUSH2 0x3D1D JUMP JUMPDEST PUSH2 0xD2B JUMP JUMPDEST PUSH1 0x40 MLOAD PUSH2 0x3D7 SWAP2 SWAP1 PUSH2 0x4E5F JUMP JUMPDEST PUSH1 0x40 MLOAD DUP1 SWAP2 SUB SWAP1 RETURN JUMPDEST CALLVALUE DUP1 ISZERO PUSH2 0x3EC JUMPI PUSH1 0x0 DUP1 REVERT JUMPDEST POP PUSH2 0x407 PUSH1 0x4 DUP1 CALLDATASIZE SUB DUP2 ADD SWAP1 PUSH2 0x402 SWAP2 SWAP1 PUSH2 0x3F36 JUMP JUMPDEST PUSH2 0xD3F JUMP JUMPDEST PUSH1 0x40 MLOAD PUSH2 0x414 SWAP2 SWAP1 PUSH2 0x5112 JUMP JUMPDEST PUSH1 0x40 MLOAD DUP1 SWAP2 SUB SWAP1 RETURN JUMPDEST PUSH2 0x437 PUSH1 0x4 DUP1 CALLDATASIZE SUB DUP2 ADD SWAP1 PUSH2 0x432 SWAP2 SWAP1 PUSH2 0x3F36 JUMP JUMPDEST PUSH2 0x1063 JUMP JUMPDEST PUSH1 0x40 MLOAD PUSH2 0x444 SWAP2 SWAP1 PUSH2 0x5112 JUMP JUMPDEST PUSH1 0x40 MLOAD DUP1 SWAP2 SUB SWAP1 RETURN JUMPDEST CALLVALUE DUP1 ISZERO PUSH2 0x459 JUMPI PUSH1 0x0 DUP1 REVERT JUMPDEST POP PUSH2 0x474 PUSH1 0x4 DUP1 CALLDATASIZE SUB DUP2 ADD SWAP1 PUSH2 0x46F SWAP2 SWAP1 PUSH2 0x4148 JUMP JUMPDEST PUSH2 0x1248 JUMP JUMPDEST PUSH1 0x40 MLOAD PUSH2 0x481 SWAP2 SWAP1 PUSH2 0x5112 JUMP JUMPDEST PUSH1 0x40 MLOAD DUP1 SWAP2 SUB SWAP1 RETURN JUMPDEST CALLVALUE DUP1 ISZERO PUSH2 0x496 JUMPI PUSH1 0x0 DUP1 REVERT JUMPDEST POP PUSH2 0x49F PUSH2 0x12B6 JUMP JUMPDEST PUSH1 0x40 MLOAD PUSH2 0x4AC SWAP2 SWAP1 PUSH2 0x4D22 JUMP JUMPDEST PUSH1 0x40 MLOAD DUP1 SWAP2 SUB SWAP1 RETURN JUMPDEST CALLVALUE DUP1 ISZERO PUSH2 0x4C1 JUMPI PUSH1 0x0 DUP1 REVERT JUMPDEST POP PUSH2 0x4CA PUSH2 0x12DA JUMP JUMPDEST PUSH1 0x40 MLOAD PUSH2 0x4D7 SWAP2 SWAP1 PUSH2 0x5112 JUMP JUMPDEST PUSH1 0x40 MLOAD DUP1 SWAP2 SUB SWAP1 RETURN JUMPDEST CALLVALUE DUP1 ISZERO PUSH2 0x4EC JUMPI PUSH1 0x0 DUP1 REVERT JUMPDEST POP PUSH2 0x507 PUSH1 0x4 DUP1 CALLDATASIZE SUB DUP2 ADD SWAP1 PUSH2 0x502 SWAP2 SWAP1 PUSH2 0x43E8 JUMP JUMPDEST PUSH2 0x12E4 JUMP JUMPDEST PUSH1 0x40 MLOAD PUSH2 0x514 SWAP2 SWAP1 PUSH2 0x5112 JUMP JUMPDEST PUSH1 0x40 MLOAD DUP1 SWAP2 SUB SWAP1 RETURN JUMPDEST CALLVALUE DUP1 ISZERO PUSH2 0x529 JUMPI PUSH1 0x0 DUP1 REVERT JUMPDEST POP PUSH2 0x544 PUSH1 0x4 DUP1 CALLDATASIZE SUB DUP2 ADD SWAP1 PUSH2 0x53F SWAP2 SWAP1 PUSH2 0x4148 JUMP JUMPDEST PUSH2 0x136E JUMP JUMPDEST PUSH1 0x40 MLOAD PUSH2 0x551 SWAP2 SWAP1 PUSH2 0x4E95 JUMP JUMPDEST PUSH1 0x40 MLOAD DUP1 SWAP2 SUB SWAP1 RETURN JUMPDEST CALLVALUE DUP1 ISZERO PUSH2 0x566 JUMPI PUSH1 0x0 DUP1 REVERT JUMPDEST POP PUSH2 0x581 PUSH1 0x4 DUP1 CALLDATASIZE SUB DUP2 ADD SWAP1 PUSH2 0x57C SWAP2 SWAP1 PUSH2 0x419A JUMP JUMPDEST PUSH2 0x1380 JUMP JUMPDEST PUSH1 0x40 MLOAD PUSH2 0x58E SWAP2 SWAP1 PUSH2 0x4D07 JUMP JUMPDEST PUSH1 0x40 MLOAD DUP1 SWAP2 SUB SWAP1 RETURN JUMPDEST CALLVALUE DUP1 ISZERO PUSH2 0x5A3 JUMPI PUSH1 0x0 DUP1 REVERT JUMPDEST POP PUSH2 0x5BE PUSH1 0x4 DUP1 CALLDATASIZE SUB DUP2 ADD SWAP1 PUSH2 0x5B9 SWAP2 SWAP1 PUSH2 0x4148 JUMP JUMPDEST PUSH2 0x13EB JUMP JUMPDEST PUSH1 0x40 MLOAD PUSH2 0x5CD SWAP4 SWAP3 SWAP2 SWAP1 PUSH2 0x5206 JUMP JUMPDEST PUSH1 0x40 MLOAD DUP1 SWAP2 SUB SWAP1 RETURN JUMPDEST CALLVALUE DUP1 ISZERO PUSH2 0x5E2 JUMPI PUSH1 0x0 DUP1 REVERT JUMPDEST POP PUSH2 0x5EB PUSH2 0x1423 JUMP JUMPDEST PUSH1 0x40 MLOAD PUSH2 0x5F8 SWAP2 SWAP1 PUSH2 0x4EB0 JUMP JUMPDEST PUSH1 0x40 MLOAD DUP1 SWAP2 SUB SWAP1 RETURN JUMPDEST CALLVALUE DUP1 ISZERO PUSH2 0x60D JUMPI PUSH1 0x0 DUP1 REVERT JUMPDEST POP PUSH2 0x628 PUSH1 0x4 DUP1 CALLDATASIZE SUB DUP2 ADD SWAP1 PUSH2 0x623 SWAP2 SWAP1 PUSH2 0x41D6 JUMP JUMPDEST PUSH2 0x1460 JUMP JUMPDEST PUSH1 0x40 MLOAD PUSH2 0x635 SWAP2 SWAP1 PUSH2 0x5112 JUMP JUMPDEST PUSH1 0x40 MLOAD DUP1 SWAP2 SUB SWAP1 RETURN JUMPDEST CALLVALUE DUP1 ISZERO PUSH2 0x64A JUMPI PUSH1 0x0 DUP1 REVERT JUMPDEST POP PUSH2 0x665 PUSH1 0x4 DUP1 CALLDATASIZE SUB DUP2 ADD SWAP1 PUSH2 0x660 SWAP2 SWAP1 PUSH2 0x427E JUMP JUMPDEST PUSH2 0x1491 JUMP JUMPDEST PUSH1 0x40 MLOAD PUSH2 0x672 SWAP2 SWAP1 PUSH2 0x5112 JUMP JUMPDEST PUSH1 0x40 MLOAD DUP1 SWAP2 SUB SWAP1 RETURN JUMPDEST CALLVALUE DUP1 ISZERO PUSH2 0x687 JUMPI PUSH1 0x0 DUP1 REVERT JUMPDEST POP PUSH2 0x690 PUSH2 0x14FB JUMP JUMPDEST PUSH1 0x40 MLOAD PUSH2 0x69D SWAP2 SWAP1 PUSH2 0x5112 JUMP JUMPDEST PUSH1 0x40 MLOAD DUP1 SWAP2 SUB SWAP1 RETURN JUMPDEST CALLVALUE DUP1 ISZERO PUSH2 0x6B2 JUMPI PUSH1 0x0 DUP1 REVERT JUMPDEST POP PUSH2 0x6CD PUSH1 0x4 DUP1 CALLDATASIZE SUB DUP2 ADD SWAP1 PUSH2 0x6C8 SWAP2 SWAP1 PUSH2 0x4212 JUMP JUMPDEST PUSH2 0x1501 JUMP JUMPDEST PUSH1 0x40 MLOAD PUSH2 0x6DA SWAP2 SWAP1 PUSH2 0x5112 JUMP JUMPDEST PUSH1 0x40 MLOAD DUP1 SWAP2 SUB SWAP1 RETURN JUMPDEST CALLVALUE DUP1 ISZERO PUSH2 0x6EF JUMPI PUSH1 0x0 DUP1 REVERT JUMPDEST POP PUSH2 0x70A PUSH1 0x4 DUP1 CALLDATASIZE SUB DUP2 ADD SWAP1 PUSH2 0x705 SWAP2 SWAP1 PUSH2 0x3FE1 JUMP JUMPDEST PUSH2 0x1569 JUMP JUMPDEST PUSH1 0x40 MLOAD PUSH2 0x717 SWAP2 SWAP1 PUSH2 0x5112 JUMP JUMPDEST PUSH1 0x40 MLOAD DUP1 SWAP2 SUB SWAP1 RETURN JUMPDEST CALLVALUE DUP1 ISZERO PUSH2 0x72C JUMPI PUSH1 0x0 DUP1 REVERT JUMPDEST POP PUSH2 0x735 PUSH2 0x1581 JUMP JUMPDEST PUSH1 0x40 MLOAD PUSH2 0x742 SWAP2 SWAP1 PUSH2 0x5112 JUMP JUMPDEST PUSH1 0x40 MLOAD DUP1 SWAP2 SUB SWAP1 RETURN JUMPDEST CALLVALUE DUP1 ISZERO PUSH2 0x757 JUMPI PUSH1 0x0 DUP1 REVERT JUMPDEST POP PUSH2 0x772 PUSH1 0x4 DUP1 CALLDATASIZE SUB DUP2 ADD SWAP1 PUSH2 0x76D SWAP2 SWAP1 PUSH2 0x3ECF JUMP JUMPDEST PUSH2 0x158A JUMP JUMPDEST PUSH1 0x40 MLOAD PUSH2 0x77F SWAP2 SWAP1 PUSH2 0x5112 JUMP JUMPDEST PUSH1 0x40 MLOAD DUP1 SWAP2 SUB SWAP1 RETURN JUMPDEST CALLVALUE DUP1 ISZERO PUSH2 0x794 JUMPI PUSH1 0x0 DUP1 REVERT JUMPDEST POP PUSH2 0x79D PUSH2 0x15A0 JUMP JUMPDEST PUSH1 0x40 MLOAD PUSH2 0x7AA SWAP2 SWAP1 PUSH2 0x5112 JUMP JUMPDEST PUSH1 0x40 MLOAD DUP1 SWAP2 SUB SWAP1 RETURN JUMPDEST CALLVALUE DUP1 ISZERO PUSH2 0x7BF JUMPI PUSH1 0x0 DUP1 REVERT JUMPDEST POP PUSH2 0x7DA PUSH1 0x4 DUP1 CALLDATASIZE SUB DUP2 ADD SWAP1 PUSH2 0x7D5 SWAP2 SWAP1 PUSH2 0x411F JUMP JUMPDEST PUSH2 0x15AA JUMP JUMPDEST STOP JUMPDEST CALLVALUE DUP1 ISZERO PUSH2 0x7E8 JUMPI PUSH1 0x0 DUP1 REVERT JUMPDEST POP PUSH2 0x803 PUSH1 0x4 DUP1 CALLDATASIZE SUB DUP2 ADD SWAP1 PUSH2 0x7FE SWAP2 SWAP1 PUSH2 0x4148 JUMP JUMPDEST PUSH2 0x16A6 JUMP JUMPDEST PUSH1 0x40 MLOAD PUSH2 0x810 SWAP2 SWAP1 PUSH2 0x5112 JUMP JUMPDEST PUSH1 0x40 MLOAD DUP1 SWAP2 SUB SWAP1 RETURN JUMPDEST CALLVALUE DUP1 ISZERO PUSH2 0x825 JUMPI PUSH1 0x0 DUP1 REVERT JUMPDEST POP PUSH2 0x82E PUSH2 0x1782 JUMP JUMPDEST PUSH1 0x40 MLOAD PUSH2 0x83B SWAP2 SWAP1 PUSH2 0x5112 JUMP JUMPDEST PUSH1 0x40 MLOAD DUP1 SWAP2 SUB SWAP1 RETURN JUMPDEST CALLVALUE DUP1 ISZERO PUSH2 0x850 JUMPI PUSH1 0x0 DUP1 REVERT JUMPDEST POP PUSH2 0x86B PUSH1 0x4 DUP1 CALLDATASIZE SUB DUP2 ADD SWAP1 PUSH2 0x866 SWAP2 SWAP1 PUSH2 0x3C5E JUMP JUMPDEST PUSH2 0x1787 JUMP JUMPDEST PUSH1 0x40 MLOAD PUSH2 0x878 SWAP2 SWAP1 PUSH2 0x4E5F JUMP JUMPDEST PUSH1 0x40 MLOAD DUP1 SWAP2 SUB SWAP1 RETURN JUMPDEST CALLVALUE DUP1 ISZERO PUSH2 0x88D JUMPI PUSH1 0x0 DUP1 REVERT JUMPDEST POP PUSH2 0x8A8 PUSH1 0x4 DUP1 CALLDATASIZE SUB DUP2 ADD SWAP1 PUSH2 0x8A3 SWAP2 SWAP1 PUSH2 0x4148 JUMP JUMPDEST PUSH2 0x179C JUMP JUMPDEST PUSH1 0x40 MLOAD PUSH2 0x8B5 SWAP2 SWAP1 PUSH2 0x5112 JUMP JUMPDEST PUSH1 0x40 MLOAD DUP1 SWAP2 SUB SWAP1 RETURN JUMPDEST CALLVALUE DUP1 ISZERO PUSH2 0x8CA JUMPI PUSH1 0x0 DUP1 REVERT JUMPDEST POP PUSH2 0x8E5 PUSH1 0x4 DUP1 CALLDATASIZE SUB DUP2 ADD SWAP1 PUSH2 0x8E0 SWAP2 SWAP1 PUSH2 0x3E63 JUMP JUMPDEST PUSH2 0x180A JUMP JUMPDEST STOP JUMPDEST CALLVALUE DUP1 ISZERO PUSH2 0x8F3 JUMPI PUSH1 0x0 DUP1 REVERT JUMPDEST POP PUSH2 0x90E PUSH1 0x4 DUP1 CALLDATASIZE SUB DUP2 ADD SWAP1 PUSH2 0x909 SWAP2 SWAP1 PUSH2 0x3F36 JUMP JUMPDEST PUSH2 0x1950 JUMP JUMPDEST PUSH1 0x40 MLOAD PUSH2 0x91B SWAP2 SWAP1 PUSH2 0x5112 JUMP JUMPDEST PUSH1 0x40 MLOAD DUP1 SWAP2 SUB SWAP1 RETURN JUMPDEST CALLVALUE DUP1 ISZERO PUSH2 0x930 JUMPI PUSH1 0x0 DUP1 REVERT JUMPDEST POP PUSH2 0x939 PUSH2 0x198C JUMP JUMPDEST PUSH1 0x40 MLOAD PUSH2 0x946 SWAP2 SWAP1 PUSH2 0x4B62 JUMP JUMPDEST PUSH1 0x40 MLOAD DUP1 SWAP2 SUB SWAP1 RETURN JUMPDEST CALLVALUE DUP1 ISZERO PUSH2 0x95B JUMPI PUSH1 0x0 DUP1 REVERT JUMPDEST POP PUSH2 0x964 PUSH2 0x19B6 JUMP JUMPDEST PUSH1 0x40 MLOAD PUSH2 0x971 SWAP2 SWAP1 PUSH2 0x4EB0 JUMP JUMPDEST PUSH1 0x40 MLOAD DUP1 SWAP2 SUB SWAP1 RETURN JUMPDEST CALLVALUE DUP1 ISZERO PUSH2 0x986 JUMPI PUSH1 0x0 DUP1 REVERT JUMPDEST POP PUSH2 0x98F PUSH2 0x19F3 JUMP JUMPDEST PUSH1 0x40 MLOAD PUSH2 0x99C SWAP2 SWAP1 PUSH2 0x4D22 JUMP JUMPDEST PUSH1 0x40 MLOAD DUP1 SWAP2 SUB SWAP1 RETURN JUMPDEST CALLVALUE DUP1 ISZERO PUSH2 0x9B1 JUMPI PUSH1 0x0 DUP1 REVERT JUMPDEST POP PUSH2 0x9CC PUSH1 0x4 DUP1 CALLDATASIZE SUB DUP2 ADD SWAP1 PUSH2 0x9C7 SWAP2 SWAP1 PUSH2 0x3E27 JUMP JUMPDEST PUSH2 0x1A17 JUMP JUMPDEST PUSH1 0x40 MLOAD PUSH2 0x9D9 SWAP2 SWAP1 PUSH2 0x5112 JUMP JUMPDEST PUSH1 0x40 MLOAD DUP1 SWAP2 SUB SWAP1 RETURN JUMPDEST CALLVALUE DUP1 ISZERO PUSH2 0x9EE JUMPI PUSH1 0x0 DUP1 REVERT JUMPDEST POP PUSH2 0xA09 PUSH1 0x4 DUP1 CALLDATASIZE SUB DUP2 ADD SWAP1 PUSH2 0xA04 SWAP2 SWAP1 PUSH2 0x3D98 JUMP JUMPDEST PUSH2 0x1A33 JUMP JUMPDEST PUSH1 0x40 MLOAD PUSH2 0xA16 SWAP2 SWAP1 PUSH2 0x4E5F JUMP JUMPDEST PUSH1 0x40 MLOAD DUP1 SWAP2 SUB SWAP1 RETURN JUMPDEST CALLVALUE DUP1 ISZERO PUSH2 0xA2B JUMPI PUSH1 0x0 DUP1 REVERT JUMPDEST POP PUSH2 0xA46 PUSH1 0x4 DUP1 CALLDATASIZE SUB DUP2 ADD SWAP1 PUSH2 0xA41 SWAP2 SWAP1 PUSH2 0x4148 JUMP JUMPDEST PUSH2 0x1A48 JUMP JUMPDEST PUSH1 0x40 MLOAD PUSH2 0xA53 SWAP2 SWAP1 PUSH2 0x5112 JUMP JUMPDEST PUSH1 0x40 MLOAD DUP1 SWAP2 SUB SWAP1 RETURN JUMPDEST CALLVALUE DUP1 ISZERO PUSH2 0xA68 JUMPI PUSH1 0x0 DUP1 REVERT JUMPDEST POP PUSH2 0xA71 PUSH2 0x1A5A JUMP JUMPDEST PUSH1 0x40 MLOAD PUSH2 0xA7E SWAP2 SWAP1 PUSH2 0x4E7A JUMP JUMPDEST PUSH1 0x40 MLOAD DUP1 SWAP2 SUB SWAP1 RETURN JUMPDEST PUSH1 0x0 PUSH2 0xA91 PUSH2 0x1A7E JUMP JUMPDEST SWAP1 POP SWAP1 JUMP JUMPDEST PUSH1 0x0 PUSH2 0xAA1 DUP3 PUSH2 0x1AA8 JUMP JUMPDEST SWAP1 POP SWAP2 SWAP1 POP JUMP JUMPDEST PUSH1 0x0 PUSH1 0x9 SLOAD SWAP1 POP SWAP1 JUMP JUMPDEST PUSH1 0x0 DUP1 PUSH2 0xB35 PUSH2 0xB2D PUSH32 0xB3B3F3B703CD84CE352197DCFF232B1B5D3CFB2025CE47CF04742D0651F1AF88 DUP13 DUP13 DUP13 DUP13 PUSH1 0x40 MLOAD PUSH2 0xAEE SWAP3 SWAP2 SWAP1 PUSH2 0x4AFB JUMP JUMPDEST PUSH1 0x40 MLOAD DUP1 SWAP2 SUB SWAP1 KECCAK256 DUP12 DUP1 MLOAD SWAP1 PUSH1 0x20 ADD KECCAK256 PUSH1 0x40 MLOAD PUSH1 0x20 ADD PUSH2 0xB12 SWAP6 SWAP5 SWAP4 SWAP3 SWAP2 SWAP1 PUSH2 0x4DC7 JUMP JUMPDEST PUSH1 0x40 MLOAD PUSH1 0x20 DUP2 DUP4 SUB SUB DUP2 MSTORE SWAP1 PUSH1 0x40 MSTORE DUP1 MLOAD SWAP1 PUSH1 0x20 ADD KECCAK256 PUSH2 0x1B22 JUMP JUMPDEST DUP7 DUP7 DUP7 PUSH2 0x1B3C JUMP JUMPDEST SWAP1 POP PUSH2 0xB88 DUP11 DUP3 DUP12 DUP12 DUP12 DUP1 DUP1 PUSH1 0x1F ADD PUSH1 0x20 DUP1 SWAP2 DIV MUL PUSH1 0x20 ADD PUSH1 0x40 MLOAD SWAP1 DUP2 ADD PUSH1 0x40 MSTORE DUP1 SWAP4 SWAP3 SWAP2 SWAP1 DUP2 DUP2 MSTORE PUSH1 0x20 ADD DUP4 DUP4 DUP1 DUP3 DUP5 CALLDATACOPY PUSH1 0x0 DUP2 DUP5 ADD MSTORE PUSH1 0x1F NOT PUSH1 0x1F DUP3 ADD AND SWAP1 POP DUP1 DUP4 ADD SWAP3 POP POP POP POP POP POP POP DUP11 PUSH2 0x1B67 JUMP JUMPDEST SWAP2 POP POP SWAP9 SWAP8 POP POP POP POP POP POP POP POP JUMP JUMPDEST PUSH2 0xB9F PUSH2 0xA87 JUMP JUMPDEST PUSH20 0xFFFFFFFFFFFFFFFFFFFFFFFFFFFFFFFFFFFFFFFF AND PUSH2 0xBBD PUSH2 0x1D70 JUMP JUMPDEST PUSH20 0xFFFFFFFFFFFFFFFFFFFFFFFFFFFFFFFFFFFFFFFF AND EQ PUSH2 0xC13 JUMPI PUSH1 0x40 MLOAD PUSH32 0x8C379A000000000000000000000000000000000000000000000000000000000 DUP2 MSTORE PUSH1 0x4 ADD PUSH2 0xC0A SWAP1 PUSH2 0x4EF2 JUMP JUMPDEST PUSH1 0x40 MLOAD DUP1 SWAP2 SUB SWAP1 REVERT JUMPDEST ADDRESS PUSH20 0xFFFFFFFFFFFFFFFFFFFFFFFFFFFFFFFFFFFFFFFF AND PUSH2 0xC32 PUSH2 0xA87 JUMP JUMPDEST PUSH20 0xFFFFFFFFFFFFFFFFFFFFFFFFFFFFFFFFFFFFFFFF AND EQ PUSH2 0xC87 JUMPI PUSH1 0x0 PUSH2 0xC57 PUSH2 0x1D78 JUMP JUMPDEST PUSH1 0x40 MLOAD PUSH2 0xC65 SWAP3 SWAP2 SWAP1 PUSH2 0x4AFB JUMP JUMPDEST PUSH1 0x40 MLOAD DUP1 SWAP2 SUB SWAP1 KECCAK256 SWAP1 POP JUMPDEST DUP1 PUSH2 0xC7B PUSH1 0x2 PUSH2 0x1D85 JUMP JUMPDEST EQ PUSH2 0xC85 JUMPI PUSH2 0xC70 JUMP JUMPDEST POP JUMPDEST PUSH2 0xC90 DUP2 PUSH2 0x1E61 JUMP JUMPDEST POP JUMP JUMPDEST PUSH1 0x60 PUSH1 0x0 DUP1 SLOAD PUSH2 0xCA2 SWAP1 PUSH2 0x5820 JUMP JUMPDEST DUP1 PUSH1 0x1F ADD PUSH1 0x20 DUP1 SWAP2 DIV MUL PUSH1 0x20 ADD PUSH1 0x40 MLOAD SWAP1 DUP2 ADD PUSH1 0x40 MSTORE DUP1 SWAP3 SWAP2 SWAP1 DUP2 DUP2 MSTORE PUSH1 0x20 ADD DUP3 DUP1 SLOAD PUSH2 0xCCE SWAP1 PUSH2 0x5820 JUMP JUMPDEST DUP1 ISZERO PUSH2 0xD1B JUMPI DUP1 PUSH1 0x1F LT PUSH2 0xCF0 JUMPI PUSH2 0x100 DUP1 DUP4 SLOAD DIV MUL DUP4 MSTORE SWAP2 PUSH1 0x20 ADD SWAP2 PUSH2 0xD1B JUMP JUMPDEST DUP3 ADD SWAP2 SWAP1 PUSH1 0x0 MSTORE PUSH1 0x20 PUSH1 0x0 KECCAK256 SWAP1 JUMPDEST DUP2 SLOAD DUP2 MSTORE SWAP1 PUSH1 0x1 ADD SWAP1 PUSH1 0x20 ADD DUP1 DUP4 GT PUSH2 0xCFE JUMPI DUP3 SWAP1 SUB PUSH1 0x1F AND DUP3 ADD SWAP2 JUMPDEST POP POP POP POP POP SWAP1 POP SWAP1 JUMP JUMPDEST PUSH1 0x8 SLOAD DUP2 JUMP JUMPDEST PUSH1 0x0 PUSH4 0x150B7A02 PUSH1 0xE0 SHL SWAP1 POP SWAP5 SWAP4 POP POP POP POP JUMP JUMPDEST PUSH1 0x0 DUP1 PUSH2 0xD4E DUP7 DUP7 DUP7 DUP7 PUSH2 0x1950 JUMP JUMPDEST SWAP1 POP PUSH1 0x4 PUSH1 0x7 DUP2 GT ISZERO PUSH2 0xD8A JUMPI PUSH32 0x4E487B7100000000000000000000000000000000000000000000000000000000 PUSH1 0x0 MSTORE PUSH1 0x21 PUSH1 0x4 MSTORE PUSH1 0x24 PUSH1 0x0 REVERT JUMPDEST PUSH2 0xD93 DUP3 PUSH2 0x136E JUMP JUMPDEST PUSH1 0x7 DUP2 GT ISZERO PUSH2 0xDCB JUMPI PUSH32 0x4E487B7100000000000000000000000000000000000000000000000000000000 PUSH1 0x0 MSTORE PUSH1 0x21 PUSH1 0x4 MSTORE PUSH1 0x24 PUSH1 0x0 REVERT JUMPDEST EQ PUSH2 0xE0B JUMPI PUSH1 0x40 MLOAD PUSH32 0x8C379A000000000000000000000000000000000000000000000000000000000 DUP2 MSTORE PUSH1 0x4 ADD PUSH2 0xE02 SWAP1 PUSH2 0x5052 JUMP JUMPDEST PUSH1 0x40 MLOAD DUP1 SWAP2 SUB SWAP1 REVERT JUMPDEST PUSH1 0x0 PUSH1 0x6 PUSH1 0x0 SWAP1 SLOAD SWAP1 PUSH2 0x100 EXP SWAP1 DIV PUSH20 0xFFFFFFFFFFFFFFFFFFFFFFFFFFFFFFFFFFFFFFFF AND PUSH20 0xFFFFFFFFFFFFFFFFFFFFFFFFFFFFFFFFFFFFFFFF AND PUSH4 0xF27A0C92 PUSH1 0x40 MLOAD DUP2 PUSH4 0xFFFFFFFF AND PUSH1 0xE0 SHL DUP2 MSTORE PUSH1 0x4 ADD PUSH1 0x20 PUSH1 0x40 MLOAD DUP1 DUP4 SUB DUP2 DUP7 DUP1 EXTCODESIZE ISZERO DUP1 ISZERO PUSH2 0xE75 JUMPI PUSH1 0x0 DUP1 REVERT JUMPDEST POP GAS STATICCALL ISZERO DUP1 ISZERO PUSH2 0xE89 JUMPI RETURNDATASIZE PUSH1 0x0 DUP1 RETURNDATACOPY RETURNDATASIZE PUSH1 0x0 REVERT JUMPDEST POP POP POP POP PUSH1 0x40 MLOAD RETURNDATASIZE PUSH1 0x1F NOT PUSH1 0x1F DUP3 ADD AND DUP3 ADD DUP1 PUSH1 0x40 MSTORE POP DUP2 ADD SWAP1 PUSH2 0xEAD SWAP2 SWAP1 PUSH2 0x4171 JUMP JUMPDEST SWAP1 POP PUSH1 0x6 PUSH1 0x0 SWAP1 SLOAD SWAP1 PUSH2 0x100 EXP SWAP1 DIV PUSH20 0xFFFFFFFFFFFFFFFFFFFFFFFFFFFFFFFFFFFFFFFF AND PUSH20 0xFFFFFFFFFFFFFFFFFFFFFFFFFFFFFFFFFFFFFFFF AND PUSH4 0xB1C5F427 DUP9 DUP9 DUP9 PUSH1 0x0 DUP10 PUSH1 0x40 MLOAD DUP7 PUSH4 0xFFFFFFFF AND PUSH1 0xE0 SHL DUP2 MSTORE PUSH1 0x4 ADD PUSH2 0xF13 SWAP6 SWAP5 SWAP4 SWAP3 SWAP2 SWAP1 PUSH2 0x4C29 JUMP JUMPDEST PUSH1 0x20 PUSH1 0x40 MLOAD DUP1 DUP4 SUB DUP2 DUP7 DUP1 EXTCODESIZE ISZERO DUP1 ISZERO PUSH2 0xF2B JUMPI PUSH1 0x0 DUP1 REVERT JUMPDEST POP GAS STATICCALL ISZERO DUP1 ISZERO PUSH2 0xF3F JUMPI RETURNDATASIZE PUSH1 0x0 DUP1 RETURNDATACOPY RETURNDATASIZE PUSH1 0x0 REVERT JUMPDEST POP POP POP POP PUSH1 0x40 MLOAD RETURNDATASIZE PUSH1 0x1F NOT PUSH1 0x1F DUP3 ADD AND DUP3 ADD DUP1 PUSH1 0x40 MSTORE POP DUP2 ADD SWAP1 PUSH2 0xF63 SWAP2 SWAP1 PUSH2 0x40CD JUMP JUMPDEST PUSH1 0x7 PUSH1 0x0 DUP5 DUP2 MSTORE PUSH1 0x20 ADD SWAP1 DUP2 MSTORE PUSH1 0x20 ADD PUSH1 0x0 KECCAK256 DUP2 SWAP1 SSTORE POP PUSH1 0x6 PUSH1 0x0 SWAP1 SLOAD SWAP1 PUSH2 0x100 EXP SWAP1 DIV PUSH20 0xFFFFFFFFFFFFFFFFFFFFFFFFFFFFFFFFFFFFFFFF AND PUSH20 0xFFFFFFFFFFFFFFFFFFFFFFFFFFFFFFFFFFFFFFFF AND PUSH4 0x8F2A0BB0 DUP9 DUP9 DUP9 PUSH1 0x0 DUP10 DUP8 PUSH1 0x40 MLOAD DUP8 PUSH4 0xFFFFFFFF AND PUSH1 0xE0 SHL DUP2 MSTORE PUSH1 0x4 ADD PUSH2 0xFE0 SWAP7 SWAP6 SWAP5 SWAP4 SWAP3 SWAP2 SWAP1 PUSH2 0x4C91 JUMP JUMPDEST PUSH1 0x0 PUSH1 0x40 MLOAD DUP1 DUP4 SUB DUP2 PUSH1 0x0 DUP8 DUP1 EXTCODESIZE ISZERO DUP1 ISZERO PUSH2 0xFFA JUMPI PUSH1 0x0 DUP1 REVERT JUMPDEST POP GAS CALL ISZERO DUP1 ISZERO PUSH2 0x100E JUMPI RETURNDATASIZE PUSH1 0x0 DUP1 RETURNDATACOPY RETURNDATASIZE PUSH1 0x0 REVERT JUMPDEST POP POP POP POP PUSH32 0x9A2E42FD6722813D69113E7D0079D3D940171428DF7373DF9C7F7617CFDA2892 DUP3 DUP3 TIMESTAMP PUSH2 0x1040 SWAP2 SWAP1 PUSH2 0x5549 JUMP JUMPDEST PUSH1 0x40 MLOAD PUSH2 0x104E SWAP3 SWAP2 SWAP1 PUSH2 0x51DD JUMP JUMPDEST PUSH1 0x40 MLOAD DUP1 SWAP2 SUB SWAP1 LOG1 DUP2 SWAP3 POP POP POP SWAP5 SWAP4 POP POP POP POP JUMP JUMPDEST PUSH1 0x0 DUP1 PUSH2 0x1072 DUP7 DUP7 DUP7 DUP7 PUSH2 0x1950 JUMP JUMPDEST SWAP1 POP PUSH1 0x0 PUSH2 0x107F DUP3 PUSH2 0x136E JUMP JUMPDEST SWAP1 POP PUSH1 0x4 PUSH1 0x7 DUP2 GT ISZERO PUSH2 0x10BB JUMPI PUSH32 0x4E487B7100000000000000000000000000000000000000000000000000000000 PUSH1 0x0 MSTORE PUSH1 0x21 PUSH1 0x4 MSTORE PUSH1 0x24 PUSH1 0x0 REVERT JUMPDEST DUP2 PUSH1 0x7 DUP2 GT ISZERO PUSH2 0x10F4 JUMPI PUSH32 0x4E487B7100000000000000000000000000000000000000000000000000000000 PUSH1 0x0 MSTORE PUSH1 0x21 PUSH1 0x4 MSTORE PUSH1 0x24 PUSH1 0x0 REVERT JUMPDEST EQ DUP1 PUSH2 0x1170 JUMPI POP PUSH1 0x5 PUSH1 0x7 DUP2 GT ISZERO PUSH2 0x1135 JUMPI PUSH32 0x4E487B7100000000000000000000000000000000000000000000000000000000 PUSH1 0x0 MSTORE PUSH1 0x21 PUSH1 0x4 MSTORE PUSH1 0x24 PUSH1 0x0 REVERT JUMPDEST DUP2 PUSH1 0x7 DUP2 GT ISZERO PUSH2 0x116E JUMPI PUSH32 0x4E487B7100000000000000000000000000000000000000000000000000000000 PUSH1 0x0 MSTORE PUSH1 0x21 PUSH1 0x4 MSTORE PUSH1 0x24 PUSH1 0x0 REVERT JUMPDEST EQ JUMPDEST PUSH2 0x11AF JUMPI PUSH1 0x40 MLOAD PUSH32 0x8C379A000000000000000000000000000000000000000000000000000000000 DUP2 MSTORE PUSH1 0x4 ADD PUSH2 0x11A6 SWAP1 PUSH2 0x5052 JUMP JUMPDEST PUSH1 0x40 MLOAD DUP1 SWAP2 SUB SWAP1 REVERT JUMPDEST PUSH1 0x1 DUP1 PUSH1 0x0 DUP5 DUP2 MSTORE PUSH1 0x20 ADD SWAP1 DUP2 MSTORE PUSH1 0x20 ADD PUSH1 0x0 KECCAK256 PUSH1 0x2 ADD PUSH1 0x0 PUSH2 0x100 EXP DUP2 SLOAD DUP2 PUSH1 0xFF MUL NOT AND SWAP1 DUP4 ISZERO ISZERO MUL OR SWAP1 SSTORE POP PUSH32 0x712AE1383F79AC853F8D882153778E0260EF8F03B504E2866E0593E04D2B291F DUP3 PUSH1 0x40 MLOAD PUSH2 0x120C SWAP2 SWAP1 PUSH2 0x5112 JUMP JUMPDEST PUSH1 0x40 MLOAD DUP1 SWAP2 SUB SWAP1 LOG1 PUSH2 0x1221 DUP3 DUP9 DUP9 DUP9 DUP9 PUSH2 0x1EF6 JUMP JUMPDEST PUSH2 0x122E DUP3 DUP9 DUP9 DUP9 DUP9 PUSH2 0x2026 JUMP JUMPDEST PUSH2 0x123B DUP3 DUP9 DUP9 DUP9 DUP9 PUSH2 0x203A JUMP JUMPDEST DUP2 SWAP3 POP POP POP SWAP5 SWAP4 POP POP POP POP JUMP JUMPDEST PUSH1 0x0 PUSH2 0x12A5 PUSH1 0x1 PUSH1 0x0 DUP5 DUP2 MSTORE PUSH1 0x20 ADD SWAP1 DUP2 MSTORE PUSH1 0x20 ADD PUSH1 0x0 KECCAK256 PUSH1 0x0 ADD PUSH1 0x40 MLOAD DUP1 PUSH1 0x20 ADD PUSH1 0x40 MSTORE SWAP1 DUP2 PUSH1 0x0 DUP3 ADD PUSH1 0x0 SWAP1 SLOAD SWAP1 PUSH2 0x100 EXP SWAP1 DIV PUSH8 0xFFFFFFFFFFFFFFFF AND PUSH8 0xFFFFFFFFFFFFFFFF AND PUSH8 0xFFFFFFFFFFFFFFFF AND DUP2 MSTORE POP POP PUSH2 0x2095 JUMP JUMPDEST PUSH8 0xFFFFFFFFFFFFFFFF AND SWAP1 POP SWAP2 SWAP1 POP JUMP JUMPDEST PUSH32 0xB3B3F3B703CD84CE352197DCFF232B1B5D3CFB2025CE47CF04742D0651F1AF88 DUP2 JUMP JUMPDEST PUSH1 0x0 PUSH1 0x8 SLOAD SWAP1 POP SWAP1 JUMP JUMPDEST PUSH1 0x0 DUP1 PUSH2 0x1345 PUSH2 0x133D PUSH32 0x150214D74D59B7D1E90C73FC22EF3D991DD0A76B046543D4D80AB92D2A50328F DUP10 DUP10 PUSH1 0x40 MLOAD PUSH1 0x20 ADD PUSH2 0x1322 SWAP4 SWAP3 SWAP2 SWAP1 PUSH2 0x4D90 JUMP JUMPDEST PUSH1 0x40 MLOAD PUSH1 0x20 DUP2 DUP4 SUB SUB DUP2 MSTORE SWAP1 PUSH1 0x40 MSTORE DUP1 MLOAD SWAP1 PUSH1 0x20 ADD KECCAK256 PUSH2 0x1B22 JUMP JUMPDEST DUP7 DUP7 DUP7 PUSH2 0x1B3C JUMP JUMPDEST SWAP1 POP PUSH2 0x1362 DUP8 DUP3 DUP9 PUSH1 0x40 MLOAD DUP1 PUSH1 0x20 ADD PUSH1 0x40 MSTORE DUP1 PUSH1 0x0 DUP2 MSTORE POP PUSH2 0x20A3 JUMP JUMPDEST SWAP2 POP POP SWAP6 SWAP5 POP POP POP POP POP JUMP JUMPDEST PUSH1 0x0 PUSH2 0x1379 DUP3 PUSH2 0x20C3 JUMP JUMPDEST SWAP1 POP SWAP2 SWAP1 POP JUMP JUMPDEST PUSH1 0x0 PUSH1 0x4 PUSH1 0x0 DUP5 DUP2 MSTORE PUSH1 0x20 ADD SWAP1 DUP2 MSTORE PUSH1 0x20 ADD PUSH1 0x0 KECCAK256 PUSH1 0x3 ADD PUSH1 0x0 DUP4 PUSH20 0xFFFFFFFFFFFFFFFFFFFFFFFFFFFFFFFFFFFFFFFF AND PUSH20 0xFFFFFFFFFFFFFFFFFFFFFFFFFFFFFFFFFFFFFFFF AND DUP2 MSTORE PUSH1 0x20 ADD SWAP1 DUP2 MSTORE PUSH1 0x20 ADD PUSH1 0x0 KECCAK256 PUSH1 0x0 SWAP1 SLOAD SWAP1 PUSH2 0x100 EXP SWAP1 DIV PUSH1 0xFF AND SWAP1 POP SWAP3 SWAP2 POP POP JUMP JUMPDEST PUSH1 0x0 DUP1 PUSH1 0x0 DUP1 PUSH1 0x4 PUSH1 0x0 DUP7 DUP2 MSTORE PUSH1 0x20 ADD SWAP1 DUP2 MSTORE PUSH1 0x20 ADD PUSH1 0x0 KECCAK256 SWAP1 POP DUP1 PUSH1 0x0 ADD SLOAD DUP2 PUSH1 0x1 ADD SLOAD DUP3 PUSH1 0x2 ADD SLOAD SWAP4 POP SWAP4 POP SWAP4 POP POP SWAP2 SWAP4 SWAP1 SWAP3 POP JUMP JUMPDEST PUSH1 0x60 PUSH1 0x40 MLOAD DUP1 PUSH1 0x40 ADD PUSH1 0x40 MSTORE DUP1 PUSH1 0x1 DUP2 MSTORE PUSH1 0x20 ADD PUSH32 0x3100000000000000000000000000000000000000000000000000000000000000 DUP2 MSTORE POP SWAP1 POP SWAP1 JUMP JUMPDEST PUSH1 0x0 DUP1 PUSH2 0x146B PUSH2 0x1D70 JUMP JUMPDEST SWAP1 POP PUSH2 0x1488 DUP5 DUP3 DUP6 PUSH1 0x40 MLOAD DUP1 PUSH1 0x20 ADD PUSH1 0x40 MSTORE DUP1 PUSH1 0x0 DUP2 MSTORE POP PUSH2 0x20A3 JUMP JUMPDEST SWAP2 POP POP SWAP3 SWAP2 POP POP JUMP JUMPDEST PUSH1 0x0 DUP1 PUSH2 0x149C PUSH2 0x1D70 JUMP JUMPDEST SWAP1 POP PUSH2 0x14EF DUP8 DUP3 DUP9 DUP9 DUP9 DUP1 DUP1 PUSH1 0x1F ADD PUSH1 0x20 DUP1 SWAP2 DIV MUL PUSH1 0x20 ADD PUSH1 0x40 MLOAD SWAP1 DUP2 ADD PUSH1 0x40 MSTORE DUP1 SWAP4 SWAP3 SWAP2 SWAP1 DUP2 DUP2 MSTORE PUSH1 0x20 ADD DUP4 DUP4 DUP1 DUP3 DUP5 CALLDATACOPY PUSH1 0x0 DUP2 DUP5 ADD MSTORE PUSH1 0x1F NOT PUSH1 0x1F DUP3 ADD AND SWAP1 POP DUP1 DUP4 ADD SWAP3 POP POP POP POP POP POP POP DUP8 PUSH2 0x1B67 JUMP JUMPDEST SWAP2 POP POP SWAP6 SWAP5 POP POP POP POP POP JUMP JUMPDEST PUSH1 0x9 SLOAD DUP2 JUMP JUMPDEST PUSH1 0x0 DUP1 PUSH2 0x150C PUSH2 0x1D70 JUMP JUMPDEST SWAP1 POP PUSH2 0x155E DUP7 DUP3 DUP8 DUP8 DUP8 DUP1 DUP1 PUSH1 0x1F ADD PUSH1 0x20 DUP1 SWAP2 DIV MUL PUSH1 0x20 ADD PUSH1 0x40 MLOAD SWAP1 DUP2 ADD PUSH1 0x40 MSTORE DUP1 SWAP4 SWAP3 SWAP2 SWAP1 DUP2 DUP2 MSTORE PUSH1 0x20 ADD DUP4 DUP4 DUP1 DUP3 DUP5 CALLDATACOPY PUSH1 0x0 DUP2 DUP5 ADD MSTORE PUSH1 0x1F NOT PUSH1 0x1F DUP3 ADD AND SWAP1 POP DUP1 DUP4 ADD SWAP3 POP POP POP POP POP POP POP PUSH2 0x20A3 JUMP JUMPDEST SWAP2 POP POP SWAP5 SWAP4 POP POP POP POP JUMP JUMPDEST PUSH1 0x0 PUSH2 0x1577 DUP6 DUP6 DUP6 DUP6 PUSH2 0x2301 JUMP JUMPDEST SWAP1 POP SWAP5 SWAP4 POP POP POP POP JUMP JUMPDEST PUSH1 0x0 PUSH1 0x64 SWAP1 POP SWAP1 JUMP JUMPDEST PUSH1 0x0 PUSH2 0x1597 DUP5 DUP5 DUP5 PUSH2 0x262E JUMP JUMPDEST SWAP1 POP SWAP4 SWAP3 POP POP POP JUMP JUMPDEST PUSH1 0x0 PUSH1 0x5 SLOAD SWAP1 POP SWAP1 JUMP JUMPDEST PUSH2 0x15B2 PUSH2 0xA87 JUMP JUMPDEST PUSH20 0xFFFFFFFFFFFFFFFFFFFFFFFFFFFFFFFFFFFFFFFF AND PUSH2 0x15D0 PUSH2 0x1D70 JUMP JUMPDEST PUSH20 0xFFFFFFFFFFFFFFFFFFFFFFFFFFFFFFFFFFFFFFFF AND EQ PUSH2 0x1626 JUMPI PUSH1 0x40 MLOAD PUSH32 0x8C379A000000000000000000000000000000000000000000000000000000000 DUP2 MSTORE PUSH1 0x4 ADD PUSH2 0x161D SWAP1 PUSH2 0x4EF2 JUMP JUMPDEST PUSH1 0x40 MLOAD DUP1 SWAP2 SUB SWAP1 REVERT JUMPDEST ADDRESS PUSH20 0xFFFFFFFFFFFFFFFFFFFFFFFFFFFFFFFFFFFFFFFF AND PUSH2 0x1645 PUSH2 0xA87 JUMP JUMPDEST PUSH20 0xFFFFFFFFFFFFFFFFFFFFFFFFFFFFFFFFFFFFFFFF AND EQ PUSH2 0x169A JUMPI PUSH1 0x0 PUSH2 0x166A PUSH2 0x1D78 JUMP JUMPDEST PUSH1 0x40 MLOAD PUSH2 0x1678 SWAP3 SWAP2 SWAP1 PUSH2 0x4AFB JUMP JUMPDEST PUSH1 0x40 MLOAD DUP1 SWAP2 SUB SWAP1 KECCAK256 SWAP1 POP JUMPDEST DUP1 PUSH2 0x168E PUSH1 0x2 PUSH2 0x1D85 JUMP JUMPDEST EQ PUSH2 0x1698 JUMPI PUSH2 0x1683 JUMP JUMPDEST POP JUMPDEST PUSH2 0x16A3 DUP2 PUSH2 0x26E4 JUMP JUMPDEST POP JUMP JUMPDEST PUSH1 0x0 DUP1 PUSH1 0x6 PUSH1 0x0 SWAP1 SLOAD SWAP1 PUSH2 0x100 EXP SWAP1 DIV PUSH20 0xFFFFFFFFFFFFFFFFFFFFFFFFFFFFFFFFFFFFFFFF AND PUSH20 0xFFFFFFFFFFFFFFFFFFFFFFFFFFFFFFFFFFFFFFFF AND PUSH4 0xD45C4435 PUSH1 0x7 PUSH1 0x0 DUP7 DUP2 MSTORE PUSH1 0x20 ADD SWAP1 DUP2 MSTORE PUSH1 0x20 ADD PUSH1 0x0 KECCAK256 SLOAD PUSH1 0x40 MLOAD DUP3 PUSH4 0xFFFFFFFF AND PUSH1 0xE0 SHL DUP2 MSTORE PUSH1 0x4 ADD PUSH2 0x1717 SWAP2 SWAP1 PUSH2 0x4D22 JUMP JUMPDEST PUSH1 0x20 PUSH1 0x40 MLOAD DUP1 DUP4 SUB DUP2 DUP7 DUP1 EXTCODESIZE ISZERO DUP1 ISZERO PUSH2 0x172F JUMPI PUSH1 0x0 DUP1 REVERT JUMPDEST POP GAS STATICCALL ISZERO DUP1 ISZERO PUSH2 0x1743 JUMPI RETURNDATASIZE PUSH1 0x0 DUP1 RETURNDATACOPY RETURNDATASIZE PUSH1 0x0 REVERT JUMPDEST POP POP POP POP PUSH1 0x40 MLOAD RETURNDATASIZE PUSH1 0x1F NOT PUSH1 0x1F DUP3 ADD AND DUP3 ADD DUP1 PUSH1 0x40 MSTORE POP DUP2 ADD SWAP1 PUSH2 0x1767 SWAP2 SWAP1 PUSH2 0x4171 JUMP JUMPDEST SWAP1 POP PUSH1 0x1 DUP2 EQ PUSH2 0x1777 JUMPI DUP1 PUSH2 0x177A JUMP JUMPDEST PUSH1 0x0 JUMPDEST SWAP2 POP POP SWAP2 SWAP1 POP JUMP JUMPDEST PUSH1 0x0 SWAP1 JUMP JUMPDEST PUSH1 0x0 PUSH4 0xBC197C81 PUSH1 0xE0 SHL SWAP1 POP SWAP6 SWAP5 POP POP POP POP POP JUMP JUMPDEST PUSH1 0x0 PUSH2 0x17F9 PUSH1 0x1 PUSH1 0x0 DUP5 DUP2 MSTORE PUSH1 0x20 ADD SWAP1 DUP2 MSTORE PUSH1 0x20 ADD PUSH1 0x0 KECCAK256 PUSH1 0x1 ADD PUSH1 0x40 MLOAD DUP1 PUSH1 0x20 ADD PUSH1 0x40 MSTORE SWAP1 DUP2 PUSH1 0x0 DUP3 ADD PUSH1 0x0 SWAP1 SLOAD SWAP1 PUSH2 0x100 EXP SWAP1 DIV PUSH8 0xFFFFFFFFFFFFFFFF AND PUSH8 0xFFFFFFFFFFFFFFFF AND PUSH8 0xFFFFFFFFFFFFFFFF AND DUP2 MSTORE POP POP PUSH2 0x2095 JUMP JUMPDEST PUSH8 0xFFFFFFFFFFFFFFFF AND SWAP1 POP SWAP2 SWAP1 POP JUMP JUMPDEST PUSH2 0x1812 PUSH2 0xA87 JUMP JUMPDEST PUSH20 0xFFFFFFFFFFFFFFFFFFFFFFFFFFFFFFFFFFFFFFFF AND PUSH2 0x1830 PUSH2 0x1D70 JUMP JUMPDEST PUSH20 0xFFFFFFFFFFFFFFFFFFFFFFFFFFFFFFFFFFFFFFFF AND EQ PUSH2 0x1886 JUMPI PUSH1 0x40 MLOAD PUSH32 0x8C379A000000000000000000000000000000000000000000000000000000000 DUP2 MSTORE PUSH1 0x4 ADD PUSH2 0x187D SWAP1 PUSH2 0x4EF2 JUMP JUMPDEST PUSH1 0x40 MLOAD DUP1 SWAP2 SUB SWAP1 REVERT JUMPDEST ADDRESS PUSH20 0xFFFFFFFFFFFFFFFFFFFFFFFFFFFFFFFFFFFFFFFF AND PUSH2 0x18A5 PUSH2 0xA87 JUMP JUMPDEST PUSH20 0xFFFFFFFFFFFFFFFFFFFFFFFFFFFFFFFFFFFFFFFF AND EQ PUSH2 0x18FA JUMPI PUSH1 0x0 PUSH2 0x18CA PUSH2 0x1D78 JUMP JUMPDEST PUSH1 0x40 MLOAD PUSH2 0x18D8 SWAP3 SWAP2 SWAP1 PUSH2 0x4AFB JUMP JUMPDEST PUSH1 0x40 MLOAD DUP1 SWAP2 SUB SWAP1 KECCAK256 SWAP1 POP JUMPDEST DUP1 PUSH2 0x18EE PUSH1 0x2 PUSH2 0x1D85 JUMP JUMPDEST EQ PUSH2 0x18F8 JUMPI PUSH2 0x18E3 JUMP JUMPDEST POP JUMPDEST PUSH2 0x1949 DUP5 DUP4 DUP4 DUP1 DUP1 PUSH1 0x1F ADD PUSH1 0x20 DUP1 SWAP2 DIV MUL PUSH1 0x20 ADD PUSH1 0x40 MLOAD SWAP1 DUP2 ADD PUSH1 0x40 MSTORE DUP1 SWAP4 SWAP3 SWAP2 SWAP1 DUP2 DUP2 MSTORE PUSH1 0x20 ADD DUP4 DUP4 DUP1 DUP3 DUP5 CALLDATACOPY PUSH1 0x0 DUP2 DUP5 ADD MSTORE PUSH1 0x1F NOT PUSH1 0x1F DUP3 ADD AND SWAP1 POP DUP1 DUP4 ADD SWAP3 POP POP POP POP POP POP POP DUP6 PUSH2 0x2783 JUMP JUMPDEST POP POP POP POP POP JUMP JUMPDEST PUSH1 0x0 DUP5 DUP5 DUP5 DUP5 PUSH1 0x40 MLOAD PUSH1 0x20 ADD PUSH2 0x1969 SWAP5 SWAP4 SWAP3 SWAP2 SWAP1 PUSH2 0x4BCF JUMP JUMPDEST PUSH1 0x40 MLOAD PUSH1 0x20 DUP2 DUP4 SUB SUB DUP2 MSTORE SWAP1 PUSH1 0x40 MSTORE DUP1 MLOAD SWAP1 PUSH1 0x20 ADD KECCAK256 PUSH1 0x0 SHR SWAP1 POP SWAP5 SWAP4 POP POP POP POP JUMP JUMPDEST PUSH1 0x0 PUSH1 0x6 PUSH1 0x0 SWAP1 SLOAD SWAP1 PUSH2 0x100 EXP SWAP1 DIV PUSH20 0xFFFFFFFFFFFFFFFFFFFFFFFFFFFFFFFFFFFFFFFF AND SWAP1 POP SWAP1 JUMP JUMPDEST PUSH1 0x60 PUSH1 0x40 MLOAD DUP1 PUSH1 0x40 ADD PUSH1 0x40 MSTORE DUP1 PUSH1 0x20 DUP2 MSTORE PUSH1 0x20 ADD PUSH32 0x737570706F72743D627261766F2671756F72756D3D666F722C6162737461696E DUP2 MSTORE POP SWAP1 POP SWAP1 JUMP JUMPDEST PUSH32 0x150214D74D59B7D1E90C73FC22EF3D991DD0A76B046543D4D80AB92D2A50328F DUP2 JUMP JUMPDEST PUSH1 0x0 PUSH2 0x1A2B DUP4 DUP4 PUSH2 0x1A26 PUSH2 0x27B2 JUMP JUMPDEST PUSH2 0x262E JUMP JUMPDEST SWAP1 POP SWAP3 SWAP2 POP POP JUMP JUMPDEST PUSH1 0x0 PUSH4 0xF23A6E61 PUSH1 0xE0 SHL SWAP1 POP SWAP6 SWAP5 POP POP POP POP POP JUMP JUMPDEST PUSH1 0x0 PUSH2 0x1A53 DUP3 PUSH2 0x27C9 JUMP JUMPDEST SWAP1 POP SWAP2 SWAP1 POP JUMP JUMPDEST PUSH32 0x0 DUP2 JUMP JUMPDEST PUSH1 0x0 PUSH1 0x6 PUSH1 0x0 SWAP1 SLOAD SWAP1 PUSH2 0x100 EXP SWAP1 DIV PUSH20 0xFFFFFFFFFFFFFFFFFFFFFFFFFFFFFFFFFFFFFFFF AND SWAP1 POP SWAP1 JUMP JUMPDEST PUSH1 0x0 PUSH32 0x6E665CED00000000000000000000000000000000000000000000000000000000 PUSH28 0xFFFFFFFFFFFFFFFFFFFFFFFFFFFFFFFFFFFFFFFFFFFFFFFFFFFFFFFF NOT AND DUP3 PUSH28 0xFFFFFFFFFFFFFFFFFFFFFFFFFFFFFFFFFFFFFFFFFFFFFFFFFFFFFFFF NOT AND EQ DUP1 PUSH2 0x1B1B JUMPI POP PUSH2 0x1B1A DUP3 PUSH2 0x289F JUMP JUMPDEST JUMPDEST SWAP1 POP SWAP2 SWAP1 POP JUMP JUMPDEST PUSH1 0x0 PUSH2 0x1B35 PUSH2 0x1B2F PUSH2 0x2A04 JUMP JUMPDEST DUP4 PUSH2 0x2B1E JUMP JUMPDEST SWAP1 POP SWAP2 SWAP1 POP JUMP JUMPDEST PUSH1 0x0 DUP1 PUSH1 0x0 PUSH2 0x1B4D DUP8 DUP8 DUP8 DUP8 PUSH2 0x2B51 JUMP JUMPDEST SWAP2 POP SWAP2 POP PUSH2 0x1B5A DUP2 PUSH2 0x2C5E JUMP JUMPDEST DUP2 SWAP3 POP POP POP SWAP5 SWAP4 POP POP POP POP JUMP JUMPDEST PUSH1 0x0 DUP1 PUSH1 0x1 PUSH1 0x0 DUP9 DUP2 MSTORE PUSH1 0x20 ADD SWAP1 DUP2 MSTORE PUSH1 0x20 ADD PUSH1 0x0 KECCAK256 SWAP1 POP PUSH1 0x1 PUSH1 0x7 DUP2 GT ISZERO PUSH2 0x1BB9 JUMPI PUSH32 0x4E487B7100000000000000000000000000000000000000000000000000000000 PUSH1 0x0 MSTORE PUSH1 0x21 PUSH1 0x4 MSTORE PUSH1 0x24 PUSH1 0x0 REVERT JUMPDEST PUSH2 0x1BC2 DUP9 PUSH2 0x136E JUMP JUMPDEST PUSH1 0x7 DUP2 GT ISZERO PUSH2 0x1BFA JUMPI PUSH32 0x4E487B7100000000000000000000000000000000000000000000000000000000 PUSH1 0x0 MSTORE PUSH1 0x21 PUSH1 0x4 MSTORE PUSH1 0x24 PUSH1 0x0 REVERT JUMPDEST EQ PUSH2 0x1C3A JUMPI PUSH1 0x40 MLOAD PUSH32 0x8C379A000000000000000000000000000000000000000000000000000000000 DUP2 MSTORE PUSH1 0x4 ADD PUSH2 0x1C31 SWAP1 PUSH2 0x4FD2 JUMP JUMPDEST PUSH1 0x40 MLOAD DUP1 SWAP2 SUB SWAP1 REVERT JUMPDEST PUSH1 0x0 PUSH2 0x1C99 DUP8 PUSH2 0x1C89 DUP5 PUSH1 0x0 ADD PUSH1 0x40 MLOAD DUP1 PUSH1 0x20 ADD PUSH1 0x40 MSTORE SWAP1 DUP2 PUSH1 0x0 DUP3 ADD PUSH1 0x0 SWAP1 SLOAD SWAP1 PUSH2 0x100 EXP SWAP1 DIV PUSH8 0xFFFFFFFFFFFFFFFF AND PUSH8 0xFFFFFFFFFFFFFFFF AND PUSH8 0xFFFFFFFFFFFFFFFF AND DUP2 MSTORE POP POP PUSH2 0x2095 JUMP JUMPDEST PUSH8 0xFFFFFFFFFFFFFFFF AND DUP7 PUSH2 0x262E JUMP JUMPDEST SWAP1 POP PUSH2 0x1CA8 DUP9 DUP9 DUP9 DUP5 DUP9 PUSH2 0x2FAF JUMP JUMPDEST PUSH1 0x0 DUP5 MLOAD EQ ISZERO PUSH2 0x1D0B JUMPI DUP7 PUSH20 0xFFFFFFFFFFFFFFFFFFFFFFFFFFFFFFFFFFFFFFFF AND PUSH32 0xB8E138887D0AA13BAB447E82DE9D5C1777041ECD21CA36BA824FF1E6C07DDDA4 DUP10 DUP9 DUP5 DUP10 PUSH1 0x40 MLOAD PUSH2 0x1CFE SWAP5 SWAP4 SWAP3 SWAP2 SWAP1 PUSH2 0x523D JUMP JUMPDEST PUSH1 0x40 MLOAD DUP1 SWAP2 SUB SWAP1 LOG2 PUSH2 0x1D62 JUMP JUMPDEST DUP7 PUSH20 0xFFFFFFFFFFFFFFFFFFFFFFFFFFFFFFFFFFFFFFFF AND PUSH32 0xE2BABFBAC5889A709B63BB7F598B324E08BC5A4FB9EC647FB3CBC9EC07EB8712 DUP10 DUP9 DUP5 DUP10 DUP10 PUSH1 0x40 MLOAD PUSH2 0x1D59 SWAP6 SWAP5 SWAP4 SWAP3 SWAP2 SWAP1 PUSH2 0x5289 JUMP JUMPDEST PUSH1 0x40 MLOAD DUP1 SWAP2 SUB SWAP1 LOG2 JUMPDEST DUP1 SWAP3 POP POP POP SWAP6 SWAP5 POP POP POP POP POP JUMP JUMPDEST PUSH1 0x0 CALLER SWAP1 POP SWAP1 JUMP JUMPDEST CALLDATASIZE PUSH1 0x0 DUP1 CALLDATASIZE SWAP2 POP SWAP2 POP SWAP1 SWAP2 JUMP JUMPDEST PUSH1 0x0 PUSH2 0x1D90 DUP3 PUSH2 0x3228 JUMP JUMPDEST ISZERO PUSH2 0x1DC7 JUMPI PUSH1 0x40 MLOAD PUSH32 0x3DB2A12A00000000000000000000000000000000000000000000000000000000 DUP2 MSTORE PUSH1 0x4 ADD PUSH1 0x40 MLOAD DUP1 SWAP2 SUB SWAP1 REVERT JUMPDEST PUSH1 0x0 DUP3 PUSH1 0x0 ADD PUSH1 0x0 SWAP1 SLOAD SWAP1 PUSH2 0x100 EXP SWAP1 DIV PUSH1 0xF SIGNEXTEND SWAP1 POP DUP3 PUSH1 0x1 ADD PUSH1 0x0 DUP3 PUSH1 0xF SIGNEXTEND PUSH1 0xF SIGNEXTEND DUP2 MSTORE PUSH1 0x20 ADD SWAP1 DUP2 MSTORE PUSH1 0x20 ADD PUSH1 0x0 KECCAK256 SLOAD SWAP2 POP DUP3 PUSH1 0x1 ADD PUSH1 0x0 DUP3 PUSH1 0xF SIGNEXTEND PUSH1 0xF SIGNEXTEND DUP2 MSTORE PUSH1 0x20 ADD SWAP1 DUP2 MSTORE PUSH1 0x20 ADD PUSH1 0x0 KECCAK256 PUSH1 0x0 SWAP1 SSTORE PUSH1 0x1 DUP2 ADD DUP4 PUSH1 0x0 ADD PUSH1 0x0 PUSH2 0x100 EXP DUP2 SLOAD DUP2 PUSH16 0xFFFFFFFFFFFFFFFFFFFFFFFFFFFFFFFF MUL NOT AND SWAP1 DUP4 PUSH1 0xF SIGNEXTEND PUSH16 0xFFFFFFFFFFFFFFFFFFFFFFFFFFFFFFFF AND MUL OR SWAP1 SSTORE POP POP SWAP2 SWAP1 POP JUMP JUMPDEST PUSH2 0x1E69 PUSH2 0x1581 JUMP JUMPDEST DUP2 GT ISZERO PUSH2 0x1EAB JUMPI PUSH1 0x40 MLOAD PUSH32 0x8C379A000000000000000000000000000000000000000000000000000000000 DUP2 MSTORE PUSH1 0x4 ADD PUSH2 0x1EA2 SWAP1 PUSH2 0x4F12 JUMP JUMPDEST PUSH1 0x40 MLOAD DUP1 SWAP2 SUB SWAP1 REVERT JUMPDEST PUSH1 0x0 PUSH1 0x5 SLOAD SWAP1 POP DUP2 PUSH1 0x5 DUP2 SWAP1 SSTORE POP PUSH32 0x553476BF02EF2726E8CE5CED78D63E26E602E4A2257B1F559418E24B4633997 DUP2 DUP4 PUSH1 0x40 MLOAD PUSH2 0x1EEA SWAP3 SWAP2 SWAP1 PUSH2 0x51DD JUMP JUMPDEST PUSH1 0x40 MLOAD DUP1 SWAP2 SUB SWAP1 LOG1 POP POP JUMP JUMPDEST ADDRESS PUSH20 0xFFFFFFFFFFFFFFFFFFFFFFFFFFFFFFFFFFFFFFFF AND PUSH2 0x1F15 PUSH2 0xA87 JUMP JUMPDEST PUSH20 0xFFFFFFFFFFFFFFFFFFFFFFFFFFFFFFFFFFFFFFFF AND EQ PUSH2 0x201F JUMPI PUSH1 0x0 JUMPDEST DUP5 MLOAD DUP2 LT ISZERO PUSH2 0x201D JUMPI ADDRESS PUSH20 0xFFFFFFFFFFFFFFFFFFFFFFFFFFFFFFFFFFFFFFFF AND DUP6 DUP3 DUP2 MLOAD DUP2 LT PUSH2 0x1F8C JUMPI PUSH32 0x4E487B7100000000000000000000000000000000000000000000000000000000 PUSH1 0x0 MSTORE PUSH1 0x32 PUSH1 0x4 MSTORE PUSH1 0x24 PUSH1 0x0 REVERT JUMPDEST PUSH1 0x20 MUL PUSH1 0x20 ADD ADD MLOAD PUSH20 0xFFFFFFFFFFFFFFFFFFFFFFFFFFFFFFFFFFFFFFFF AND EQ ISZERO PUSH2 0x200C JUMPI PUSH2 0x200B DUP4 DUP3 DUP2 MLOAD DUP2 LT PUSH2 0x1FEC JUMPI PUSH32 0x4E487B7100000000000000000000000000000000000000000000000000000000 PUSH1 0x0 MSTORE PUSH1 0x32 PUSH1 0x4 MSTORE PUSH1 0x24 PUSH1 0x0 REVERT JUMPDEST PUSH1 0x20 MUL PUSH1 0x20 ADD ADD MLOAD DUP1 MLOAD SWAP1 PUSH1 0x20 ADD KECCAK256 PUSH1 0x2 PUSH2 0x325D SWAP1 SWAP2 SWAP1 PUSH4 0xFFFFFFFF AND JUMP JUMPDEST JUMPDEST DUP1 PUSH2 0x2016 SWAP1 PUSH2 0x5883 JUMP JUMPDEST SWAP1 POP PUSH2 0x1F33 JUMP JUMPDEST POP JUMPDEST POP POP POP POP POP JUMP JUMPDEST PUSH2 0x2033 DUP6 DUP6 DUP6 DUP6 DUP6 PUSH2 0x32D9 JUMP JUMPDEST POP POP POP POP POP JUMP JUMPDEST ADDRESS PUSH20 0xFFFFFFFFFFFFFFFFFFFFFFFFFFFFFFFFFFFFFFFF AND PUSH2 0x2059 PUSH2 0xA87 JUMP JUMPDEST PUSH20 0xFFFFFFFFFFFFFFFFFFFFFFFFFFFFFFFFFFFFFFFF AND EQ PUSH2 0x208E JUMPI PUSH2 0x207E PUSH1 0x2 PUSH2 0x3228 JUMP JUMPDEST PUSH2 0x208D JUMPI PUSH2 0x208C PUSH1 0x2 PUSH2 0x3377 JUMP JUMPDEST JUMPDEST JUMPDEST POP POP POP POP POP JUMP JUMPDEST PUSH1 0x0 DUP2 PUSH1 0x0 ADD MLOAD SWAP1 POP SWAP2 SWAP1 POP JUMP JUMPDEST PUSH1 0x0 PUSH2 0x20B9 DUP6 DUP6 DUP6 DUP6 PUSH2 0x20B4 PUSH2 0x27B2 JUMP JUMPDEST PUSH2 0x1B67 JUMP JUMPDEST SWAP1 POP SWAP5 SWAP4 POP POP POP POP JUMP JUMPDEST PUSH1 0x0 DUP1 PUSH2 0x20CF DUP4 PUSH2 0x33F8 JUMP JUMPDEST SWAP1 POP PUSH1 0x4 PUSH1 0x7 DUP2 GT ISZERO PUSH2 0x210B JUMPI PUSH32 0x4E487B7100000000000000000000000000000000000000000000000000000000 PUSH1 0x0 MSTORE PUSH1 0x21 PUSH1 0x4 MSTORE PUSH1 0x24 PUSH1 0x0 REVERT JUMPDEST DUP2 PUSH1 0x7 DUP2 GT ISZERO PUSH2 0x2144 JUMPI PUSH32 0x4E487B7100000000000000000000000000000000000000000000000000000000 PUSH1 0x0 MSTORE PUSH1 0x21 PUSH1 0x4 MSTORE PUSH1 0x24 PUSH1 0x0 REVERT JUMPDEST EQ PUSH2 0x2152 JUMPI DUP1 SWAP2 POP POP PUSH2 0x22FC JUMP JUMPDEST PUSH1 0x0 PUSH1 0x7 PUSH1 0x0 DUP6 DUP2 MSTORE PUSH1 0x20 ADD SWAP1 DUP2 MSTORE PUSH1 0x20 ADD PUSH1 0x0 KECCAK256 SLOAD SWAP1 POP PUSH1 0x0 DUP1 SHL DUP2 EQ ISZERO PUSH2 0x217F JUMPI DUP2 SWAP3 POP POP POP PUSH2 0x22FC JUMP JUMPDEST PUSH1 0x6 PUSH1 0x0 SWAP1 SLOAD SWAP1 PUSH2 0x100 EXP SWAP1 DIV PUSH20 0xFFFFFFFFFFFFFFFFFFFFFFFFFFFFFFFFFFFFFFFF AND PUSH20 0xFFFFFFFFFFFFFFFFFFFFFFFFFFFFFFFFFFFFFFFF AND PUSH4 0x2AB0F529 DUP3 PUSH1 0x40 MLOAD DUP3 PUSH4 0xFFFFFFFF AND PUSH1 0xE0 SHL DUP2 MSTORE PUSH1 0x4 ADD PUSH2 0x21DA SWAP2 SWAP1 PUSH2 0x4D22 JUMP JUMPDEST PUSH1 0x20 PUSH1 0x40 MLOAD DUP1 DUP4 SUB DUP2 DUP7 DUP1 EXTCODESIZE ISZERO DUP1 ISZERO PUSH2 0x21F2 JUMPI PUSH1 0x0 DUP1 REVERT JUMPDEST POP GAS STATICCALL ISZERO DUP1 ISZERO PUSH2 0x2206 JUMPI RETURNDATASIZE PUSH1 0x0 DUP1 RETURNDATACOPY RETURNDATASIZE PUSH1 0x0 REVERT JUMPDEST POP POP POP POP PUSH1 0x40 MLOAD RETURNDATASIZE PUSH1 0x1F NOT PUSH1 0x1F DUP3 ADD AND DUP3 ADD DUP1 PUSH1 0x40 MSTORE POP DUP2 ADD SWAP1 PUSH2 0x222A SWAP2 SWAP1 PUSH2 0x40A4 JUMP JUMPDEST ISZERO PUSH2 0x223A JUMPI PUSH1 0x7 SWAP3 POP POP POP PUSH2 0x22FC JUMP JUMPDEST PUSH1 0x6 PUSH1 0x0 SWAP1 SLOAD SWAP1 PUSH2 0x100 EXP SWAP1 DIV PUSH20 0xFFFFFFFFFFFFFFFFFFFFFFFFFFFFFFFFFFFFFFFF AND PUSH20 0xFFFFFFFFFFFFFFFFFFFFFFFFFFFFFFFFFFFFFFFF AND PUSH4 0x584B153E DUP3 PUSH1 0x40 MLOAD DUP3 PUSH4 0xFFFFFFFF AND PUSH1 0xE0 SHL DUP2 MSTORE PUSH1 0x4 ADD PUSH2 0x2295 SWAP2 SWAP1 PUSH2 0x4D22 JUMP JUMPDEST PUSH1 0x20 PUSH1 0x40 MLOAD DUP1 DUP4 SUB DUP2 DUP7 DUP1 EXTCODESIZE ISZERO DUP1 ISZERO PUSH2 0x22AD JUMPI PUSH1 0x0 DUP1 REVERT JUMPDEST POP GAS STATICCALL ISZERO DUP1 ISZERO PUSH2 0x22C1 JUMPI RETURNDATASIZE PUSH1 0x0 DUP1 RETURNDATACOPY RETURNDATASIZE PUSH1 0x0 REVERT JUMPDEST POP POP POP POP PUSH1 0x40 MLOAD RETURNDATASIZE PUSH1 0x1F NOT PUSH1 0x1F DUP3 ADD AND DUP3 ADD DUP1 PUSH1 0x40 MSTORE POP DUP2 ADD SWAP1 PUSH2 0x22E5 SWAP2 SWAP1 PUSH2 0x40A4 JUMP JUMPDEST ISZERO PUSH2 0x22F5 JUMPI PUSH1 0x5 SWAP3 POP POP POP PUSH2 0x22FC JUMP JUMPDEST PUSH1 0x2 SWAP3 POP POP POP JUMPDEST SWAP2 SWAP1 POP JUMP JUMPDEST PUSH1 0x0 PUSH2 0x230B PUSH2 0x1782 JUMP JUMPDEST PUSH2 0x2328 PUSH2 0x2316 PUSH2 0x1D70 JUMP JUMPDEST PUSH1 0x1 NUMBER PUSH2 0x2323 SWAP2 SWAP1 PUSH2 0x5668 JUMP JUMPDEST PUSH2 0x1A17 JUMP JUMPDEST LT ISZERO PUSH2 0x2369 JUMPI PUSH1 0x40 MLOAD PUSH32 0x8C379A000000000000000000000000000000000000000000000000000000000 DUP2 MSTORE PUSH1 0x4 ADD PUSH2 0x2360 SWAP1 PUSH2 0x50F2 JUMP JUMPDEST PUSH1 0x40 MLOAD DUP1 SWAP2 SUB SWAP1 REVERT JUMPDEST PUSH1 0x0 PUSH2 0x237E DUP7 DUP7 DUP7 DUP7 DUP1 MLOAD SWAP1 PUSH1 0x20 ADD KECCAK256 PUSH2 0x1950 JUMP JUMPDEST SWAP1 POP DUP5 MLOAD DUP7 MLOAD EQ PUSH2 0x23C4 JUMPI PUSH1 0x40 MLOAD PUSH32 0x8C379A000000000000000000000000000000000000000000000000000000000 DUP2 MSTORE PUSH1 0x4 ADD PUSH2 0x23BB SWAP1 PUSH2 0x4F52 JUMP JUMPDEST PUSH1 0x40 MLOAD DUP1 SWAP2 SUB SWAP1 REVERT JUMPDEST DUP4 MLOAD DUP7 MLOAD EQ PUSH2 0x2408 JUMPI PUSH1 0x40 MLOAD PUSH32 0x8C379A000000000000000000000000000000000000000000000000000000000 DUP2 MSTORE PUSH1 0x4 ADD PUSH2 0x23FF SWAP1 PUSH2 0x4F52 JUMP JUMPDEST PUSH1 0x40 MLOAD DUP1 SWAP2 SUB SWAP1 REVERT JUMPDEST PUSH1 0x0 DUP7 MLOAD GT PUSH2 0x244C JUMPI PUSH1 0x40 MLOAD PUSH32 0x8C379A000000000000000000000000000000000000000000000000000000000 DUP2 MSTORE PUSH1 0x4 ADD PUSH2 0x2443 SWAP1 PUSH2 0x4FF2 JUMP JUMPDEST PUSH1 0x40 MLOAD DUP1 SWAP2 SUB SWAP1 REVERT JUMPDEST PUSH1 0x0 PUSH1 0x1 PUSH1 0x0 DUP4 DUP2 MSTORE PUSH1 0x20 ADD SWAP1 DUP2 MSTORE PUSH1 0x20 ADD PUSH1 0x0 KECCAK256 SWAP1 POP PUSH2 0x24AC DUP2 PUSH1 0x0 ADD PUSH1 0x40 MLOAD DUP1 PUSH1 0x20 ADD PUSH1 0x40 MSTORE SWAP1 DUP2 PUSH1 0x0 DUP3 ADD PUSH1 0x0 SWAP1 SLOAD SWAP1 PUSH2 0x100 EXP SWAP1 DIV PUSH8 0xFFFFFFFFFFFFFFFF AND PUSH8 0xFFFFFFFFFFFFFFFF AND PUSH8 0xFFFFFFFFFFFFFFFF AND DUP2 MSTORE POP POP PUSH2 0x350D JUMP JUMPDEST PUSH2 0x24EB JUMPI PUSH1 0x40 MLOAD PUSH32 0x8C379A000000000000000000000000000000000000000000000000000000000 DUP2 MSTORE PUSH1 0x4 ADD PUSH2 0x24E2 SWAP1 PUSH2 0x50B2 JUMP JUMPDEST PUSH1 0x40 MLOAD DUP1 SWAP2 SUB SWAP1 REVERT JUMPDEST PUSH1 0x0 PUSH2 0x24FD PUSH2 0x24F8 PUSH2 0x12DA JUMP JUMPDEST PUSH2 0x3527 JUMP JUMPDEST PUSH2 0x2506 NUMBER PUSH2 0x3527 JUMP JUMPDEST PUSH2 0x2510 SWAP2 SWAP1 PUSH2 0x559F JUMP JUMPDEST SWAP1 POP PUSH1 0x0 PUSH2 0x2524 PUSH2 0x251F PUSH2 0xAA8 JUMP JUMPDEST PUSH2 0x3527 JUMP JUMPDEST DUP3 PUSH2 0x252F SWAP2 SWAP1 PUSH2 0x559F JUMP JUMPDEST SWAP1 POP PUSH2 0x2547 DUP3 DUP5 PUSH1 0x0 ADD PUSH2 0x357E SWAP1 SWAP2 SWAP1 PUSH4 0xFFFFFFFF AND JUMP JUMPDEST PUSH2 0x255D DUP2 DUP5 PUSH1 0x1 ADD PUSH2 0x357E SWAP1 SWAP2 SWAP1 PUSH4 0xFFFFFFFF AND JUMP JUMPDEST PUSH32 0x7D84A6263AE0D98D3329BD7B46BB4E8D6F98CD35A7ADB45C274C8B7FD5EBD5E0 DUP5 PUSH2 0x2587 PUSH2 0x1D70 JUMP JUMPDEST DUP12 DUP12 DUP14 MLOAD PUSH8 0xFFFFFFFFFFFFFFFF DUP2 GT ISZERO PUSH2 0x25CA JUMPI PUSH32 0x4E487B7100000000000000000000000000000000000000000000000000000000 PUSH1 0x0 MSTORE PUSH1 0x41 PUSH1 0x4 MSTORE PUSH1 0x24 PUSH1 0x0 REVERT JUMPDEST PUSH1 0x40 MLOAD SWAP1 DUP1 DUP3 MSTORE DUP1 PUSH1 0x20 MUL PUSH1 0x20 ADD DUP3 ADD PUSH1 0x40 MSTORE DUP1 ISZERO PUSH2 0x25FD JUMPI DUP2 PUSH1 0x20 ADD JUMPDEST PUSH1 0x60 DUP2 MSTORE PUSH1 0x20 ADD SWAP1 PUSH1 0x1 SWAP1 SUB SWAP1 DUP2 PUSH2 0x25E8 JUMPI SWAP1 POP JUMPDEST POP DUP13 DUP9 DUP9 DUP15 PUSH1 0x40 MLOAD PUSH2 0x2617 SWAP10 SWAP9 SWAP8 SWAP7 SWAP6 SWAP5 SWAP4 SWAP3 SWAP2 SWAP1 PUSH2 0x512D JUMP JUMPDEST PUSH1 0x40 MLOAD DUP1 SWAP2 SUB SWAP1 LOG1 DUP4 SWAP5 POP POP POP POP POP SWAP5 SWAP4 POP POP POP POP JUMP JUMPDEST PUSH1 0x0 PUSH32 0x0 PUSH20 0xFFFFFFFFFFFFFFFFFFFFFFFFFFFFFFFFFFFFFFFF AND PUSH4 0x3A46B1A8 DUP6 DUP6 PUSH1 0x40 MLOAD DUP4 PUSH4 0xFFFFFFFF AND PUSH1 0xE0 SHL DUP2 MSTORE PUSH1 0x4 ADD PUSH2 0x268B SWAP3 SWAP2 SWAP1 PUSH2 0x4BA6 JUMP JUMPDEST PUSH1 0x20 PUSH1 0x40 MLOAD DUP1 DUP4 SUB DUP2 DUP7 DUP1 EXTCODESIZE ISZERO DUP1 ISZERO PUSH2 0x26A3 JUMPI PUSH1 0x0 DUP1 REVERT JUMPDEST POP GAS STATICCALL ISZERO DUP1 ISZERO PUSH2 0x26B7 JUMPI RETURNDATASIZE PUSH1 0x0 DUP1 RETURNDATACOPY RETURNDATASIZE PUSH1 0x0 REVERT JUMPDEST POP POP POP POP PUSH1 0x40 MLOAD RETURNDATASIZE PUSH1 0x1F NOT PUSH1 0x1F DUP3 ADD AND DUP3 ADD DUP1 PUSH1 0x40 MSTORE POP DUP2 ADD SWAP1 PUSH2 0x26DB SWAP2 SWAP1 PUSH2 0x4171 JUMP JUMPDEST SWAP1 POP SWAP4 SWAP3 POP POP POP JUMP JUMPDEST PUSH32 0x8F74EA46EF7894F65EABFB5E6E695DE773A000B47C529AB559178069B226401 PUSH1 0x6 PUSH1 0x0 SWAP1 SLOAD SWAP1 PUSH2 0x100 EXP SWAP1 DIV PUSH20 0xFFFFFFFFFFFFFFFFFFFFFFFFFFFFFFFFFFFFFFFF AND DUP3 PUSH1 0x40 MLOAD PUSH2 0x2737 SWAP3 SWAP2 SWAP1 PUSH2 0x4B7D JUMP JUMPDEST PUSH1 0x40 MLOAD DUP1 SWAP2 SUB SWAP1 LOG1 DUP1 PUSH1 0x6 PUSH1 0x0 PUSH2 0x100 EXP DUP2 SLOAD DUP2 PUSH20 0xFFFFFFFFFFFFFFFFFFFFFFFFFFFFFFFFFFFFFFFF MUL NOT AND SWAP1 DUP4 PUSH20 0xFFFFFFFFFFFFFFFFFFFFFFFFFFFFFFFFFFFFFFFF AND MUL OR SWAP1 SSTORE POP POP JUMP JUMPDEST PUSH1 0x60 PUSH2 0x27A9 DUP5 DUP5 DUP5 PUSH1 0x40 MLOAD DUP1 PUSH1 0x60 ADD PUSH1 0x40 MSTORE DUP1 PUSH1 0x29 DUP2 MSTORE PUSH1 0x20 ADD PUSH2 0x5F8E PUSH1 0x29 SWAP2 CODECOPY PUSH2 0x35AD JUMP JUMPDEST SWAP1 POP SWAP4 SWAP3 POP POP POP JUMP JUMPDEST PUSH1 0x60 PUSH1 0x40 MLOAD DUP1 PUSH1 0x20 ADD PUSH1 0x40 MSTORE DUP1 PUSH1 0x0 DUP2 MSTORE POP SWAP1 POP SWAP1 JUMP JUMPDEST PUSH1 0x0 PUSH2 0x27D3 PUSH2 0x1581 JUMP JUMPDEST PUSH2 0x27DB PUSH2 0x15A0 JUMP JUMPDEST PUSH32 0x0 PUSH20 0xFFFFFFFFFFFFFFFFFFFFFFFFFFFFFFFFFFFFFFFF AND PUSH4 0x8E539E8C DUP6 PUSH1 0x40 MLOAD DUP3 PUSH4 0xFFFFFFFF AND PUSH1 0xE0 SHL DUP2 MSTORE PUSH1 0x4 ADD PUSH2 0x2834 SWAP2 SWAP1 PUSH2 0x5112 JUMP JUMPDEST PUSH1 0x20 PUSH1 0x40 MLOAD DUP1 DUP4 SUB DUP2 DUP7 DUP1 EXTCODESIZE ISZERO DUP1 ISZERO PUSH2 0x284C JUMPI PUSH1 0x0 DUP1 REVERT JUMPDEST POP GAS STATICCALL ISZERO DUP1 ISZERO PUSH2 0x2860 JUMPI RETURNDATASIZE PUSH1 0x0 DUP1 RETURNDATACOPY RETURNDATASIZE PUSH1 0x0 REVERT JUMPDEST POP POP POP POP PUSH1 0x40 MLOAD RETURNDATASIZE PUSH1 0x1F NOT PUSH1 0x1F DUP3 ADD AND DUP3 ADD DUP1 PUSH1 0x40 MSTORE POP DUP2 ADD SWAP1 PUSH2 0x2884 SWAP2 SWAP1 PUSH2 0x4171 JUMP JUMPDEST PUSH2 0x288E SWAP2 SWAP1 PUSH2 0x560E JUMP JUMPDEST PUSH2 0x2898 SWAP2 SWAP1 PUSH2 0x55DD JUMP JUMPDEST SWAP1 POP SWAP2 SWAP1 POP JUMP JUMPDEST PUSH1 0x0 PUSH4 0x9A802A6D PUSH1 0xE0 SHL PUSH4 0x3420181 PUSH1 0xE0 SHL PUSH4 0x5F398A14 PUSH1 0xE0 SHL PUSH32 0x79DD796F00000000000000000000000000000000000000000000000000000000 XOR XOR XOR PUSH28 0xFFFFFFFFFFFFFFFFFFFFFFFFFFFFFFFFFFFFFFFFFFFFFFFFFFFFFFFF NOT AND DUP3 PUSH28 0xFFFFFFFFFFFFFFFFFFFFFFFFFFFFFFFFFFFFFFFFFFFFFFFFFFFFFFFF NOT AND EQ DUP1 PUSH2 0x2985 JUMPI POP PUSH32 0x79DD796F00000000000000000000000000000000000000000000000000000000 PUSH28 0xFFFFFFFFFFFFFFFFFFFFFFFFFFFFFFFFFFFFFFFFFFFFFFFFFFFFFFFF NOT AND DUP3 PUSH28 0xFFFFFFFFFFFFFFFFFFFFFFFFFFFFFFFFFFFFFFFFFFFFFFFFFFFFFFFF NOT AND EQ JUMPDEST DUP1 PUSH2 0x29ED JUMPI POP PUSH32 0x4E2312E000000000000000000000000000000000000000000000000000000000 PUSH28 0xFFFFFFFFFFFFFFFFFFFFFFFFFFFFFFFFFFFFFFFFFFFFFFFFFFFFFFFF NOT AND DUP3 PUSH28 0xFFFFFFFFFFFFFFFFFFFFFFFFFFFFFFFFFFFFFFFFFFFFFFFFFFFFFFFF NOT AND EQ JUMPDEST DUP1 PUSH2 0x29FD JUMPI POP PUSH2 0x29FC DUP3 PUSH2 0x36C1 JUMP JUMPDEST JUMPDEST SWAP1 POP SWAP2 SWAP1 POP JUMP JUMPDEST PUSH1 0x0 PUSH32 0x0 PUSH20 0xFFFFFFFFFFFFFFFFFFFFFFFFFFFFFFFFFFFFFFFF AND ADDRESS PUSH20 0xFFFFFFFFFFFFFFFFFFFFFFFFFFFFFFFFFFFFFFFF AND EQ DUP1 ISZERO PUSH2 0x2A80 JUMPI POP PUSH32 0x0 CHAINID EQ JUMPDEST ISZERO PUSH2 0x2AAD JUMPI PUSH32 0x0 SWAP1 POP PUSH2 0x2B1B JUMP JUMPDEST PUSH2 0x2B18 PUSH32 0x0 PUSH32 0x0 PUSH32 0x0 PUSH2 0x372B JUMP JUMPDEST SWAP1 POP JUMPDEST SWAP1 JUMP JUMPDEST PUSH1 0x0 DUP3 DUP3 PUSH1 0x40 MLOAD PUSH1 0x20 ADD PUSH2 0x2B33 SWAP3 SWAP2 SWAP1 PUSH2 0x4B2B JUMP JUMPDEST PUSH1 0x40 MLOAD PUSH1 0x20 DUP2 DUP4 SUB SUB DUP2 MSTORE SWAP1 PUSH1 0x40 MSTORE DUP1 MLOAD SWAP1 PUSH1 0x20 ADD KECCAK256 SWAP1 POP SWAP3 SWAP2 POP POP JUMP JUMPDEST PUSH1 0x0 DUP1 PUSH32 0x7FFFFFFFFFFFFFFFFFFFFFFFFFFFFFFF5D576E7357A4501DDFE92F46681B20A0 DUP4 PUSH1 0x0 SHR GT ISZERO PUSH2 0x2B8C JUMPI PUSH1 0x0 PUSH1 0x3 SWAP2 POP SWAP2 POP PUSH2 0x2C55 JUMP JUMPDEST PUSH1 0x1B DUP6 PUSH1 0xFF AND EQ ISZERO DUP1 ISZERO PUSH2 0x2BA4 JUMPI POP PUSH1 0x1C DUP6 PUSH1 0xFF AND EQ ISZERO JUMPDEST ISZERO PUSH2 0x2BB6 JUMPI PUSH1 0x0 PUSH1 0x4 SWAP2 POP SWAP2 POP PUSH2 0x2C55 JUMP JUMPDEST PUSH1 0x0 PUSH1 0x1 DUP8 DUP8 DUP8 DUP8 PUSH1 0x40 MLOAD PUSH1 0x0 DUP2 MSTORE PUSH1 0x20 ADD PUSH1 0x40 MSTORE PUSH1 0x40 MLOAD PUSH2 0x2BDB SWAP5 SWAP4 SWAP3 SWAP2 SWAP1 PUSH2 0x4E1A JUMP JUMPDEST PUSH1 0x20 PUSH1 0x40 MLOAD PUSH1 0x20 DUP2 SUB SWAP1 DUP1 DUP5 SUB SWAP1 DUP6 GAS STATICCALL ISZERO DUP1 ISZERO PUSH2 0x2BFD JUMPI RETURNDATASIZE PUSH1 0x0 DUP1 RETURNDATACOPY RETURNDATASIZE PUSH1 0x0 REVERT JUMPDEST POP POP POP PUSH1 0x20 PUSH1 0x40 MLOAD SUB MLOAD SWAP1 POP PUSH1 0x0 PUSH20 0xFFFFFFFFFFFFFFFFFFFFFFFFFFFFFFFFFFFFFFFF AND DUP2 PUSH20 0xFFFFFFFFFFFFFFFFFFFFFFFFFFFFFFFFFFFFFFFF AND EQ ISZERO PUSH2 0x2C4C JUMPI PUSH1 0x0 PUSH1 0x1 SWAP3 POP SWAP3 POP POP PUSH2 0x2C55 JUMP JUMPDEST DUP1 PUSH1 0x0 SWAP3 POP SWAP3 POP POP JUMPDEST SWAP5 POP SWAP5 SWAP3 POP POP POP JUMP JUMPDEST PUSH1 0x0 PUSH1 0x4 DUP2 GT ISZERO PUSH2 0x2C98 JUMPI PUSH32 0x4E487B7100000000000000000000000000000000000000000000000000000000 PUSH1 0x0 MSTORE PUSH1 0x21 PUSH1 0x4 MSTORE PUSH1 0x24 PUSH1 0x0 REVERT JUMPDEST DUP2 PUSH1 0x4 DUP2 GT ISZERO PUSH2 0x2CD1 JUMPI PUSH32 0x4E487B7100000000000000000000000000000000000000000000000000000000 PUSH1 0x0 MSTORE PUSH1 0x21 PUSH1 0x4 MSTORE PUSH1 0x24 PUSH1 0x0 REVERT JUMPDEST EQ ISZERO PUSH2 0x2CDC JUMPI PUSH2 0x2FAC JUMP JUMPDEST PUSH1 0x1 PUSH1 0x4 DUP2 GT ISZERO PUSH2 0x2D16 JUMPI PUSH32 0x4E487B7100000000000000000000000000000000000000000000000000000000 PUSH1 0x0 MSTORE PUSH1 0x21 PUSH1 0x4 MSTORE PUSH1 0x24 PUSH1 0x0 REVERT JUMPDEST DUP2 PUSH1 0x4 DUP2 GT ISZERO PUSH2 0x2D4F JUMPI PUSH32 0x4E487B7100000000000000000000000000000000000000000000000000000000 PUSH1 0x0 MSTORE PUSH1 0x21 PUSH1 0x4 MSTORE PUSH1 0x24 PUSH1 0x0 REVERT JUMPDEST EQ ISZERO PUSH2 0x2D90 JUMPI PUSH1 0x40 MLOAD PUSH32 0x8C379A000000000000000000000000000000000000000000000000000000000 DUP2 MSTORE PUSH1 0x4 ADD PUSH2 0x2D87 SWAP1 PUSH2 0x4ED2 JUMP JUMPDEST PUSH1 0x40 MLOAD DUP1 SWAP2 SUB SWAP1 REVERT JUMPDEST PUSH1 0x2 PUSH1 0x4 DUP2 GT ISZERO PUSH2 0x2DCA JUMPI PUSH32 0x4E487B7100000000000000000000000000000000000000000000000000000000 PUSH1 0x0 MSTORE PUSH1 0x21 PUSH1 0x4 MSTORE PUSH1 0x24 PUSH1 0x0 REVERT JUMPDEST DUP2 PUSH1 0x4 DUP2 GT ISZERO PUSH2 0x2E03 JUMPI PUSH32 0x4E487B7100000000000000000000000000000000000000000000000000000000 PUSH1 0x0 MSTORE PUSH1 0x21 PUSH1 0x4 MSTORE PUSH1 0x24 PUSH1 0x0 REVERT JUMPDEST EQ ISZERO PUSH2 0x2E44 JUMPI PUSH1 0x40 MLOAD PUSH32 0x8C379A000000000000000000000000000000000000000000000000000000000 DUP2 MSTORE PUSH1 0x4 ADD PUSH2 0x2E3B SWAP1 PUSH2 0x4F32 JUMP JUMPDEST PUSH1 0x40 MLOAD DUP1 SWAP2 SUB SWAP1 REVERT JUMPDEST PUSH1 0x3 PUSH1 0x4 DUP2 GT ISZERO PUSH2 0x2E7E JUMPI PUSH32 0x4E487B7100000000000000000000000000000000000000000000000000000000 PUSH1 0x0 MSTORE PUSH1 0x21 PUSH1 0x4 MSTORE PUSH1 0x24 PUSH1 0x0 REVERT JUMPDEST DUP2 PUSH1 0x4 DUP2 GT ISZERO PUSH2 0x2EB7 JUMPI PUSH32 0x4E487B7100000000000000000000000000000000000000000000000000000000 PUSH1 0x0 MSTORE PUSH1 0x21 PUSH1 0x4 MSTORE PUSH1 0x24 PUSH1 0x0 REVERT JUMPDEST EQ ISZERO PUSH2 0x2EF8 JUMPI PUSH1 0x40 MLOAD PUSH32 0x8C379A000000000000000000000000000000000000000000000000000000000 DUP2 MSTORE PUSH1 0x4 ADD PUSH2 0x2EEF SWAP1 PUSH2 0x4F72 JUMP JUMPDEST PUSH1 0x40 MLOAD DUP1 SWAP2 SUB SWAP1 REVERT JUMPDEST PUSH1 0x4 DUP1 DUP2 GT ISZERO PUSH2 0x2F31 JUMPI PUSH32 0x4E487B7100000000000000000000000000000000000000000000000000000000 PUSH1 0x0 MSTORE PUSH1 0x21 PUSH1 0x4 MSTORE PUSH1 0x24 PUSH1 0x0 REVERT JUMPDEST DUP2 PUSH1 0x4 DUP2 GT ISZERO PUSH2 0x2F6A JUMPI PUSH32 0x4E487B7100000000000000000000000000000000000000000000000000000000 PUSH1 0x0 MSTORE PUSH1 0x21 PUSH1 0x4 MSTORE PUSH1 0x24 PUSH1 0x0 REVERT JUMPDEST EQ ISZERO PUSH2 0x2FAB JUMPI PUSH1 0x40 MLOAD PUSH32 0x8C379A000000000000000000000000000000000000000000000000000000000 DUP2 MSTORE PUSH1 0x4 ADD PUSH2 0x2FA2 SWAP1 PUSH2 0x5012 JUMP JUMPDEST PUSH1 0x40 MLOAD DUP1 SWAP2 SUB SWAP1 REVERT JUMPDEST JUMPDEST POP JUMP JUMPDEST PUSH1 0x0 PUSH1 0x4 PUSH1 0x0 DUP8 DUP2 MSTORE PUSH1 0x20 ADD SWAP1 DUP2 MSTORE PUSH1 0x20 ADD PUSH1 0x0 KECCAK256 SWAP1 POP DUP1 PUSH1 0x3 ADD PUSH1 0x0 DUP7 PUSH20 0xFFFFFFFFFFFFFFFFFFFFFFFFFFFFFFFFFFFFFFFF AND PUSH20 0xFFFFFFFFFFFFFFFFFFFFFFFFFFFFFFFFFFFFFFFF AND DUP2 MSTORE PUSH1 0x20 ADD SWAP1 DUP2 MSTORE PUSH1 0x20 ADD PUSH1 0x0 KECCAK256 PUSH1 0x0 SWAP1 SLOAD SWAP1 PUSH2 0x100 EXP SWAP1 DIV PUSH1 0xFF AND ISZERO PUSH2 0x3055 JUMPI PUSH1 0x40 MLOAD PUSH32 0x8C379A000000000000000000000000000000000000000000000000000000000 DUP2 MSTORE PUSH1 0x4 ADD PUSH2 0x304C SWAP1 PUSH2 0x4F92 JUMP JUMPDEST PUSH1 0x40 MLOAD DUP1 SWAP2 SUB SWAP1 REVERT JUMPDEST PUSH1 0x1 DUP2 PUSH1 0x3 ADD PUSH1 0x0 DUP8 PUSH20 0xFFFFFFFFFFFFFFFFFFFFFFFFFFFFFFFFFFFFFFFF AND PUSH20 0xFFFFFFFFFFFFFFFFFFFFFFFFFFFFFFFFFFFFFFFF AND DUP2 MSTORE PUSH1 0x20 ADD SWAP1 DUP2 MSTORE PUSH1 0x20 ADD PUSH1 0x0 KECCAK256 PUSH1 0x0 PUSH2 0x100 EXP DUP2 SLOAD DUP2 PUSH1 0xFF MUL NOT AND SWAP1 DUP4 ISZERO ISZERO MUL OR SWAP1 SSTORE POP PUSH1 0x0 PUSH1 0x2 DUP2 GT ISZERO PUSH2 0x30E9 JUMPI PUSH32 0x4E487B7100000000000000000000000000000000000000000000000000000000 PUSH1 0x0 MSTORE PUSH1 0x21 PUSH1 0x4 MSTORE PUSH1 0x24 PUSH1 0x0 REVERT JUMPDEST PUSH1 0xFF AND DUP5 PUSH1 0xFF AND EQ ISZERO PUSH2 0x3116 JUMPI DUP3 DUP2 PUSH1 0x0 ADD PUSH1 0x0 DUP3 DUP3 SLOAD PUSH2 0x310A SWAP2 SWAP1 PUSH2 0x5549 JUMP JUMPDEST SWAP3 POP POP DUP2 SWAP1 SSTORE POP PUSH2 0x3220 JUMP JUMPDEST PUSH1 0x1 PUSH1 0x2 DUP2 GT ISZERO PUSH2 0x3150 JUMPI PUSH32 0x4E487B7100000000000000000000000000000000000000000000000000000000 PUSH1 0x0 MSTORE PUSH1 0x21 PUSH1 0x4 MSTORE PUSH1 0x24 PUSH1 0x0 REVERT JUMPDEST PUSH1 0xFF AND DUP5 PUSH1 0xFF AND EQ ISZERO PUSH2 0x317D JUMPI DUP3 DUP2 PUSH1 0x1 ADD PUSH1 0x0 DUP3 DUP3 SLOAD PUSH2 0x3171 SWAP2 SWAP1 PUSH2 0x5549 JUMP JUMPDEST SWAP3 POP POP DUP2 SWAP1 SSTORE POP PUSH2 0x321F JUMP JUMPDEST PUSH1 0x2 DUP1 DUP2 GT ISZERO PUSH2 0x31B6 JUMPI PUSH32 0x4E487B7100000000000000000000000000000000000000000000000000000000 PUSH1 0x0 MSTORE PUSH1 0x21 PUSH1 0x4 MSTORE PUSH1 0x24 PUSH1 0x0 REVERT JUMPDEST PUSH1 0xFF AND DUP5 PUSH1 0xFF AND EQ ISZERO PUSH2 0x31E3 JUMPI DUP3 DUP2 PUSH1 0x2 ADD PUSH1 0x0 DUP3 DUP3 SLOAD PUSH2 0x31D7 SWAP2 SWAP1 PUSH2 0x5549 JUMP JUMPDEST SWAP3 POP POP DUP2 SWAP1 SSTORE POP PUSH2 0x321E JUMP JUMPDEST PUSH1 0x40 MLOAD PUSH32 0x8C379A000000000000000000000000000000000000000000000000000000000 DUP2 MSTORE PUSH1 0x4 ADD PUSH2 0x3215 SWAP1 PUSH2 0x5092 JUMP JUMPDEST PUSH1 0x40 MLOAD DUP1 SWAP2 SUB SWAP1 REVERT JUMPDEST JUMPDEST JUMPDEST POP POP POP POP POP POP JUMP JUMPDEST PUSH1 0x0 DUP2 PUSH1 0x0 ADD PUSH1 0x0 SWAP1 SLOAD SWAP1 PUSH2 0x100 EXP SWAP1 DIV PUSH1 0xF SIGNEXTEND PUSH1 0xF SIGNEXTEND DUP3 PUSH1 0x0 ADD PUSH1 0x10 SWAP1 SLOAD SWAP1 PUSH2 0x100 EXP SWAP1 DIV PUSH1 0xF SIGNEXTEND PUSH1 0xF SIGNEXTEND SGT ISZERO SWAP1 POP SWAP2 SWAP1 POP JUMP JUMPDEST PUSH1 0x0 DUP3 PUSH1 0x0 ADD PUSH1 0x10 SWAP1 SLOAD SWAP1 PUSH2 0x100 EXP SWAP1 DIV PUSH1 0xF SIGNEXTEND SWAP1 POP DUP2 DUP4 PUSH1 0x1 ADD PUSH1 0x0 DUP4 PUSH1 0xF SIGNEXTEND PUSH1 0xF SIGNEXTEND DUP2 MSTORE PUSH1 0x20 ADD SWAP1 DUP2 MSTORE PUSH1 0x20 ADD PUSH1 0x0 KECCAK256 DUP2 SWAP1 SSTORE POP PUSH1 0x1 DUP2 ADD DUP4 PUSH1 0x0 ADD PUSH1 0x10 PUSH2 0x100 EXP DUP2 SLOAD DUP2 PUSH16 0xFFFFFFFFFFFFFFFFFFFFFFFFFFFFFFFF MUL NOT AND SWAP1 DUP4 PUSH1 0xF SIGNEXTEND PUSH16 0xFFFFFFFFFFFFFFFFFFFFFFFFFFFFFFFF AND MUL OR SWAP1 SSTORE POP POP POP POP JUMP JUMPDEST PUSH1 0x6 PUSH1 0x0 SWAP1 SLOAD SWAP1 PUSH2 0x100 EXP SWAP1 DIV PUSH20 0xFFFFFFFFFFFFFFFFFFFFFFFFFFFFFFFFFFFFFFFF AND PUSH20 0xFFFFFFFFFFFFFFFFFFFFFFFFFFFFFFFFFFFFFFFF AND PUSH4 0xE38335E5 CALLVALUE DUP7 DUP7 DUP7 PUSH1 0x0 DUP8 PUSH1 0x40 MLOAD DUP8 PUSH4 0xFFFFFFFF AND PUSH1 0xE0 SHL DUP2 MSTORE PUSH1 0x4 ADD PUSH2 0x333E SWAP6 SWAP5 SWAP4 SWAP3 SWAP2 SWAP1 PUSH2 0x4C29 JUMP JUMPDEST PUSH1 0x0 PUSH1 0x40 MLOAD DUP1 DUP4 SUB DUP2 DUP6 DUP9 DUP1 EXTCODESIZE ISZERO DUP1 ISZERO PUSH2 0x3357 JUMPI PUSH1 0x0 DUP1 REVERT JUMPDEST POP GAS CALL ISZERO DUP1 ISZERO PUSH2 0x336B JUMPI RETURNDATASIZE PUSH1 0x0 DUP1 RETURNDATACOPY RETURNDATASIZE PUSH1 0x0 REVERT JUMPDEST POP POP POP POP POP POP POP POP POP POP JUMP JUMPDEST PUSH1 0x0 DUP2 PUSH1 0x0 ADD PUSH1 0x0 PUSH2 0x100 EXP DUP2 SLOAD DUP2 PUSH16 0xFFFFFFFFFFFFFFFFFFFFFFFFFFFFFFFF MUL NOT AND SWAP1 DUP4 PUSH1 0xF SIGNEXTEND PUSH16 0xFFFFFFFFFFFFFFFFFFFFFFFFFFFFFFFF AND MUL OR SWAP1 SSTORE POP PUSH1 0x0 DUP2 PUSH1 0x0 ADD PUSH1 0x10 PUSH2 0x100 EXP DUP2 SLOAD DUP2 PUSH16 0xFFFFFFFFFFFFFFFFFFFFFFFFFFFFFFFF MUL NOT AND SWAP1 DUP4 PUSH1 0xF SIGNEXTEND PUSH16 0xFFFFFFFFFFFFFFFFFFFFFFFFFFFFFFFF AND MUL OR SWAP1 SSTORE POP POP JUMP JUMPDEST PUSH1 0x0 DUP1 PUSH1 0x1 PUSH1 0x0 DUP5 DUP2 MSTORE PUSH1 0x20 ADD SWAP1 DUP2 MSTORE PUSH1 0x20 ADD PUSH1 0x0 KECCAK256 SWAP1 POP DUP1 PUSH1 0x2 ADD PUSH1 0x0 SWAP1 SLOAD SWAP1 PUSH2 0x100 EXP SWAP1 DIV PUSH1 0xFF AND ISZERO PUSH2 0x3431 JUMPI PUSH1 0x7 SWAP2 POP POP PUSH2 0x3508 JUMP JUMPDEST DUP1 PUSH1 0x2 ADD PUSH1 0x1 SWAP1 SLOAD SWAP1 PUSH2 0x100 EXP SWAP1 DIV PUSH1 0xFF AND ISZERO PUSH2 0x3452 JUMPI PUSH1 0x2 SWAP2 POP POP PUSH2 0x3508 JUMP JUMPDEST PUSH1 0x0 PUSH2 0x345D DUP5 PUSH2 0x1248 JUMP JUMPDEST SWAP1 POP PUSH1 0x0 DUP2 EQ ISZERO PUSH2 0x34A3 JUMPI PUSH1 0x40 MLOAD PUSH32 0x8C379A000000000000000000000000000000000000000000000000000000000 DUP2 MSTORE PUSH1 0x4 ADD PUSH2 0x349A SWAP1 PUSH2 0x5072 JUMP JUMPDEST PUSH1 0x40 MLOAD DUP1 SWAP2 SUB SWAP1 REVERT JUMPDEST NUMBER DUP2 LT PUSH2 0x34B5 JUMPI PUSH1 0x0 SWAP3 POP POP POP PUSH2 0x3508 JUMP JUMPDEST PUSH1 0x0 PUSH2 0x34C0 DUP6 PUSH2 0x179C JUMP JUMPDEST SWAP1 POP NUMBER DUP2 LT PUSH2 0x34D5 JUMPI PUSH1 0x1 SWAP4 POP POP POP POP PUSH2 0x3508 JUMP JUMPDEST PUSH2 0x34DE DUP6 PUSH2 0x3765 JUMP JUMPDEST DUP1 ISZERO PUSH2 0x34EF JUMPI POP PUSH2 0x34EE DUP6 PUSH2 0x37AC JUMP JUMPDEST JUMPDEST ISZERO PUSH2 0x3500 JUMPI PUSH1 0x4 SWAP4 POP POP POP POP PUSH2 0x3508 JUMP JUMPDEST PUSH1 0x3 SWAP4 POP POP POP POP JUMPDEST SWAP2 SWAP1 POP JUMP JUMPDEST PUSH1 0x0 DUP1 DUP3 PUSH1 0x0 ADD MLOAD PUSH8 0xFFFFFFFFFFFFFFFF AND EQ SWAP1 POP SWAP2 SWAP1 POP JUMP JUMPDEST PUSH1 0x0 PUSH8 0xFFFFFFFFFFFFFFFF DUP1 AND DUP3 GT ISZERO PUSH2 0x3576 JUMPI PUSH1 0x40 MLOAD PUSH32 0x8C379A000000000000000000000000000000000000000000000000000000000 DUP2 MSTORE PUSH1 0x4 ADD PUSH2 0x356D SWAP1 PUSH2 0x5032 JUMP JUMPDEST PUSH1 0x40 MLOAD DUP1 SWAP2 SUB SWAP1 REVERT JUMPDEST DUP2 SWAP1 POP SWAP2 SWAP1 POP JUMP JUMPDEST DUP1 DUP3 PUSH1 0x0 ADD PUSH1 0x0 PUSH2 0x100 EXP DUP2 SLOAD DUP2 PUSH8 0xFFFFFFFFFFFFFFFF MUL NOT AND SWAP1 DUP4 PUSH8 0xFFFFFFFFFFFFFFFF AND MUL OR SWAP1 SSTORE POP POP POP JUMP JUMPDEST PUSH1 0x60 DUP3 SELFBALANCE LT ISZERO PUSH2 0x35F2 JUMPI PUSH1 0x40 MLOAD PUSH32 0x8C379A000000000000000000000000000000000000000000000000000000000 DUP2 MSTORE PUSH1 0x4 ADD PUSH2 0x35E9 SWAP1 PUSH2 0x4FB2 JUMP JUMPDEST PUSH1 0x40 MLOAD DUP1 SWAP2 SUB SWAP1 REVERT JUMPDEST PUSH2 0x35FB DUP6 PUSH2 0x37D7 JUMP JUMPDEST PUSH2 0x363A JUMPI PUSH1 0x40 MLOAD PUSH32 0x8C379A000000000000000000000000000000000000000000000000000000000 DUP2 MSTORE PUSH1 0x4 ADD PUSH2 0x3631 SWAP1 PUSH2 0x50D2 JUMP JUMPDEST PUSH1 0x40 MLOAD DUP1 SWAP2 SUB SWAP1 REVERT JUMPDEST PUSH1 0x0 DUP1 DUP7 PUSH20 0xFFFFFFFFFFFFFFFFFFFFFFFFFFFFFFFFFFFFFFFF AND DUP6 DUP8 PUSH1 0x40 MLOAD PUSH2 0x3663 SWAP2 SWAP1 PUSH2 0x4B14 JUMP JUMPDEST PUSH1 0x0 PUSH1 0x40 MLOAD DUP1 DUP4 SUB DUP2 DUP6 DUP8 GAS CALL SWAP3 POP POP POP RETURNDATASIZE DUP1 PUSH1 0x0 DUP2 EQ PUSH2 0x36A0 JUMPI PUSH1 0x40 MLOAD SWAP2 POP PUSH1 0x1F NOT PUSH1 0x3F RETURNDATASIZE ADD AND DUP3 ADD PUSH1 0x40 MSTORE RETURNDATASIZE DUP3 MSTORE RETURNDATASIZE PUSH1 0x0 PUSH1 0x20 DUP5 ADD RETURNDATACOPY PUSH2 0x36A5 JUMP JUMPDEST PUSH1 0x60 SWAP2 POP JUMPDEST POP SWAP2 POP SWAP2 POP PUSH2 0x36B5 DUP3 DUP3 DUP7 PUSH2 0x37FA JUMP JUMPDEST SWAP3 POP POP POP SWAP5 SWAP4 POP POP POP POP JUMP JUMPDEST PUSH1 0x0 PUSH32 0x1FFC9A700000000000000000000000000000000000000000000000000000000 PUSH28 0xFFFFFFFFFFFFFFFFFFFFFFFFFFFFFFFFFFFFFFFFFFFFFFFFFFFFFFFF NOT AND DUP3 PUSH28 0xFFFFFFFFFFFFFFFFFFFFFFFFFFFFFFFFFFFFFFFFFFFFFFFFFFFFFFFF NOT AND EQ SWAP1 POP SWAP2 SWAP1 POP JUMP JUMPDEST PUSH1 0x0 DUP4 DUP4 DUP4 CHAINID ADDRESS PUSH1 0x40 MLOAD PUSH1 0x20 ADD PUSH2 0x3746 SWAP6 SWAP5 SWAP4 SWAP3 SWAP2 SWAP1 PUSH2 0x4D3D JUMP JUMPDEST PUSH1 0x40 MLOAD PUSH1 0x20 DUP2 DUP4 SUB SUB DUP2 MSTORE SWAP1 PUSH1 0x40 MSTORE DUP1 MLOAD SWAP1 PUSH1 0x20 ADD KECCAK256 SWAP1 POP SWAP4 SWAP3 POP POP POP JUMP JUMPDEST PUSH1 0x0 DUP1 PUSH1 0x4 PUSH1 0x0 DUP5 DUP2 MSTORE PUSH1 0x20 ADD SWAP1 DUP2 MSTORE PUSH1 0x20 ADD PUSH1 0x0 KECCAK256 SWAP1 POP DUP1 PUSH1 0x2 ADD SLOAD DUP2 PUSH1 0x1 ADD SLOAD PUSH2 0x3791 SWAP2 SWAP1 PUSH2 0x5549 JUMP JUMPDEST PUSH2 0x37A2 PUSH2 0x379D DUP6 PUSH2 0x1248 JUMP JUMPDEST PUSH2 0x1A48 JUMP JUMPDEST GT ISZERO SWAP2 POP POP SWAP2 SWAP1 POP JUMP JUMPDEST PUSH1 0x0 DUP1 PUSH1 0x4 PUSH1 0x0 DUP5 DUP2 MSTORE PUSH1 0x20 ADD SWAP1 DUP2 MSTORE PUSH1 0x20 ADD PUSH1 0x0 KECCAK256 SWAP1 POP DUP1 PUSH1 0x0 ADD SLOAD DUP2 PUSH1 0x1 ADD SLOAD GT SWAP2 POP POP SWAP2 SWAP1 POP JUMP JUMPDEST PUSH1 0x0 DUP1 DUP3 PUSH20 0xFFFFFFFFFFFFFFFFFFFFFFFFFFFFFFFFFFFFFFFF AND EXTCODESIZE GT SWAP1 POP SWAP2 SWAP1 POP JUMP JUMPDEST PUSH1 0x60 DUP4 ISZERO PUSH2 0x380A JUMPI DUP3 SWAP1 POP PUSH2 0x385A JUMP JUMPDEST PUSH1 0x0 DUP4 MLOAD GT ISZERO PUSH2 0x381D JUMPI DUP3 MLOAD DUP1 DUP5 PUSH1 0x20 ADD REVERT JUMPDEST DUP2 PUSH1 0x40 MLOAD PUSH32 0x8C379A000000000000000000000000000000000000000000000000000000000 DUP2 MSTORE PUSH1 0x4 ADD PUSH2 0x3851 SWAP2 SWAP1 PUSH2 0x4EB0 JUMP JUMPDEST PUSH1 0x40 MLOAD DUP1 SWAP2 SUB SWAP1 REVERT JUMPDEST SWAP4 SWAP3 POP POP POP JUMP JUMPDEST PUSH1 0x0 PUSH2 0x3874 PUSH2 0x386F DUP5 PUSH2 0x530F JUMP JUMPDEST PUSH2 0x52EA JUMP JUMPDEST SWAP1 POP DUP1 DUP4 DUP3 MSTORE PUSH1 0x20 DUP3 ADD SWAP1 POP DUP3 DUP6 PUSH1 0x20 DUP7 MUL DUP3 ADD GT ISZERO PUSH2 0x3893 JUMPI PUSH1 0x0 DUP1 REVERT JUMPDEST PUSH1 0x0 JUMPDEST DUP6 DUP2 LT ISZERO PUSH2 0x38C3 JUMPI DUP2 PUSH2 0x38A9 DUP9 DUP3 PUSH2 0x3A3B JUMP JUMPDEST DUP5 MSTORE PUSH1 0x20 DUP5 ADD SWAP4 POP PUSH1 0x20 DUP4 ADD SWAP3 POP POP PUSH1 0x1 DUP2 ADD SWAP1 POP PUSH2 0x3896 JUMP JUMPDEST POP POP POP SWAP4 SWAP3 POP POP POP JUMP JUMPDEST PUSH1 0x0 PUSH2 0x38E0 PUSH2 0x38DB DUP5 PUSH2 0x533B JUMP JUMPDEST PUSH2 0x52EA JUMP JUMPDEST SWAP1 POP DUP1 DUP4 DUP3 MSTORE PUSH1 0x20 DUP3 ADD SWAP1 POP DUP3 DUP6 PUSH1 0x20 DUP7 MUL DUP3 ADD GT ISZERO PUSH2 0x38FF JUMPI PUSH1 0x0 DUP1 REVERT JUMPDEST PUSH1 0x0 JUMPDEST DUP6 DUP2 LT ISZERO PUSH2 0x3949 JUMPI DUP2 CALLDATALOAD PUSH8 0xFFFFFFFFFFFFFFFF DUP2 GT ISZERO PUSH2 0x3921 JUMPI PUSH1 0x0 DUP1 REVERT JUMPDEST DUP1 DUP7 ADD PUSH2 0x392E DUP10 DUP3 PUSH2 0x3B6C JUMP JUMPDEST DUP6 MSTORE PUSH1 0x20 DUP6 ADD SWAP5 POP PUSH1 0x20 DUP5 ADD SWAP4 POP POP POP PUSH1 0x1 DUP2 ADD SWAP1 POP PUSH2 0x3902 JUMP JUMPDEST POP POP POP SWAP4 SWAP3 POP POP POP JUMP JUMPDEST PUSH1 0x0 PUSH2 0x3966 PUSH2 0x3961 DUP5 PUSH2 0x5367 JUMP JUMPDEST PUSH2 0x52EA JUMP JUMPDEST SWAP1 POP DUP1 DUP4 DUP3 MSTORE PUSH1 0x20 DUP3 ADD SWAP1 POP DUP3 DUP6 PUSH1 0x20 DUP7 MUL DUP3 ADD GT ISZERO PUSH2 0x3985 JUMPI PUSH1 0x0 DUP1 REVERT JUMPDEST PUSH1 0x0 JUMPDEST DUP6 DUP2 LT ISZERO PUSH2 0x39B5 JUMPI DUP2 PUSH2 0x399B DUP9 DUP3 PUSH2 0x3C1F JUMP JUMPDEST DUP5 MSTORE PUSH1 0x20 DUP5 ADD SWAP4 POP PUSH1 0x20 DUP4 ADD SWAP3 POP POP PUSH1 0x1 DUP2 ADD SWAP1 POP PUSH2 0x3988 JUMP JUMPDEST POP POP POP SWAP4 SWAP3 POP POP POP JUMP JUMPDEST PUSH1 0x0 PUSH2 0x39D2 PUSH2 0x39CD DUP5 PUSH2 0x5393 JUMP JUMPDEST PUSH2 0x52EA JUMP JUMPDEST SWAP1 POP DUP3 DUP2 MSTORE PUSH1 0x20 DUP2 ADD DUP5 DUP5 DUP5 ADD GT ISZERO PUSH2 0x39EA JUMPI PUSH1 0x0 DUP1 REVERT JUMPDEST PUSH2 0x39F5 DUP5 DUP3 DUP6 PUSH2 0x57DE JUMP JUMPDEST POP SWAP4 SWAP3 POP POP POP JUMP JUMPDEST PUSH1 0x0 PUSH2 0x3A10 PUSH2 0x3A0B DUP5 PUSH2 0x53C4 JUMP JUMPDEST PUSH2 0x52EA JUMP JUMPDEST SWAP1 POP DUP3 DUP2 MSTORE PUSH1 0x20 DUP2 ADD DUP5 DUP5 DUP5 ADD GT ISZERO PUSH2 0x3A28 JUMPI PUSH1 0x0 DUP1 REVERT JUMPDEST PUSH2 0x3A33 DUP5 DUP3 DUP6 PUSH2 0x57DE JUMP JUMPDEST POP SWAP4 SWAP3 POP POP POP JUMP JUMPDEST PUSH1 0x0 DUP2 CALLDATALOAD SWAP1 POP PUSH2 0x3A4A DUP2 PUSH2 0x5EEC JUMP JUMPDEST SWAP3 SWAP2 POP POP JUMP JUMPDEST PUSH1 0x0 DUP3 PUSH1 0x1F DUP4 ADD SLT PUSH2 0x3A61 JUMPI PUSH1 0x0 DUP1 REVERT JUMPDEST DUP2 CALLDATALOAD PUSH2 0x3A71 DUP5 DUP3 PUSH1 0x20 DUP7 ADD PUSH2 0x3861 JUMP JUMPDEST SWAP2 POP POP SWAP3 SWAP2 POP POP JUMP JUMPDEST PUSH1 0x0 DUP3 PUSH1 0x1F DUP4 ADD SLT PUSH2 0x3A8B JUMPI PUSH1 0x0 DUP1 REVERT JUMPDEST DUP2 CALLDATALOAD PUSH2 0x3A9B DUP5 DUP3 PUSH1 0x20 DUP7 ADD PUSH2 0x38CD JUMP JUMPDEST SWAP2 POP POP SWAP3 SWAP2 POP POP JUMP JUMPDEST PUSH1 0x0 DUP3 PUSH1 0x1F DUP4 ADD SLT PUSH2 0x3AB5 JUMPI PUSH1 0x0 DUP1 REVERT JUMPDEST DUP2 CALLDATALOAD PUSH2 0x3AC5 DUP5 DUP3 PUSH1 0x20 DUP7 ADD PUSH2 0x3953 JUMP JUMPDEST SWAP2 POP POP SWAP3 SWAP2 POP POP JUMP JUMPDEST PUSH1 0x0 DUP2 MLOAD SWAP1 POP PUSH2 0x3ADD DUP2 PUSH2 0x5F03 JUMP JUMPDEST SWAP3 SWAP2 POP POP JUMP JUMPDEST PUSH1 0x0 DUP2 CALLDATALOAD SWAP1 POP PUSH2 0x3AF2 DUP2 PUSH2 0x5F1A JUMP JUMPDEST SWAP3 SWAP2 POP POP JUMP JUMPDEST PUSH1 0x0 DUP2 MLOAD SWAP1 POP PUSH2 0x3B07 DUP2 PUSH2 0x5F1A JUMP JUMPDEST SWAP3 SWAP2 POP POP JUMP JUMPDEST PUSH1 0x0 DUP2 CALLDATALOAD SWAP1 POP PUSH2 0x3B1C DUP2 PUSH2 0x5F31 JUMP JUMPDEST SWAP3 SWAP2 POP POP JUMP JUMPDEST PUSH1 0x0 DUP1 DUP4 PUSH1 0x1F DUP5 ADD SLT PUSH2 0x3B34 JUMPI PUSH1 0x0 DUP1 REVERT JUMPDEST DUP3 CALLDATALOAD SWAP1 POP PUSH8 0xFFFFFFFFFFFFFFFF DUP2 GT ISZERO PUSH2 0x3B4D JUMPI PUSH1 0x0 DUP1 REVERT JUMPDEST PUSH1 0x20 DUP4 ADD SWAP2 POP DUP4 PUSH1 0x1 DUP3 MUL DUP4 ADD GT ISZERO PUSH2 0x3B65 JUMPI PUSH1 0x0 DUP1 REVERT JUMPDEST SWAP3 POP SWAP3 SWAP1 POP JUMP JUMPDEST PUSH1 0x0 DUP3 PUSH1 0x1F DUP4 ADD SLT PUSH2 0x3B7D JUMPI PUSH1 0x0 DUP1 REVERT JUMPDEST DUP2 CALLDATALOAD PUSH2 0x3B8D DUP5 DUP3 PUSH1 0x20 DUP7 ADD PUSH2 0x39BF JUMP JUMPDEST SWAP2 POP POP SWAP3 SWAP2 POP POP JUMP JUMPDEST PUSH1 0x0 DUP2 CALLDATALOAD SWAP1 POP PUSH2 0x3BA5 DUP2 PUSH2 0x5F48 JUMP JUMPDEST SWAP3 SWAP2 POP POP JUMP JUMPDEST PUSH1 0x0 DUP1 DUP4 PUSH1 0x1F DUP5 ADD SLT PUSH2 0x3BBD JUMPI PUSH1 0x0 DUP1 REVERT JUMPDEST DUP3 CALLDATALOAD SWAP1 POP PUSH8 0xFFFFFFFFFFFFFFFF DUP2 GT ISZERO PUSH2 0x3BD6 JUMPI PUSH1 0x0 DUP1 REVERT JUMPDEST PUSH1 0x20 DUP4 ADD SWAP2 POP DUP4 PUSH1 0x1 DUP3 MUL DUP4 ADD GT ISZERO PUSH2 0x3BEE JUMPI PUSH1 0x0 DUP1 REVERT JUMPDEST SWAP3 POP SWAP3 SWAP1 POP JUMP JUMPDEST PUSH1 0x0 DUP3 PUSH1 0x1F DUP4 ADD SLT PUSH2 0x3C06 JUMPI PUSH1 0x0 DUP1 REVERT JUMPDEST DUP2 CALLDATALOAD PUSH2 0x3C16 DUP5 DUP3 PUSH1 0x20 DUP7 ADD PUSH2 0x39FD JUMP JUMPDEST SWAP2 POP POP SWAP3 SWAP2 POP POP JUMP JUMPDEST PUSH1 0x0 DUP2 CALLDATALOAD SWAP1 POP PUSH2 0x3C2E DUP2 PUSH2 0x5F5F JUMP JUMPDEST SWAP3 SWAP2 POP POP JUMP JUMPDEST PUSH1 0x0 DUP2 MLOAD SWAP1 POP PUSH2 0x3C43 DUP2 PUSH2 0x5F5F JUMP JUMPDEST SWAP3 SWAP2 POP POP JUMP JUMPDEST PUSH1 0x0 DUP2 CALLDATALOAD SWAP1 POP PUSH2 0x3C58 DUP2 PUSH2 0x5F76 JUMP JUMPDEST SWAP3 SWAP2 POP POP JUMP JUMPDEST PUSH1 0x0 DUP1 PUSH1 0x0 DUP1 PUSH1 0x0 PUSH1 0xA0 DUP7 DUP9 SUB SLT ISZERO PUSH2 0x3C76 JUMPI PUSH1 0x0 DUP1 REVERT JUMPDEST PUSH1 0x0 PUSH2 0x3C84 DUP9 DUP3 DUP10 ADD PUSH2 0x3A3B JUMP JUMPDEST SWAP6 POP POP PUSH1 0x20 PUSH2 0x3C95 DUP9 DUP3 DUP10 ADD PUSH2 0x3A3B JUMP JUMPDEST SWAP5 POP POP PUSH1 0x40 DUP7 ADD CALLDATALOAD PUSH8 0xFFFFFFFFFFFFFFFF DUP2 GT ISZERO PUSH2 0x3CB2 JUMPI PUSH1 0x0 DUP1 REVERT JUMPDEST PUSH2 0x3CBE DUP9 DUP3 DUP10 ADD PUSH2 0x3AA4 JUMP JUMPDEST SWAP4 POP POP PUSH1 0x60 DUP7 ADD CALLDATALOAD PUSH8 0xFFFFFFFFFFFFFFFF DUP2 GT ISZERO PUSH2 0x3CDB JUMPI PUSH1 0x0 DUP1 REVERT JUMPDEST PUSH2 0x3CE7 DUP9 DUP3 DUP10 ADD PUSH2 0x3AA4 JUMP JUMPDEST SWAP3 POP POP PUSH1 0x80 DUP7 ADD CALLDATALOAD PUSH8 0xFFFFFFFFFFFFFFFF DUP2 GT ISZERO PUSH2 0x3D04 JUMPI PUSH1 0x0 DUP1 REVERT JUMPDEST PUSH2 0x3D10 DUP9 DUP3 DUP10 ADD PUSH2 0x3B6C JUMP JUMPDEST SWAP2 POP POP SWAP3 SWAP6 POP SWAP3 SWAP6 SWAP1 SWAP4 POP JUMP JUMPDEST PUSH1 0x0 DUP1 PUSH1 0x0 DUP1 PUSH1 0x80 DUP6 DUP8 SUB SLT ISZERO PUSH2 0x3D33 JUMPI PUSH1 0x0 DUP1 REVERT JUMPDEST PUSH1 0x0 PUSH2 0x3D41 DUP8 DUP3 DUP9 ADD PUSH2 0x3A3B JUMP JUMPDEST SWAP5 POP POP PUSH1 0x20 PUSH2 0x3D52 DUP8 DUP3 DUP9 ADD PUSH2 0x3A3B JUMP JUMPDEST SWAP4 POP POP PUSH1 0x40 PUSH2 0x3D63 DUP8 DUP3 DUP9 ADD PUSH2 0x3C1F JUMP JUMPDEST SWAP3 POP POP PUSH1 0x60 DUP6 ADD CALLDATALOAD PUSH8 0xFFFFFFFFFFFFFFFF DUP2 GT ISZERO PUSH2 0x3D80 JUMPI PUSH1 0x0 DUP1 REVERT JUMPDEST PUSH2 0x3D8C DUP8 DUP3 DUP9 ADD PUSH2 0x3B6C JUMP JUMPDEST SWAP2 POP POP SWAP3 SWAP6 SWAP2 SWAP5 POP SWAP3 POP JUMP JUMPDEST PUSH1 0x0 DUP1 PUSH1 0x0 DUP1 PUSH1 0x0 PUSH1 0xA0 DUP7 DUP9 SUB SLT ISZERO PUSH2 0x3DB0 JUMPI PUSH1 0x0 DUP1 REVERT JUMPDEST PUSH1 0x0 PUSH2 0x3DBE DUP9 DUP3 DUP10 ADD PUSH2 0x3A3B JUMP JUMPDEST SWAP6 POP POP PUSH1 0x20 PUSH2 0x3DCF DUP9 DUP3 DUP10 ADD PUSH2 0x3A3B JUMP JUMPDEST SWAP5 POP POP PUSH1 0x40 PUSH2 0x3DE0 DUP9 DUP3 DUP10 ADD PUSH2 0x3C1F JUMP JUMPDEST SWAP4 POP POP PUSH1 0x60 PUSH2 0x3DF1 DUP9 DUP3 DUP10 ADD PUSH2 0x3C1F JUMP JUMPDEST SWAP3 POP POP PUSH1 0x80 DUP7 ADD CALLDATALOAD PUSH8 0xFFFFFFFFFFFFFFFF DUP2 GT ISZERO PUSH2 0x3E0E JUMPI PUSH1 0x0 DUP1 REVERT JUMPDEST PUSH2 0x3E1A DUP9 DUP3 DUP10 ADD PUSH2 0x3B6C JUMP JUMPDEST SWAP2 POP POP SWAP3 SWAP6 POP SWAP3 SWAP6 SWAP1 SWAP4 POP JUMP JUMPDEST PUSH1 0x0 DUP1 PUSH1 0x40 DUP4 DUP6 SUB SLT ISZERO PUSH2 0x3E3A JUMPI PUSH1 0x0 DUP1 REVERT JUMPDEST PUSH1 0x0 PUSH2 0x3E48 DUP6 DUP3 DUP7 ADD PUSH2 0x3A3B JUMP JUMPDEST SWAP3 POP POP PUSH1 0x20 PUSH2 0x3E59 DUP6 DUP3 DUP7 ADD PUSH2 0x3C1F JUMP JUMPDEST SWAP2 POP POP SWAP3 POP SWAP3 SWAP1 POP JUMP JUMPDEST PUSH1 0x0 DUP1 PUSH1 0x0 DUP1 PUSH1 0x60 DUP6 DUP8 SUB SLT ISZERO PUSH2 0x3E79 JUMPI PUSH1 0x0 DUP1 REVERT JUMPDEST PUSH1 0x0 PUSH2 0x3E87 DUP8 DUP3 DUP9 ADD PUSH2 0x3A3B JUMP JUMPDEST SWAP5 POP POP PUSH1 0x20 PUSH2 0x3E98 DUP8 DUP3 DUP9 ADD PUSH2 0x3C1F JUMP JUMPDEST SWAP4 POP POP PUSH1 0x40 DUP6 ADD CALLDATALOAD PUSH8 0xFFFFFFFFFFFFFFFF DUP2 GT ISZERO PUSH2 0x3EB5 JUMPI PUSH1 0x0 DUP1 REVERT JUMPDEST PUSH2 0x3EC1 DUP8 DUP3 DUP9 ADD PUSH2 0x3B22 JUMP JUMPDEST SWAP3 POP SWAP3 POP POP SWAP3 SWAP6 SWAP2 SWAP5 POP SWAP3 POP JUMP JUMPDEST PUSH1 0x0 DUP1 PUSH1 0x0 PUSH1 0x60 DUP5 DUP7 SUB SLT ISZERO PUSH2 0x3EE4 JUMPI PUSH1 0x0 DUP1 REVERT JUMPDEST PUSH1 0x0 PUSH2 0x3EF2 DUP7 DUP3 DUP8 ADD PUSH2 0x3A3B JUMP JUMPDEST SWAP4 POP POP PUSH1 0x20 PUSH2 0x3F03 DUP7 DUP3 DUP8 ADD PUSH2 0x3C1F JUMP JUMPDEST SWAP3 POP POP PUSH1 0x40 DUP5 ADD CALLDATALOAD PUSH8 0xFFFFFFFFFFFFFFFF DUP2 GT ISZERO PUSH2 0x3F20 JUMPI PUSH1 0x0 DUP1 REVERT JUMPDEST PUSH2 0x3F2C DUP7 DUP3 DUP8 ADD PUSH2 0x3B6C JUMP JUMPDEST SWAP2 POP POP SWAP3 POP SWAP3 POP SWAP3 JUMP JUMPDEST PUSH1 0x0 DUP1 PUSH1 0x0 DUP1 PUSH1 0x80 DUP6 DUP8 SUB SLT ISZERO PUSH2 0x3F4C JUMPI PUSH1 0x0 DUP1 REVERT JUMPDEST PUSH1 0x0 DUP6 ADD CALLDATALOAD PUSH8 0xFFFFFFFFFFFFFFFF DUP2 GT ISZERO PUSH2 0x3F66 JUMPI PUSH1 0x0 DUP1 REVERT JUMPDEST PUSH2 0x3F72 DUP8 DUP3 DUP9 ADD PUSH2 0x3A50 JUMP JUMPDEST SWAP5 POP POP PUSH1 0x20 DUP6 ADD CALLDATALOAD PUSH8 0xFFFFFFFFFFFFFFFF DUP2 GT ISZERO PUSH2 0x3F8F JUMPI PUSH1 0x0 DUP1 REVERT JUMPDEST PUSH2 0x3F9B DUP8 DUP3 DUP9 ADD PUSH2 0x3AA4 JUMP JUMPDEST SWAP4 POP POP PUSH1 0x40 DUP6 ADD CALLDATALOAD PUSH8 0xFFFFFFFFFFFFFFFF DUP2 GT ISZERO PUSH2 0x3FB8 JUMPI PUSH1 0x0 DUP1 REVERT JUMPDEST PUSH2 0x3FC4 DUP8 DUP3 DUP9 ADD PUSH2 0x3A7A JUMP JUMPDEST SWAP3 POP POP PUSH1 0x60 PUSH2 0x3FD5 DUP8 DUP3 DUP9 ADD PUSH2 0x3AE3 JUMP JUMPDEST SWAP2 POP POP SWAP3 SWAP6 SWAP2 SWAP5 POP SWAP3 POP JUMP JUMPDEST PUSH1 0x0 DUP1 PUSH1 0x0 DUP1 PUSH1 0x80 DUP6 DUP8 SUB SLT ISZERO PUSH2 0x3FF7 JUMPI PUSH1 0x0 DUP1 REVERT JUMPDEST PUSH1 0x0 DUP6 ADD CALLDATALOAD PUSH8 0xFFFFFFFFFFFFFFFF DUP2 GT ISZERO PUSH2 0x4011 JUMPI PUSH1 0x0 DUP1 REVERT JUMPDEST PUSH2 0x401D DUP8 DUP3 DUP9 ADD PUSH2 0x3A50 JUMP JUMPDEST SWAP5 POP POP PUSH1 0x20 DUP6 ADD CALLDATALOAD PUSH8 0xFFFFFFFFFFFFFFFF DUP2 GT ISZERO PUSH2 0x403A JUMPI PUSH1 0x0 DUP1 REVERT JUMPDEST PUSH2 0x4046 DUP8 DUP3 DUP9 ADD PUSH2 0x3AA4 JUMP JUMPDEST SWAP4 POP POP PUSH1 0x40 DUP6 ADD CALLDATALOAD PUSH8 0xFFFFFFFFFFFFFFFF DUP2 GT ISZERO PUSH2 0x4063 JUMPI PUSH1 0x0 DUP1 REVERT JUMPDEST PUSH2 0x406F DUP8 DUP3 DUP9 ADD PUSH2 0x3A7A JUMP JUMPDEST SWAP3 POP POP PUSH1 0x60 DUP6 ADD CALLDATALOAD PUSH8 0xFFFFFFFFFFFFFFFF DUP2 GT ISZERO PUSH2 0x408C JUMPI PUSH1 0x0 DUP1 REVERT JUMPDEST PUSH2 0x4098 DUP8 DUP3 DUP9 ADD PUSH2 0x3BF5 JUMP JUMPDEST SWAP2 POP POP SWAP3 SWAP6 SWAP2 SWAP5 POP SWAP3 POP JUMP JUMPDEST PUSH1 0x0 PUSH1 0x20 DUP3 DUP5 SUB SLT ISZERO PUSH2 0x40B6 JUMPI PUSH1 0x0 DUP1 REVERT JUMPDEST PUSH1 0x0 PUSH2 0x40C4 DUP5 DUP3 DUP6 ADD PUSH2 0x3ACE JUMP JUMPDEST SWAP2 POP POP SWAP3 SWAP2 POP POP JUMP JUMPDEST PUSH1 0x0 PUSH1 0x20 DUP3 DUP5 SUB SLT ISZERO PUSH2 0x40DF JUMPI PUSH1 0x0 DUP1 REVERT JUMPDEST PUSH1 0x0 PUSH2 0x40ED DUP5 DUP3 DUP6 ADD PUSH2 0x3AF8 JUMP JUMPDEST SWAP2 POP POP SWAP3 SWAP2 POP POP JUMP JUMPDEST PUSH1 0x0 PUSH1 0x20 DUP3 DUP5 SUB SLT ISZERO PUSH2 0x4108 JUMPI PUSH1 0x0 DUP1 REVERT JUMPDEST PUSH1 0x0 PUSH2 0x4116 DUP5 DUP3 DUP6 ADD PUSH2 0x3B0D JUMP JUMPDEST SWAP2 POP POP SWAP3 SWAP2 POP POP JUMP JUMPDEST PUSH1 0x0 PUSH1 0x20 DUP3 DUP5 SUB SLT ISZERO PUSH2 0x4131 JUMPI PUSH1 0x0 DUP1 REVERT JUMPDEST PUSH1 0x0 PUSH2 0x413F DUP5 DUP3 DUP6 ADD PUSH2 0x3B96 JUMP JUMPDEST SWAP2 POP POP SWAP3 SWAP2 POP POP JUMP JUMPDEST PUSH1 0x0 PUSH1 0x20 DUP3 DUP5 SUB SLT ISZERO PUSH2 0x415A JUMPI PUSH1 0x0 DUP1 REVERT JUMPDEST PUSH1 0x0 PUSH2 0x4168 DUP5 DUP3 DUP6 ADD PUSH2 0x3C1F JUMP JUMPDEST SWAP2 POP POP SWAP3 SWAP2 POP POP JUMP JUMPDEST PUSH1 0x0 PUSH1 0x20 DUP3 DUP5 SUB SLT ISZERO PUSH2 0x4183 JUMPI PUSH1 0x0 DUP1 REVERT JUMPDEST PUSH1 0x0 PUSH2 0x4191 DUP5 DUP3 DUP6 ADD PUSH2 0x3C34 JUMP JUMPDEST SWAP2 POP POP SWAP3 SWAP2 POP POP JUMP JUMPDEST PUSH1 0x0 DUP1 PUSH1 0x40 DUP4 DUP6 SUB SLT ISZERO PUSH2 0x41AD JUMPI PUSH1 0x0 DUP1 REVERT JUMPDEST PUSH1 0x0 PUSH2 0x41BB DUP6 DUP3 DUP7 ADD PUSH2 0x3C1F JUMP JUMPDEST SWAP3 POP POP PUSH1 0x20 PUSH2 0x41CC DUP6 DUP3 DUP7 ADD PUSH2 0x3A3B JUMP JUMPDEST SWAP2 POP POP SWAP3 POP SWAP3 SWAP1 POP JUMP JUMPDEST PUSH1 0x0 DUP1 PUSH1 0x40 DUP4 DUP6 SUB SLT ISZERO PUSH2 0x41E9 JUMPI PUSH1 0x0 DUP1 REVERT JUMPDEST PUSH1 0x0 PUSH2 0x41F7 DUP6 DUP3 DUP7 ADD PUSH2 0x3C1F JUMP JUMPDEST SWAP3 POP POP PUSH1 0x20 PUSH2 0x4208 DUP6 DUP3 DUP7 ADD PUSH2 0x3C49 JUMP JUMPDEST SWAP2 POP POP SWAP3 POP SWAP3 SWAP1 POP JUMP JUMPDEST PUSH1 0x0 DUP1 PUSH1 0x0 DUP1 PUSH1 0x60 DUP6 DUP8 SUB SLT ISZERO PUSH2 0x4228 JUMPI PUSH1 0x0 DUP1 REVERT JUMPDEST PUSH1 0x0 PUSH2 0x4236 DUP8 DUP3 DUP9 ADD PUSH2 0x3C1F JUMP JUMPDEST SWAP5 POP POP PUSH1 0x20 PUSH2 0x4247 DUP8 DUP3 DUP9 ADD PUSH2 0x3C49 JUMP JUMPDEST SWAP4 POP POP PUSH1 0x40 DUP6 ADD CALLDATALOAD PUSH8 0xFFFFFFFFFFFFFFFF DUP2 GT ISZERO PUSH2 0x4264 JUMPI PUSH1 0x0 DUP1 REVERT JUMPDEST PUSH2 0x4270 DUP8 DUP3 DUP9 ADD PUSH2 0x3BAB JUMP JUMPDEST SWAP3 POP SWAP3 POP POP SWAP3 SWAP6 SWAP2 SWAP5 POP SWAP3 POP JUMP JUMPDEST PUSH1 0x0 DUP1 PUSH1 0x0 DUP1 PUSH1 0x0 PUSH1 0x80 DUP7 DUP9 SUB SLT ISZERO PUSH2 0x4296 JUMPI PUSH1 0x0 DUP1 REVERT JUMPDEST PUSH1 0x0 PUSH2 0x42A4 DUP9 DUP3 DUP10 ADD PUSH2 0x3C1F JUMP JUMPDEST SWAP6 POP POP PUSH1 0x20 PUSH2 0x42B5 DUP9 DUP3 DUP10 ADD PUSH2 0x3C49 JUMP JUMPDEST SWAP5 POP POP PUSH1 0x40 DUP7 ADD CALLDATALOAD PUSH8 0xFFFFFFFFFFFFFFFF DUP2 GT ISZERO PUSH2 0x42D2 JUMPI PUSH1 0x0 DUP1 REVERT JUMPDEST PUSH2 0x42DE DUP9 DUP3 DUP10 ADD PUSH2 0x3BAB JUMP JUMPDEST SWAP4 POP SWAP4 POP POP PUSH1 0x60 DUP7 ADD CALLDATALOAD PUSH8 0xFFFFFFFFFFFFFFFF DUP2 GT ISZERO PUSH2 0x42FD JUMPI PUSH1 0x0 DUP1 REVERT JUMPDEST PUSH2 0x4309 DUP9 DUP3 DUP10 ADD PUSH2 0x3B6C JUMP JUMPDEST SWAP2 POP POP SWAP3 SWAP6 POP SWAP3 SWAP6 SWAP1 SWAP4 POP JUMP JUMPDEST PUSH1 0x0 DUP1 PUSH1 0x0 DUP1 PUSH1 0x0 DUP1 PUSH1 0x0 DUP1 PUSH1 0xE0 DUP10 DUP12 SUB SLT ISZERO PUSH2 0x4332 JUMPI PUSH1 0x0 DUP1 REVERT JUMPDEST PUSH1 0x0 PUSH2 0x4340 DUP12 DUP3 DUP13 ADD PUSH2 0x3C1F JUMP JUMPDEST SWAP9 POP POP PUSH1 0x20 PUSH2 0x4351 DUP12 DUP3 DUP13 ADD PUSH2 0x3C49 JUMP JUMPDEST SWAP8 POP POP PUSH1 0x40 DUP10 ADD CALLDATALOAD PUSH8 0xFFFFFFFFFFFFFFFF DUP2 GT ISZERO PUSH2 0x436E JUMPI PUSH1 0x0 DUP1 REVERT JUMPDEST PUSH2 0x437A DUP12 DUP3 DUP13 ADD PUSH2 0x3BAB JUMP JUMPDEST SWAP7 POP SWAP7 POP POP PUSH1 0x60 DUP10 ADD CALLDATALOAD PUSH8 0xFFFFFFFFFFFFFFFF DUP2 GT ISZERO PUSH2 0x4399 JUMPI PUSH1 0x0 DUP1 REVERT JUMPDEST PUSH2 0x43A5 DUP12 DUP3 DUP13 ADD PUSH2 0x3B6C JUMP JUMPDEST SWAP5 POP POP PUSH1 0x80 PUSH2 0x43B6 DUP12 DUP3 DUP13 ADD PUSH2 0x3C49 JUMP JUMPDEST SWAP4 POP POP PUSH1 0xA0 PUSH2 0x43C7 DUP12 DUP3 DUP13 ADD PUSH2 0x3AE3 JUMP JUMPDEST SWAP3 POP POP PUSH1 0xC0 PUSH2 0x43D8 DUP12 DUP3 DUP13 ADD PUSH2 0x3AE3 JUMP JUMPDEST SWAP2 POP POP SWAP3 SWAP6 SWAP9 POP SWAP3 SWAP6 SWAP9 SWAP1 SWAP4 SWAP7 POP JUMP JUMPDEST PUSH1 0x0 DUP1 PUSH1 0x0 DUP1 PUSH1 0x0 PUSH1 0xA0 DUP7 DUP9 SUB SLT ISZERO PUSH2 0x4400 JUMPI PUSH1 0x0 DUP1 REVERT JUMPDEST PUSH1 0x0 PUSH2 0x440E DUP9 DUP3 DUP10 ADD PUSH2 0x3C1F JUMP JUMPDEST SWAP6 POP POP PUSH1 0x20 PUSH2 0x441F DUP9 DUP3 DUP10 ADD PUSH2 0x3C49 JUMP JUMPDEST SWAP5 POP POP PUSH1 0x40 PUSH2 0x4430 DUP9 DUP3 DUP10 ADD PUSH2 0x3C49 JUMP JUMPDEST SWAP4 POP POP PUSH1 0x60 PUSH2 0x4441 DUP9 DUP3 DUP10 ADD PUSH2 0x3AE3 JUMP JUMPDEST SWAP3 POP POP PUSH1 0x80 PUSH2 0x4452 DUP9 DUP3 DUP10 ADD PUSH2 0x3AE3 JUMP JUMPDEST SWAP2 POP POP SWAP3 SWAP6 POP SWAP3 SWAP6 SWAP1 SWAP4 POP JUMP JUMPDEST PUSH1 0x0 PUSH2 0x446B DUP4 DUP4 PUSH2 0x44B7 JUMP JUMPDEST PUSH1 0x20 DUP4 ADD SWAP1 POP SWAP3 SWAP2 POP POP JUMP JUMPDEST PUSH1 0x0 PUSH2 0x4483 DUP4 DUP4 PUSH2 0x46E4 JUMP JUMPDEST SWAP1 POP SWAP3 SWAP2 POP POP JUMP JUMPDEST PUSH1 0x0 PUSH2 0x4497 DUP4 DUP4 PUSH2 0x47B4 JUMP JUMPDEST SWAP1 POP SWAP3 SWAP2 POP POP JUMP JUMPDEST PUSH1 0x0 PUSH2 0x44AB DUP4 DUP4 PUSH2 0x4ABF JUMP JUMPDEST PUSH1 0x20 DUP4 ADD SWAP1 POP SWAP3 SWAP2 POP POP JUMP JUMPDEST PUSH2 0x44C0 DUP2 PUSH2 0x569C JUMP JUMPDEST DUP3 MSTORE POP POP JUMP JUMPDEST PUSH2 0x44CF DUP2 PUSH2 0x569C JUMP JUMPDEST DUP3 MSTORE POP POP JUMP JUMPDEST PUSH1 0x0 PUSH2 0x44E0 DUP3 PUSH2 0x5435 JUMP JUMPDEST PUSH2 0x44EA DUP2 DUP6 PUSH2 0x54AB JUMP JUMPDEST SWAP4 POP PUSH2 0x44F5 DUP4 PUSH2 0x53F5 JUMP JUMPDEST DUP1 PUSH1 0x0 JUMPDEST DUP4 DUP2 LT ISZERO PUSH2 0x4526 JUMPI DUP2 MLOAD PUSH2 0x450D DUP9 DUP3 PUSH2 0x445F JUMP JUMPDEST SWAP8 POP PUSH2 0x4518 DUP4 PUSH2 0x5477 JUMP JUMPDEST SWAP3 POP POP PUSH1 0x1 DUP2 ADD SWAP1 POP PUSH2 0x44F9 JUMP JUMPDEST POP DUP6 SWAP4 POP POP POP POP SWAP3 SWAP2 POP POP JUMP JUMPDEST PUSH1 0x0 PUSH2 0x453E DUP3 PUSH2 0x5440 JUMP JUMPDEST PUSH2 0x4548 DUP2 DUP6 PUSH2 0x54BC JUMP JUMPDEST SWAP4 POP DUP4 PUSH1 0x20 DUP3 MUL DUP6 ADD PUSH2 0x455A DUP6 PUSH2 0x5405 JUMP JUMPDEST DUP1 PUSH1 0x0 JUMPDEST DUP6 DUP2 LT ISZERO PUSH2 0x4596 JUMPI DUP5 DUP5 SUB DUP10 MSTORE DUP2 MLOAD PUSH2 0x4577 DUP6 DUP3 PUSH2 0x4477 JUMP JUMPDEST SWAP5 POP PUSH2 0x4582 DUP4 PUSH2 0x5484 JUMP JUMPDEST SWAP3 POP PUSH1 0x20 DUP11 ADD SWAP10 POP POP PUSH1 0x1 DUP2 ADD SWAP1 POP PUSH2 0x455E JUMP JUMPDEST POP DUP3 SWAP8 POP DUP8 SWAP6 POP POP POP POP POP POP SWAP3 SWAP2 POP POP JUMP JUMPDEST PUSH1 0x0 PUSH2 0x45B3 DUP3 PUSH2 0x544B JUMP JUMPDEST PUSH2 0x45BD DUP2 DUP6 PUSH2 0x54CD JUMP JUMPDEST SWAP4 POP DUP4 PUSH1 0x20 DUP3 MUL DUP6 ADD PUSH2 0x45CF DUP6 PUSH2 0x5415 JUMP JUMPDEST DUP1 PUSH1 0x0 JUMPDEST DUP6 DUP2 LT ISZERO PUSH2 0x460B JUMPI DUP5 DUP5 SUB DUP10 MSTORE DUP2 MLOAD PUSH2 0x45EC DUP6 DUP3 PUSH2 0x448B JUMP JUMPDEST SWAP5 POP PUSH2 0x45F7 DUP4 PUSH2 0x5491 JUMP JUMPDEST SWAP3 POP PUSH1 0x20 DUP11 ADD SWAP10 POP POP PUSH1 0x1 DUP2 ADD SWAP1 POP PUSH2 0x45D3 JUMP JUMPDEST POP DUP3 SWAP8 POP DUP8 SWAP6 POP POP POP POP POP POP SWAP3 SWAP2 POP POP JUMP JUMPDEST PUSH1 0x0 PUSH2 0x4628 DUP3 PUSH2 0x5456 JUMP JUMPDEST PUSH2 0x4632 DUP2 DUP6 PUSH2 0x54DE JUMP JUMPDEST SWAP4 POP PUSH2 0x463D DUP4 PUSH2 0x5425 JUMP JUMPDEST DUP1 PUSH1 0x0 JUMPDEST DUP4 DUP2 LT ISZERO PUSH2 0x466E JUMPI DUP2 MLOAD PUSH2 0x4655 DUP9 DUP3 PUSH2 0x449F JUMP JUMPDEST SWAP8 POP PUSH2 0x4660 DUP4 PUSH2 0x549E JUMP JUMPDEST SWAP3 POP POP PUSH1 0x1 DUP2 ADD SWAP1 POP PUSH2 0x4641 JUMP JUMPDEST POP DUP6 SWAP4 POP POP POP POP SWAP3 SWAP2 POP POP JUMP JUMPDEST PUSH2 0x4684 DUP2 PUSH2 0x56C0 JUMP JUMPDEST DUP3 MSTORE POP POP JUMP JUMPDEST PUSH2 0x4693 DUP2 PUSH2 0x56CC JUMP JUMPDEST DUP3 MSTORE POP POP JUMP JUMPDEST PUSH2 0x46AA PUSH2 0x46A5 DUP3 PUSH2 0x56CC JUMP JUMPDEST PUSH2 0x58CC JUMP JUMPDEST DUP3 MSTORE POP POP JUMP JUMPDEST PUSH2 0x46B9 DUP2 PUSH2 0x56D6 JUMP JUMPDEST DUP3 MSTORE POP POP JUMP JUMPDEST PUSH1 0x0 PUSH2 0x46CB DUP4 DUP6 PUSH2 0x5511 JUMP JUMPDEST SWAP4 POP PUSH2 0x46D8 DUP4 DUP6 DUP5 PUSH2 0x57DE JUMP JUMPDEST DUP3 DUP5 ADD SWAP1 POP SWAP4 SWAP3 POP POP POP JUMP JUMPDEST PUSH1 0x0 PUSH2 0x46EF DUP3 PUSH2 0x5461 JUMP JUMPDEST PUSH2 0x46F9 DUP2 DUP6 PUSH2 0x54EF JUMP JUMPDEST SWAP4 POP PUSH2 0x4709 DUP2 DUP6 PUSH1 0x20 DUP7 ADD PUSH2 0x57ED JUMP JUMPDEST PUSH2 0x4712 DUP2 PUSH2 0x59C1 JUMP JUMPDEST DUP5 ADD SWAP2 POP POP SWAP3 SWAP2 POP POP JUMP JUMPDEST PUSH1 0x0 PUSH2 0x4728 DUP3 PUSH2 0x5461 JUMP JUMPDEST PUSH2 0x4732 DUP2 DUP6 PUSH2 0x5500 JUMP JUMPDEST SWAP4 POP PUSH2 0x4742 DUP2 DUP6 PUSH1 0x20 DUP7 ADD PUSH2 0x57ED JUMP JUMPDEST PUSH2 0x474B DUP2 PUSH2 0x59C1 JUMP JUMPDEST DUP5 ADD SWAP2 POP POP SWAP3 SWAP2 POP POP JUMP JUMPDEST PUSH1 0x0 PUSH2 0x4761 DUP3 PUSH2 0x5461 JUMP JUMPDEST PUSH2 0x476B DUP2 DUP6 PUSH2 0x5511 JUMP JUMPDEST SWAP4 POP PUSH2 0x477B DUP2 DUP6 PUSH1 0x20 DUP7 ADD PUSH2 0x57ED JUMP JUMPDEST DUP1 DUP5 ADD SWAP2 POP POP SWAP3 SWAP2 POP POP JUMP JUMPDEST PUSH2 0x4790 DUP2 PUSH2 0x577C JUMP JUMPDEST DUP3 MSTORE POP POP JUMP JUMPDEST PUSH2 0x479F DUP2 PUSH2 0x57A0 JUMP JUMPDEST DUP3 MSTORE POP POP JUMP JUMPDEST PUSH2 0x47AE DUP2 PUSH2 0x57B2 JUMP JUMPDEST DUP3 MSTORE POP POP JUMP JUMPDEST PUSH1 0x0 PUSH2 0x47BF DUP3 PUSH2 0x546C JUMP JUMPDEST PUSH2 0x47C9 DUP2 DUP6 PUSH2 0x551C JUMP JUMPDEST SWAP4 POP PUSH2 0x47D9 DUP2 DUP6 PUSH1 0x20 DUP7 ADD PUSH2 0x57ED JUMP JUMPDEST PUSH2 0x47E2 DUP2 PUSH2 0x59C1 JUMP JUMPDEST DUP5 ADD SWAP2 POP POP SWAP3 SWAP2 POP POP JUMP JUMPDEST PUSH1 0x0 PUSH2 0x47F8 DUP3 PUSH2 0x546C JUMP JUMPDEST PUSH2 0x4802 DUP2 DUP6 PUSH2 0x552D JUMP JUMPDEST SWAP4 POP PUSH2 0x4812 DUP2 DUP6 PUSH1 0x20 DUP7 ADD PUSH2 0x57ED JUMP JUMPDEST PUSH2 0x481B DUP2 PUSH2 0x59C1 JUMP JUMPDEST DUP5 ADD SWAP2 POP POP SWAP3 SWAP2 POP POP JUMP JUMPDEST PUSH1 0x0 PUSH2 0x4833 PUSH1 0x18 DUP4 PUSH2 0x552D JUMP JUMPDEST SWAP2 POP PUSH2 0x483E DUP3 PUSH2 0x59DF JUMP JUMPDEST PUSH1 0x20 DUP3 ADD SWAP1 POP SWAP2 SWAP1 POP JUMP JUMPDEST PUSH1 0x0 PUSH2 0x4856 PUSH1 0x18 DUP4 PUSH2 0x552D JUMP JUMPDEST SWAP2 POP PUSH2 0x4861 DUP3 PUSH2 0x5A08 JUMP JUMPDEST PUSH1 0x20 DUP3 ADD SWAP1 POP SWAP2 SWAP1 POP JUMP JUMPDEST PUSH1 0x0 PUSH2 0x4879 PUSH1 0x43 DUP4 PUSH2 0x552D JUMP JUMPDEST SWAP2 POP PUSH2 0x4884 DUP3 PUSH2 0x5A31 JUMP JUMPDEST PUSH1 0x60 DUP3 ADD SWAP1 POP SWAP2 SWAP1 POP JUMP JUMPDEST PUSH1 0x0 PUSH2 0x489C PUSH1 0x1F DUP4 PUSH2 0x552D JUMP JUMPDEST SWAP2 POP PUSH2 0x48A7 DUP3 PUSH2 0x5AA6 JUMP JUMPDEST PUSH1 0x20 DUP3 ADD SWAP1 POP SWAP2 SWAP1 POP JUMP JUMPDEST PUSH1 0x0 PUSH2 0x48BF PUSH1 0x2 DUP4 PUSH2 0x553E JUMP JUMPDEST SWAP2 POP PUSH2 0x48CA DUP3 PUSH2 0x5ACF JUMP JUMPDEST PUSH1 0x2 DUP3 ADD SWAP1 POP SWAP2 SWAP1 POP JUMP JUMPDEST PUSH1 0x0 PUSH2 0x48E2 PUSH1 0x21 DUP4 PUSH2 0x552D JUMP JUMPDEST SWAP2 POP PUSH2 0x48ED DUP3 PUSH2 0x5AF8 JUMP JUMPDEST PUSH1 0x40 DUP3 ADD SWAP1 POP SWAP2 SWAP1 POP JUMP JUMPDEST PUSH1 0x0 PUSH2 0x4905 PUSH1 0x22 DUP4 PUSH2 0x552D JUMP JUMPDEST SWAP2 POP PUSH2 0x4910 DUP3 PUSH2 0x5B47 JUMP JUMPDEST PUSH1 0x40 DUP3 ADD SWAP1 POP SWAP2 SWAP1 POP JUMP JUMPDEST PUSH1 0x0 PUSH2 0x4928 PUSH1 0x27 DUP4 PUSH2 0x552D JUMP JUMPDEST SWAP2 POP PUSH2 0x4933 DUP3 PUSH2 0x5B96 JUMP JUMPDEST PUSH1 0x40 DUP3 ADD SWAP1 POP SWAP2 SWAP1 POP JUMP JUMPDEST PUSH1 0x0 PUSH2 0x494B PUSH1 0x26 DUP4 PUSH2 0x552D JUMP JUMPDEST SWAP2 POP PUSH2 0x4956 DUP3 PUSH2 0x5BE5 JUMP JUMPDEST PUSH1 0x40 DUP3 ADD SWAP1 POP SWAP2 SWAP1 POP JUMP JUMPDEST PUSH1 0x0 PUSH2 0x496E PUSH1 0x23 DUP4 PUSH2 0x552D JUMP JUMPDEST SWAP2 POP PUSH2 0x4979 DUP3 PUSH2 0x5C34 JUMP JUMPDEST PUSH1 0x40 DUP3 ADD SWAP1 POP SWAP2 SWAP1 POP JUMP JUMPDEST PUSH1 0x0 PUSH2 0x4991 PUSH1 0x18 DUP4 PUSH2 0x552D JUMP JUMPDEST SWAP2 POP PUSH2 0x499C DUP3 PUSH2 0x5C83 JUMP JUMPDEST PUSH1 0x20 DUP3 ADD SWAP1 POP SWAP2 SWAP1 POP JUMP JUMPDEST PUSH1 0x0 PUSH2 0x49B4 PUSH1 0x22 DUP4 PUSH2 0x552D JUMP JUMPDEST SWAP2 POP PUSH2 0x49BF DUP3 PUSH2 0x5CAC JUMP JUMPDEST PUSH1 0x40 DUP3 ADD SWAP1 POP SWAP2 SWAP1 POP JUMP JUMPDEST PUSH1 0x0 PUSH2 0x49D7 PUSH1 0x26 DUP4 PUSH2 0x552D JUMP JUMPDEST SWAP2 POP PUSH2 0x49E2 DUP3 PUSH2 0x5CFB JUMP JUMPDEST PUSH1 0x40 DUP3 ADD SWAP1 POP SWAP2 SWAP1 POP JUMP JUMPDEST PUSH1 0x0 PUSH2 0x49FA PUSH1 0x21 DUP4 PUSH2 0x552D JUMP JUMPDEST SWAP2 POP PUSH2 0x4A05 DUP3 PUSH2 0x5D4A JUMP JUMPDEST PUSH1 0x40 DUP3 ADD SWAP1 POP SWAP2 SWAP1 POP JUMP JUMPDEST PUSH1 0x0 PUSH2 0x4A1D PUSH1 0x1D DUP4 PUSH2 0x552D JUMP JUMPDEST SWAP2 POP PUSH2 0x4A28 DUP3 PUSH2 0x5D99 JUMP JUMPDEST PUSH1 0x20 DUP3 ADD SWAP1 POP SWAP2 SWAP1 POP JUMP JUMPDEST PUSH1 0x0 PUSH2 0x4A40 PUSH1 0x35 DUP4 PUSH2 0x552D JUMP JUMPDEST SWAP2 POP PUSH2 0x4A4B DUP3 PUSH2 0x5DC2 JUMP JUMPDEST PUSH1 0x40 DUP3 ADD SWAP1 POP SWAP2 SWAP1 POP JUMP JUMPDEST PUSH1 0x0 PUSH2 0x4A63 PUSH1 0x21 DUP4 PUSH2 0x552D JUMP JUMPDEST SWAP2 POP PUSH2 0x4A6E DUP3 PUSH2 0x5E11 JUMP JUMPDEST PUSH1 0x40 DUP3 ADD SWAP1 POP SWAP2 SWAP1 POP JUMP JUMPDEST PUSH1 0x0 PUSH2 0x4A86 PUSH1 0x1D DUP4 PUSH2 0x552D JUMP JUMPDEST SWAP2 POP PUSH2 0x4A91 DUP3 PUSH2 0x5E60 JUMP JUMPDEST PUSH1 0x20 DUP3 ADD SWAP1 POP SWAP2 SWAP1 POP JUMP JUMPDEST PUSH1 0x0 PUSH2 0x4AA9 PUSH1 0x31 DUP4 PUSH2 0x552D JUMP JUMPDEST SWAP2 POP PUSH2 0x4AB4 DUP3 PUSH2 0x5E89 JUMP JUMPDEST PUSH1 0x40 DUP3 ADD SWAP1 POP SWAP2 SWAP1 POP JUMP JUMPDEST PUSH2 0x4AC8 DUP2 PUSH2 0x5751 JUMP JUMPDEST DUP3 MSTORE POP POP JUMP JUMPDEST PUSH2 0x4AD7 DUP2 PUSH2 0x5751 JUMP JUMPDEST DUP3 MSTORE POP POP JUMP JUMPDEST PUSH2 0x4AE6 DUP2 PUSH2 0x57CC JUMP JUMPDEST DUP3 MSTORE POP POP JUMP JUMPDEST PUSH2 0x4AF5 DUP2 PUSH2 0x576F JUMP JUMPDEST DUP3 MSTORE POP POP JUMP JUMPDEST PUSH1 0x0 PUSH2 0x4B08 DUP3 DUP5 DUP7 PUSH2 0x46BF JUMP JUMPDEST SWAP2 POP DUP2 SWAP1 POP SWAP4 SWAP3 POP POP POP JUMP JUMPDEST PUSH1 0x0 PUSH2 0x4B20 DUP3 DUP5 PUSH2 0x4756 JUMP JUMPDEST SWAP2 POP DUP2 SWAP1 POP SWAP3 SWAP2 POP POP JUMP JUMPDEST PUSH1 0x0 PUSH2 0x4B36 DUP3 PUSH2 0x48B2 JUMP JUMPDEST SWAP2 POP PUSH2 0x4B42 DUP3 DUP6 PUSH2 0x4699 JUMP JUMPDEST PUSH1 0x20 DUP3 ADD SWAP2 POP PUSH2 0x4B52 DUP3 DUP5 PUSH2 0x4699 JUMP JUMPDEST PUSH1 0x20 DUP3 ADD SWAP2 POP DUP2 SWAP1 POP SWAP4 SWAP3 POP POP POP JUMP JUMPDEST PUSH1 0x0 PUSH1 0x20 DUP3 ADD SWAP1 POP PUSH2 0x4B77 PUSH1 0x0 DUP4 ADD DUP5 PUSH2 0x44C6 JUMP JUMPDEST SWAP3 SWAP2 POP POP JUMP JUMPDEST PUSH1 0x0 PUSH1 0x40 DUP3 ADD SWAP1 POP PUSH2 0x4B92 PUSH1 0x0 DUP4 ADD DUP6 PUSH2 0x44C6 JUMP JUMPDEST PUSH2 0x4B9F PUSH1 0x20 DUP4 ADD DUP5 PUSH2 0x44C6 JUMP JUMPDEST SWAP4 SWAP3 POP POP POP JUMP JUMPDEST PUSH1 0x0 PUSH1 0x40 DUP3 ADD SWAP1 POP PUSH2 0x4BBB PUSH1 0x0 DUP4 ADD DUP6 PUSH2 0x44C6 JUMP JUMPDEST PUSH2 0x4BC8 PUSH1 0x20 DUP4 ADD DUP5 PUSH2 0x4ACE JUMP JUMPDEST SWAP4 SWAP3 POP POP POP JUMP JUMPDEST PUSH1 0x0 PUSH1 0x80 DUP3 ADD SWAP1 POP DUP2 DUP2 SUB PUSH1 0x0 DUP4 ADD MSTORE PUSH2 0x4BE9 DUP2 DUP8 PUSH2 0x44D5 JUMP JUMPDEST SWAP1 POP DUP2 DUP2 SUB PUSH1 0x20 DUP4 ADD MSTORE PUSH2 0x4BFD DUP2 DUP7 PUSH2 0x461D JUMP JUMPDEST SWAP1 POP DUP2 DUP2 SUB PUSH1 0x40 DUP4 ADD MSTORE PUSH2 0x4C11 DUP2 DUP6 PUSH2 0x4533 JUMP JUMPDEST SWAP1 POP PUSH2 0x4C20 PUSH1 0x60 DUP4 ADD DUP5 PUSH2 0x468A JUMP JUMPDEST SWAP6 SWAP5 POP POP POP POP POP JUMP JUMPDEST PUSH1 0x0 PUSH1 0xA0 DUP3 ADD SWAP1 POP DUP2 DUP2 SUB PUSH1 0x0 DUP4 ADD MSTORE PUSH2 0x4C43 DUP2 DUP9 PUSH2 0x44D5 JUMP JUMPDEST SWAP1 POP DUP2 DUP2 SUB PUSH1 0x20 DUP4 ADD MSTORE PUSH2 0x4C57 DUP2 DUP8 PUSH2 0x461D JUMP JUMPDEST SWAP1 POP DUP2 DUP2 SUB PUSH1 0x40 DUP4 ADD MSTORE PUSH2 0x4C6B DUP2 DUP7 PUSH2 0x4533 JUMP JUMPDEST SWAP1 POP PUSH2 0x4C7A PUSH1 0x60 DUP4 ADD DUP6 PUSH2 0x47A5 JUMP JUMPDEST PUSH2 0x4C87 PUSH1 0x80 DUP4 ADD DUP5 PUSH2 0x468A JUMP JUMPDEST SWAP7 SWAP6 POP POP POP POP POP POP JUMP JUMPDEST PUSH1 0x0 PUSH1 0xC0 DUP3 ADD SWAP1 POP DUP2 DUP2 SUB PUSH1 0x0 DUP4 ADD MSTORE PUSH2 0x4CAB DUP2 DUP10 PUSH2 0x44D5 JUMP JUMPDEST SWAP1 POP DUP2 DUP2 SUB PUSH1 0x20 DUP4 ADD MSTORE PUSH2 0x4CBF DUP2 DUP9 PUSH2 0x461D JUMP JUMPDEST SWAP1 POP DUP2 DUP2 SUB PUSH1 0x40 DUP4 ADD MSTORE PUSH2 0x4CD3 DUP2 DUP8 PUSH2 0x4533 JUMP JUMPDEST SWAP1 POP PUSH2 0x4CE2 PUSH1 0x60 DUP4 ADD DUP7 PUSH2 0x47A5 JUMP JUMPDEST PUSH2 0x4CEF PUSH1 0x80 DUP4 ADD DUP6 PUSH2 0x468A JUMP JUMPDEST PUSH2 0x4CFC PUSH1 0xA0 DUP4 ADD DUP5 PUSH2 0x4ACE JUMP JUMPDEST SWAP8 SWAP7 POP POP POP POP POP POP POP JUMP JUMPDEST PUSH1 0x0 PUSH1 0x20 DUP3 ADD SWAP1 POP PUSH2 0x4D1C PUSH1 0x0 DUP4 ADD DUP5 PUSH2 0x467B JUMP JUMPDEST SWAP3 SWAP2 POP POP JUMP JUMPDEST PUSH1 0x0 PUSH1 0x20 DUP3 ADD SWAP1 POP PUSH2 0x4D37 PUSH1 0x0 DUP4 ADD DUP5 PUSH2 0x468A JUMP JUMPDEST SWAP3 SWAP2 POP POP JUMP JUMPDEST PUSH1 0x0 PUSH1 0xA0 DUP3 ADD SWAP1 POP PUSH2 0x4D52 PUSH1 0x0 DUP4 ADD DUP9 PUSH2 0x468A JUMP JUMPDEST PUSH2 0x4D5F PUSH1 0x20 DUP4 ADD DUP8 PUSH2 0x468A JUMP JUMPDEST PUSH2 0x4D6C PUSH1 0x40 DUP4 ADD DUP7 PUSH2 0x468A JUMP JUMPDEST PUSH2 0x4D79 PUSH1 0x60 DUP4 ADD DUP6 PUSH2 0x4ACE JUMP JUMPDEST PUSH2 0x4D86 PUSH1 0x80 DUP4 ADD DUP5 PUSH2 0x44C6 JUMP JUMPDEST SWAP7 SWAP6 POP POP POP POP POP POP JUMP JUMPDEST PUSH1 0x0 PUSH1 0x60 DUP3 ADD SWAP1 POP PUSH2 0x4DA5 PUSH1 0x0 DUP4 ADD DUP7 PUSH2 0x468A JUMP JUMPDEST PUSH2 0x4DB2 PUSH1 0x20 DUP4 ADD DUP6 PUSH2 0x4ACE JUMP JUMPDEST PUSH2 0x4DBF PUSH1 0x40 DUP4 ADD DUP5 PUSH2 0x4AEC JUMP JUMPDEST SWAP5 SWAP4 POP POP POP POP JUMP JUMPDEST PUSH1 0x0 PUSH1 0xA0 DUP3 ADD SWAP1 POP PUSH2 0x4DDC PUSH1 0x0 DUP4 ADD DUP9 PUSH2 0x468A JUMP JUMPDEST PUSH2 0x4DE9 PUSH1 0x20 DUP4 ADD DUP8 PUSH2 0x4ACE JUMP JUMPDEST PUSH2 0x4DF6 PUSH1 0x40 DUP4 ADD DUP7 PUSH2 0x4AEC JUMP JUMPDEST PUSH2 0x4E03 PUSH1 0x60 DUP4 ADD DUP6 PUSH2 0x468A JUMP JUMPDEST PUSH2 0x4E10 PUSH1 0x80 DUP4 ADD DUP5 PUSH2 0x468A JUMP JUMPDEST SWAP7 SWAP6 POP POP POP POP POP POP JUMP JUMPDEST PUSH1 0x0 PUSH1 0x80 DUP3 ADD SWAP1 POP PUSH2 0x4E2F PUSH1 0x0 DUP4 ADD DUP8 PUSH2 0x468A JUMP JUMPDEST PUSH2 0x4E3C PUSH1 0x20 DUP4 ADD DUP7 PUSH2 0x4AEC JUMP JUMPDEST PUSH2 0x4E49 PUSH1 0x40 DUP4 ADD DUP6 PUSH2 0x468A JUMP JUMPDEST PUSH2 0x4E56 PUSH1 0x60 DUP4 ADD DUP5 PUSH2 0x468A JUMP JUMPDEST SWAP6 SWAP5 POP POP POP POP POP JUMP JUMPDEST PUSH1 0x0 PUSH1 0x20 DUP3 ADD SWAP1 POP PUSH2 0x4E74 PUSH1 0x0 DUP4 ADD DUP5 PUSH2 0x46B0 JUMP JUMPDEST SWAP3 SWAP2 POP POP JUMP JUMPDEST PUSH1 0x0 PUSH1 0x20 DUP3 ADD SWAP1 POP PUSH2 0x4E8F PUSH1 0x0 DUP4 ADD DUP5 PUSH2 0x4787 JUMP JUMPDEST SWAP3 SWAP2 POP POP JUMP JUMPDEST PUSH1 0x0 PUSH1 0x20 DUP3 ADD SWAP1 POP PUSH2 0x4EAA PUSH1 0x0 DUP4 ADD DUP5 PUSH2 0x4796 JUMP JUMPDEST SWAP3 SWAP2 POP POP JUMP JUMPDEST PUSH1 0x0 PUSH1 0x20 DUP3 ADD SWAP1 POP DUP2 DUP2 SUB PUSH1 0x0 DUP4 ADD MSTORE PUSH2 0x4ECA DUP2 DUP5 PUSH2 0x47ED JUMP JUMPDEST SWAP1 POP SWAP3 SWAP2 POP POP JUMP JUMPDEST PUSH1 0x0 PUSH1 0x20 DUP3 ADD SWAP1 POP DUP2 DUP2 SUB PUSH1 0x0 DUP4 ADD MSTORE PUSH2 0x4EEB DUP2 PUSH2 0x4826 JUMP JUMPDEST SWAP1 POP SWAP2 SWAP1 POP JUMP JUMPDEST PUSH1 0x0 PUSH1 0x20 DUP3 ADD SWAP1 POP DUP2 DUP2 SUB PUSH1 0x0 DUP4 ADD MSTORE PUSH2 0x4F0B DUP2 PUSH2 0x4849 JUMP JUMPDEST SWAP1 POP SWAP2 SWAP1 POP JUMP JUMPDEST PUSH1 0x0 PUSH1 0x20 DUP3 ADD SWAP1 POP DUP2 DUP2 SUB PUSH1 0x0 DUP4 ADD MSTORE PUSH2 0x4F2B DUP2 PUSH2 0x486C JUMP JUMPDEST SWAP1 POP SWAP2 SWAP1 POP JUMP JUMPDEST PUSH1 0x0 PUSH1 0x20 DUP3 ADD SWAP1 POP DUP2 DUP2 SUB PUSH1 0x0 DUP4 ADD MSTORE PUSH2 0x4F4B DUP2 PUSH2 0x488F JUMP JUMPDEST SWAP1 POP SWAP2 SWAP1 POP JUMP JUMPDEST PUSH1 0x0 PUSH1 0x20 DUP3 ADD SWAP1 POP DUP2 DUP2 SUB PUSH1 0x0 DUP4 ADD MSTORE PUSH2 0x4F6B DUP2 PUSH2 0x48D5 JUMP JUMPDEST SWAP1 POP SWAP2 SWAP1 POP JUMP JUMPDEST PUSH1 0x0 PUSH1 0x20 DUP3 ADD SWAP1 POP DUP2 DUP2 SUB PUSH1 0x0 DUP4 ADD MSTORE PUSH2 0x4F8B DUP2 PUSH2 0x48F8 JUMP JUMPDEST SWAP1 POP SWAP2 SWAP1 POP JUMP JUMPDEST PUSH1 0x0 PUSH1 0x20 DUP3 ADD SWAP1 POP DUP2 DUP2 SUB PUSH1 0x0 DUP4 ADD MSTORE PUSH2 0x4FAB DUP2 PUSH2 0x491B JUMP JUMPDEST SWAP1 POP SWAP2 SWAP1 POP JUMP JUMPDEST PUSH1 0x0 PUSH1 0x20 DUP3 ADD SWAP1 POP DUP2 DUP2 SUB PUSH1 0x0 DUP4 ADD MSTORE PUSH2 0x4FCB DUP2 PUSH2 0x493E JUMP JUMPDEST SWAP1 POP SWAP2 SWAP1 POP JUMP JUMPDEST PUSH1 0x0 PUSH1 0x20 DUP3 ADD SWAP1 POP DUP2 DUP2 SUB PUSH1 0x0 DUP4 ADD MSTORE PUSH2 0x4FEB DUP2 PUSH2 0x4961 JUMP JUMPDEST SWAP1 POP SWAP2 SWAP1 POP JUMP JUMPDEST PUSH1 0x0 PUSH1 0x20 DUP3 ADD SWAP1 POP DUP2 DUP2 SUB PUSH1 0x0 DUP4 ADD MSTORE PUSH2 0x500B DUP2 PUSH2 0x4984 JUMP JUMPDEST SWAP1 POP SWAP2 SWAP1 POP JUMP JUMPDEST PUSH1 0x0 PUSH1 0x20 DUP3 ADD SWAP1 POP DUP2 DUP2 SUB PUSH1 0x0 DUP4 ADD MSTORE PUSH2 0x502B DUP2 PUSH2 0x49A7 JUMP JUMPDEST SWAP1 POP SWAP2 SWAP1 POP JUMP JUMPDEST PUSH1 0x0 PUSH1 0x20 DUP3 ADD SWAP1 POP DUP2 DUP2 SUB PUSH1 0x0 DUP4 ADD MSTORE PUSH2 0x504B DUP2 PUSH2 0x49CA JUMP JUMPDEST SWAP1 POP SWAP2 SWAP1 POP JUMP JUMPDEST PUSH1 0x0 PUSH1 0x20 DUP3 ADD SWAP1 POP DUP2 DUP2 SUB PUSH1 0x0 DUP4 ADD MSTORE PUSH2 0x506B DUP2 PUSH2 0x49ED JUMP JUMPDEST SWAP1 POP SWAP2 SWAP1 POP JUMP JUMPDEST PUSH1 0x0 PUSH1 0x20 DUP3 ADD SWAP1 POP DUP2 DUP2 SUB PUSH1 0x0 DUP4 ADD MSTORE PUSH2 0x508B DUP2 PUSH2 0x4A10 JUMP JUMPDEST SWAP1 POP SWAP2 SWAP1 POP JUMP JUMPDEST PUSH1 0x0 PUSH1 0x20 DUP3 ADD SWAP1 POP DUP2 DUP2 SUB PUSH1 0x0 DUP4 ADD MSTORE PUSH2 0x50AB DUP2 PUSH2 0x4A33 JUMP JUMPDEST SWAP1 POP SWAP2 SWAP1 POP JUMP JUMPDEST PUSH1 0x0 PUSH1 0x20 DUP3 ADD SWAP1 POP DUP2 DUP2 SUB PUSH1 0x0 DUP4 ADD MSTORE PUSH2 0x50CB DUP2 PUSH2 0x4A56 JUMP JUMPDEST SWAP1 POP SWAP2 SWAP1 POP JUMP JUMPDEST PUSH1 0x0 PUSH1 0x20 DUP3 ADD SWAP1 POP DUP2 DUP2 SUB PUSH1 0x0 DUP4 ADD MSTORE PUSH2 0x50EB DUP2 PUSH2 0x4A79 JUMP JUMPDEST SWAP1 POP SWAP2 SWAP1 POP JUMP JUMPDEST PUSH1 0x0 PUSH1 0x20 DUP3 ADD SWAP1 POP DUP2 DUP2 SUB PUSH1 0x0 DUP4 ADD MSTORE PUSH2 0x510B DUP2 PUSH2 0x4A9C JUMP JUMPDEST SWAP1 POP SWAP2 SWAP1 POP JUMP JUMPDEST PUSH1 0x0 PUSH1 0x20 DUP3 ADD SWAP1 POP PUSH2 0x5127 PUSH1 0x0 DUP4 ADD DUP5 PUSH2 0x4ACE JUMP JUMPDEST SWAP3 SWAP2 POP POP JUMP JUMPDEST PUSH1 0x0 PUSH2 0x120 DUP3 ADD SWAP1 POP PUSH2 0x5143 PUSH1 0x0 DUP4 ADD DUP13 PUSH2 0x4ACE JUMP JUMPDEST PUSH2 0x5150 PUSH1 0x20 DUP4 ADD DUP12 PUSH2 0x44C6 JUMP JUMPDEST DUP2 DUP2 SUB PUSH1 0x40 DUP4 ADD MSTORE PUSH2 0x5162 DUP2 DUP11 PUSH2 0x44D5 JUMP JUMPDEST SWAP1 POP DUP2 DUP2 SUB PUSH1 0x60 DUP4 ADD MSTORE PUSH2 0x5176 DUP2 DUP10 PUSH2 0x461D JUMP JUMPDEST SWAP1 POP DUP2 DUP2 SUB PUSH1 0x80 DUP4 ADD MSTORE PUSH2 0x518A DUP2 DUP9 PUSH2 0x45A8 JUMP JUMPDEST SWAP1 POP DUP2 DUP2 SUB PUSH1 0xA0 DUP4 ADD MSTORE PUSH2 0x519E DUP2 DUP8 PUSH2 0x4533 JUMP JUMPDEST SWAP1 POP PUSH2 0x51AD PUSH1 0xC0 DUP4 ADD DUP7 PUSH2 0x4ADD JUMP JUMPDEST PUSH2 0x51BA PUSH1 0xE0 DUP4 ADD DUP6 PUSH2 0x4ADD JUMP JUMPDEST DUP2 DUP2 SUB PUSH2 0x100 DUP4 ADD MSTORE PUSH2 0x51CD DUP2 DUP5 PUSH2 0x47ED JUMP JUMPDEST SWAP1 POP SWAP11 SWAP10 POP POP POP POP POP POP POP POP POP POP JUMP JUMPDEST PUSH1 0x0 PUSH1 0x40 DUP3 ADD SWAP1 POP PUSH2 0x51F2 PUSH1 0x0 DUP4 ADD DUP6 PUSH2 0x4ACE JUMP JUMPDEST PUSH2 0x51FF PUSH1 0x20 DUP4 ADD DUP5 PUSH2 0x4ACE JUMP JUMPDEST SWAP4 SWAP3 POP POP POP JUMP JUMPDEST PUSH1 0x0 PUSH1 0x60 DUP3 ADD SWAP1 POP PUSH2 0x521B PUSH1 0x0 DUP4 ADD DUP7 PUSH2 0x4ACE JUMP JUMPDEST PUSH2 0x5228 PUSH1 0x20 DUP4 ADD DUP6 PUSH2 0x4ACE JUMP JUMPDEST PUSH2 0x5235 PUSH1 0x40 DUP4 ADD DUP5 PUSH2 0x4ACE JUMP JUMPDEST SWAP5 SWAP4 POP POP POP POP JUMP JUMPDEST PUSH1 0x0 PUSH1 0x80 DUP3 ADD SWAP1 POP PUSH2 0x5252 PUSH1 0x0 DUP4 ADD DUP8 PUSH2 0x4ACE JUMP JUMPDEST PUSH2 0x525F PUSH1 0x20 DUP4 ADD DUP7 PUSH2 0x4AEC JUMP JUMPDEST PUSH2 0x526C PUSH1 0x40 DUP4 ADD DUP6 PUSH2 0x4ACE JUMP JUMPDEST DUP2 DUP2 SUB PUSH1 0x60 DUP4 ADD MSTORE PUSH2 0x527E DUP2 DUP5 PUSH2 0x47ED JUMP JUMPDEST SWAP1 POP SWAP6 SWAP5 POP POP POP POP POP JUMP JUMPDEST PUSH1 0x0 PUSH1 0xA0 DUP3 ADD SWAP1 POP PUSH2 0x529E PUSH1 0x0 DUP4 ADD DUP9 PUSH2 0x4ACE JUMP JUMPDEST PUSH2 0x52AB PUSH1 0x20 DUP4 ADD DUP8 PUSH2 0x4AEC JUMP JUMPDEST PUSH2 0x52B8 PUSH1 0x40 DUP4 ADD DUP7 PUSH2 0x4ACE JUMP JUMPDEST DUP2 DUP2 SUB PUSH1 0x60 DUP4 ADD MSTORE PUSH2 0x52CA DUP2 DUP6 PUSH2 0x47ED JUMP JUMPDEST SWAP1 POP DUP2 DUP2 SUB PUSH1 0x80 DUP4 ADD MSTORE PUSH2 0x52DE DUP2 DUP5 PUSH2 0x471D JUMP JUMPDEST SWAP1 POP SWAP7 SWAP6 POP POP POP POP POP POP JUMP JUMPDEST PUSH1 0x0 PUSH2 0x52F4 PUSH2 0x5305 JUMP JUMPDEST SWAP1 POP PUSH2 0x5300 DUP3 DUP3 PUSH2 0x5852 JUMP JUMPDEST SWAP2 SWAP1 POP JUMP JUMPDEST PUSH1 0x0 PUSH1 0x40 MLOAD SWAP1 POP SWAP1 JUMP JUMPDEST PUSH1 0x0 PUSH8 0xFFFFFFFFFFFFFFFF DUP3 GT ISZERO PUSH2 0x532A JUMPI PUSH2 0x5329 PUSH2 0x5992 JUMP JUMPDEST JUMPDEST PUSH1 0x20 DUP3 MUL SWAP1 POP PUSH1 0x20 DUP2 ADD SWAP1 POP SWAP2 SWAP1 POP JUMP JUMPDEST PUSH1 0x0 PUSH8 0xFFFFFFFFFFFFFFFF DUP3 GT ISZERO PUSH2 0x5356 JUMPI PUSH2 0x5355 PUSH2 0x5992 JUMP JUMPDEST JUMPDEST PUSH1 0x20 DUP3 MUL SWAP1 POP PUSH1 0x20 DUP2 ADD SWAP1 POP SWAP2 SWAP1 POP JUMP JUMPDEST PUSH1 0x0 PUSH8 0xFFFFFFFFFFFFFFFF DUP3 GT ISZERO PUSH2 0x5382 JUMPI PUSH2 0x5381 PUSH2 0x5992 JUMP JUMPDEST JUMPDEST PUSH1 0x20 DUP3 MUL SWAP1 POP PUSH1 0x20 DUP2 ADD SWAP1 POP SWAP2 SWAP1 POP JUMP JUMPDEST PUSH1 0x0 PUSH8 0xFFFFFFFFFFFFFFFF DUP3 GT ISZERO PUSH2 0x53AE JUMPI PUSH2 0x53AD PUSH2 0x5992 JUMP JUMPDEST JUMPDEST PUSH2 0x53B7 DUP3 PUSH2 0x59C1 JUMP JUMPDEST SWAP1 POP PUSH1 0x20 DUP2 ADD SWAP1 POP SWAP2 SWAP1 POP JUMP JUMPDEST PUSH1 0x0 PUSH8 0xFFFFFFFFFFFFFFFF DUP3 GT ISZERO PUSH2 0x53DF JUMPI PUSH2 0x53DE PUSH2 0x5992 JUMP JUMPDEST JUMPDEST PUSH2 0x53E8 DUP3 PUSH2 0x59C1 JUMP JUMPDEST SWAP1 POP PUSH1 0x20 DUP2 ADD SWAP1 POP SWAP2 SWAP1 POP JUMP JUMPDEST PUSH1 0x0 DUP2 SWAP1 POP PUSH1 0x20 DUP3 ADD SWAP1 POP SWAP2 SWAP1 POP JUMP JUMPDEST PUSH1 0x0 DUP2 SWAP1 POP PUSH1 0x20 DUP3 ADD SWAP1 POP SWAP2 SWAP1 POP JUMP JUMPDEST PUSH1 0x0 DUP2 SWAP1 POP PUSH1 0x20 DUP3 ADD SWAP1 POP SWAP2 SWAP1 POP JUMP JUMPDEST PUSH1 0x0 DUP2 SWAP1 POP PUSH1 0x20 DUP3 ADD SWAP1 POP SWAP2 SWAP1 POP JUMP JUMPDEST PUSH1 0x0 DUP2 MLOAD SWAP1 POP SWAP2 SWAP1 POP JUMP JUMPDEST PUSH1 0x0 DUP2 MLOAD SWAP1 POP SWAP2 SWAP1 POP JUMP JUMPDEST PUSH1 0x0 DUP2 MLOAD SWAP1 POP SWAP2 SWAP1 POP JUMP JUMPDEST PUSH1 0x0 DUP2 MLOAD SWAP1 POP SWAP2 SWAP1 POP JUMP JUMPDEST PUSH1 0x0 DUP2 MLOAD SWAP1 POP SWAP2 SWAP1 POP JUMP JUMPDEST PUSH1 0x0 DUP2 MLOAD SWAP1 POP SWAP2 SWAP1 POP JUMP JUMPDEST PUSH1 0x0 PUSH1 0x20 DUP3 ADD SWAP1 POP SWAP2 SWAP1 POP JUMP JUMPDEST PUSH1 0x0 PUSH1 0x20 DUP3 ADD SWAP1 POP SWAP2 SWAP1 POP JUMP JUMPDEST PUSH1 0x0 PUSH1 0x20 DUP3 ADD SWAP1 POP SWAP2 SWAP1 POP JUMP JUMPDEST PUSH1 0x0 PUSH1 0x20 DUP3 ADD SWAP1 POP SWAP2 SWAP1 POP JUMP JUMPDEST PUSH1 0x0 DUP3 DUP3 MSTORE PUSH1 0x20 DUP3 ADD SWAP1 POP SWAP3 SWAP2 POP POP JUMP JUMPDEST PUSH1 0x0 DUP3 DUP3 MSTORE PUSH1 0x20 DUP3 ADD SWAP1 POP SWAP3 SWAP2 POP POP JUMP JUMPDEST PUSH1 0x0 DUP3 DUP3 MSTORE PUSH1 0x20 DUP3 ADD SWAP1 POP SWAP3 SWAP2 POP POP JUMP JUMPDEST PUSH1 0x0 DUP3 DUP3 MSTORE PUSH1 0x20 DUP3 ADD SWAP1 POP SWAP3 SWAP2 POP POP JUMP JUMPDEST PUSH1 0x0 DUP3 DUP3 MSTORE PUSH1 0x20 DUP3 ADD SWAP1 POP SWAP3 SWAP2 POP POP JUMP JUMPDEST PUSH1 0x0 DUP3 DUP3 MSTORE PUSH1 0x20 DUP3 ADD SWAP1 POP SWAP3 SWAP2 POP POP JUMP JUMPDEST PUSH1 0x0 DUP2 SWAP1 POP SWAP3 SWAP2 POP POP JUMP JUMPDEST PUSH1 0x0 DUP3 DUP3 MSTORE PUSH1 0x20 DUP3 ADD SWAP1 POP SWAP3 SWAP2 POP POP JUMP JUMPDEST PUSH1 0x0 DUP3 DUP3 MSTORE PUSH1 0x20 DUP3 ADD SWAP1 POP SWAP3 SWAP2 POP POP JUMP JUMPDEST PUSH1 0x0 DUP2 SWAP1 POP SWAP3 SWAP2 POP POP JUMP JUMPDEST PUSH1 0x0 PUSH2 0x5554 DUP3 PUSH2 0x5751 JUMP JUMPDEST SWAP2 POP PUSH2 0x555F DUP4 PUSH2 0x5751 JUMP JUMPDEST SWAP3 POP DUP3 PUSH32 0xFFFFFFFFFFFFFFFFFFFFFFFFFFFFFFFFFFFFFFFFFFFFFFFFFFFFFFFFFFFFFFFF SUB DUP3 GT ISZERO PUSH2 0x5594 JUMPI PUSH2 0x5593 PUSH2 0x58D6 JUMP JUMPDEST JUMPDEST DUP3 DUP3 ADD SWAP1 POP SWAP3 SWAP2 POP POP JUMP JUMPDEST PUSH1 0x0 PUSH2 0x55AA DUP3 PUSH2 0x575B JUMP JUMPDEST SWAP2 POP PUSH2 0x55B5 DUP4 PUSH2 0x575B JUMP JUMPDEST SWAP3 POP DUP3 PUSH8 0xFFFFFFFFFFFFFFFF SUB DUP3 GT ISZERO PUSH2 0x55D2 JUMPI PUSH2 0x55D1 PUSH2 0x58D6 JUMP JUMPDEST JUMPDEST DUP3 DUP3 ADD SWAP1 POP SWAP3 SWAP2 POP POP JUMP JUMPDEST PUSH1 0x0 PUSH2 0x55E8 DUP3 PUSH2 0x5751 JUMP JUMPDEST SWAP2 POP PUSH2 0x55F3 DUP4 PUSH2 0x5751 JUMP JUMPDEST SWAP3 POP DUP3 PUSH2 0x5603 JUMPI PUSH2 0x5602 PUSH2 0x5905 JUMP JUMPDEST JUMPDEST DUP3 DUP3 DIV SWAP1 POP SWAP3 SWAP2 POP POP JUMP JUMPDEST PUSH1 0x0 PUSH2 0x5619 DUP3 PUSH2 0x5751 JUMP JUMPDEST SWAP2 POP PUSH2 0x5624 DUP4 PUSH2 0x5751 JUMP JUMPDEST SWAP3 POP DUP2 PUSH32 0xFFFFFFFFFFFFFFFFFFFFFFFFFFFFFFFFFFFFFFFFFFFFFFFFFFFFFFFFFFFFFFFF DIV DUP4 GT DUP3 ISZERO ISZERO AND ISZERO PUSH2 0x565D JUMPI PUSH2 0x565C PUSH2 0x58D6 JUMP JUMPDEST JUMPDEST DUP3 DUP3 MUL SWAP1 POP SWAP3 SWAP2 POP POP JUMP JUMPDEST PUSH1 0x0 PUSH2 0x5673 DUP3 PUSH2 0x5751 JUMP JUMPDEST SWAP2 POP PUSH2 0x567E DUP4 PUSH2 0x5751 JUMP JUMPDEST SWAP3 POP DUP3 DUP3 LT ISZERO PUSH2 0x5691 JUMPI PUSH2 0x5690 PUSH2 0x58D6 JUMP JUMPDEST JUMPDEST DUP3 DUP3 SUB SWAP1 POP SWAP3 SWAP2 POP POP JUMP JUMPDEST PUSH1 0x0 PUSH2 0x56A7 DUP3 PUSH2 0x5731 JUMP JUMPDEST SWAP1 POP SWAP2 SWAP1 POP JUMP JUMPDEST PUSH1 0x0 PUSH2 0x56B9 DUP3 PUSH2 0x5731 JUMP JUMPDEST SWAP1 POP SWAP2 SWAP1 POP JUMP JUMPDEST PUSH1 0x0 DUP2 ISZERO ISZERO SWAP1 POP SWAP2 SWAP1 POP JUMP JUMPDEST PUSH1 0x0 DUP2 SWAP1 POP SWAP2 SWAP1 POP JUMP JUMPDEST PUSH1 0x0 PUSH32 0xFFFFFFFF00000000000000000000000000000000000000000000000000000000 DUP3 AND SWAP1 POP SWAP2 SWAP1 POP JUMP JUMPDEST PUSH1 0x0 PUSH2 0x570D DUP3 PUSH2 0x56AE JUMP JUMPDEST SWAP1 POP SWAP2 SWAP1 POP JUMP JUMPDEST PUSH1 0x0 DUP2 SWAP1 POP PUSH2 0x5722 DUP3 PUSH2 0x5ED8 JUMP JUMPDEST SWAP2 SWAP1 POP JUMP JUMPDEST PUSH1 0x0 DUP2 SWAP1 POP SWAP2 SWAP1 POP JUMP JUMPDEST PUSH1 0x0 PUSH20 0xFFFFFFFFFFFFFFFFFFFFFFFFFFFFFFFFFFFFFFFF DUP3 AND SWAP1 POP SWAP2 SWAP1 POP JUMP JUMPDEST PUSH1 0x0 DUP2 SWAP1 POP SWAP2 SWAP1 POP JUMP JUMPDEST PUSH1 0x0 PUSH8 0xFFFFFFFFFFFFFFFF DUP3 AND SWAP1 POP SWAP2 SWAP1 POP JUMP JUMPDEST PUSH1 0x0 PUSH1 0xFF DUP3 AND SWAP1 POP SWAP2 SWAP1 POP JUMP JUMPDEST PUSH1 0x0 PUSH2 0x5787 DUP3 PUSH2 0x578E JUMP JUMPDEST SWAP1 POP SWAP2 SWAP1 POP JUMP JUMPDEST PUSH1 0x0 PUSH2 0x5799 DUP3 PUSH2 0x5731 JUMP JUMPDEST SWAP1 POP SWAP2 SWAP1 POP JUMP JUMPDEST PUSH1 0x0 PUSH2 0x57AB DUP3 PUSH2 0x5714 JUMP JUMPDEST SWAP1 POP SWAP2 SWAP1 POP JUMP JUMPDEST PUSH1 0x0 PUSH2 0x57C5 PUSH2 0x57C0 DUP4 PUSH2 0x5727 JUMP JUMPDEST PUSH2 0x59D2 JUMP JUMPDEST SWAP1 POP SWAP2 SWAP1 POP JUMP JUMPDEST PUSH1 0x0 PUSH2 0x57D7 DUP3 PUSH2 0x575B JUMP JUMPDEST SWAP1 POP SWAP2 SWAP1 POP JUMP JUMPDEST DUP3 DUP2 DUP4 CALLDATACOPY PUSH1 0x0 DUP4 DUP4 ADD MSTORE POP POP POP JUMP JUMPDEST PUSH1 0x0 JUMPDEST DUP4 DUP2 LT ISZERO PUSH2 0x580B JUMPI DUP1 DUP3 ADD MLOAD DUP2 DUP5 ADD MSTORE PUSH1 0x20 DUP2 ADD SWAP1 POP PUSH2 0x57F0 JUMP JUMPDEST DUP4 DUP2 GT ISZERO PUSH2 0x581A JUMPI PUSH1 0x0 DUP5 DUP5 ADD MSTORE JUMPDEST POP POP POP POP JUMP JUMPDEST PUSH1 0x0 PUSH1 0x2 DUP3 DIV SWAP1 POP PUSH1 0x1 DUP3 AND DUP1 PUSH2 0x5838 JUMPI PUSH1 0x7F DUP3 AND SWAP2 POP JUMPDEST PUSH1 0x20 DUP3 LT DUP2 EQ ISZERO PUSH2 0x584C JUMPI PUSH2 0x584B PUSH2 0x5963 JUMP JUMPDEST JUMPDEST POP SWAP2 SWAP1 POP JUMP JUMPDEST PUSH2 0x585B DUP3 PUSH2 0x59C1 JUMP JUMPDEST DUP2 ADD DUP2 DUP2 LT PUSH8 0xFFFFFFFFFFFFFFFF DUP3 GT OR ISZERO PUSH2 0x587A JUMPI PUSH2 0x5879 PUSH2 0x5992 JUMP JUMPDEST JUMPDEST DUP1 PUSH1 0x40 MSTORE POP POP POP JUMP JUMPDEST PUSH1 0x0 PUSH2 0x588E DUP3 PUSH2 0x5751 JUMP JUMPDEST SWAP2 POP PUSH32 0xFFFFFFFFFFFFFFFFFFFFFFFFFFFFFFFFFFFFFFFFFFFFFFFFFFFFFFFFFFFFFFFF DUP3 EQ ISZERO PUSH2 0x58C1 JUMPI PUSH2 0x58C0 PUSH2 0x58D6 JUMP JUMPDEST JUMPDEST PUSH1 0x1 DUP3 ADD SWAP1 POP SWAP2 SWAP1 POP JUMP JUMPDEST PUSH1 0x0 DUP2 SWAP1 POP SWAP2 SWAP1 POP JUMP JUMPDEST PUSH32 0x4E487B7100000000000000000000000000000000000000000000000000000000 PUSH1 0x0 MSTORE PUSH1 0x11 PUSH1 0x4 MSTORE PUSH1 0x24 PUSH1 0x0 REVERT JUMPDEST PUSH32 0x4E487B7100000000000000000000000000000000000000000000000000000000 PUSH1 0x0 MSTORE PUSH1 0x12 PUSH1 0x4 MSTORE PUSH1 0x24 PUSH1 0x0 REVERT JUMPDEST PUSH32 0x4E487B7100000000000000000000000000000000000000000000000000000000 PUSH1 0x0 MSTORE PUSH1 0x21 PUSH1 0x4 MSTORE PUSH1 0x24 PUSH1 0x0 REVERT JUMPDEST PUSH32 0x4E487B7100000000000000000000000000000000000000000000000000000000 PUSH1 0x0 MSTORE PUSH1 0x22 PUSH1 0x4 MSTORE PUSH1 0x24 PUSH1 0x0 REVERT JUMPDEST PUSH32 0x4E487B7100000000000000000000000000000000000000000000000000000000 PUSH1 0x0 MSTORE PUSH1 0x41 PUSH1 0x4 MSTORE PUSH1 0x24 PUSH1 0x0 REVERT JUMPDEST PUSH1 0x0 PUSH1 0x1F NOT PUSH1 0x1F DUP4 ADD AND SWAP1 POP SWAP2 SWAP1 POP JUMP JUMPDEST PUSH1 0x0 DUP2 PUSH1 0x0 SHL SWAP1 POP SWAP2 SWAP1 POP JUMP JUMPDEST PUSH32 0x45434453413A20696E76616C6964207369676E61747572650000000000000000 PUSH1 0x0 DUP3 ADD MSTORE POP JUMP JUMPDEST PUSH32 0x476F7665726E6F723A206F6E6C79476F7665726E616E63650000000000000000 PUSH1 0x0 DUP3 ADD MSTORE POP JUMP JUMPDEST PUSH32 0x476F7665726E6F72566F74657351756F72756D4672616374696F6E3A2071756F PUSH1 0x0 DUP3 ADD MSTORE PUSH32 0x72756D4E756D657261746F72206F7665722071756F72756D44656E6F6D696E61 PUSH1 0x20 DUP3 ADD MSTORE PUSH32 0x746F720000000000000000000000000000000000000000000000000000000000 PUSH1 0x40 DUP3 ADD MSTORE POP JUMP JUMPDEST PUSH32 0x45434453413A20696E76616C6964207369676E6174757265206C656E67746800 PUSH1 0x0 DUP3 ADD MSTORE POP JUMP JUMPDEST PUSH32 0x1901000000000000000000000000000000000000000000000000000000000000 PUSH1 0x0 DUP3 ADD MSTORE POP JUMP JUMPDEST PUSH32 0x476F7665726E6F723A20696E76616C69642070726F706F73616C206C656E6774 PUSH1 0x0 DUP3 ADD MSTORE PUSH32 0x6800000000000000000000000000000000000000000000000000000000000000 PUSH1 0x20 DUP3 ADD MSTORE POP JUMP JUMPDEST PUSH32 0x45434453413A20696E76616C6964207369676E6174757265202773272076616C PUSH1 0x0 DUP3 ADD MSTORE PUSH32 0x7565000000000000000000000000000000000000000000000000000000000000 PUSH1 0x20 DUP3 ADD MSTORE POP JUMP JUMPDEST PUSH32 0x476F7665726E6F72566F74696E6753696D706C653A20766F746520616C726561 PUSH1 0x0 DUP3 ADD MSTORE PUSH32 0x6479206361737400000000000000000000000000000000000000000000000000 PUSH1 0x20 DUP3 ADD MSTORE POP JUMP JUMPDEST PUSH32 0x416464726573733A20696E73756666696369656E742062616C616E636520666F PUSH1 0x0 DUP3 ADD MSTORE PUSH32 0x722063616C6C0000000000000000000000000000000000000000000000000000 PUSH1 0x20 DUP3 ADD MSTORE POP JUMP JUMPDEST PUSH32 0x476F7665726E6F723A20766F7465206E6F742063757272656E746C7920616374 PUSH1 0x0 DUP3 ADD MSTORE PUSH32 0x6976650000000000000000000000000000000000000000000000000000000000 PUSH1 0x20 DUP3 ADD MSTORE POP JUMP JUMPDEST PUSH32 0x476F7665726E6F723A20656D7074792070726F706F73616C0000000000000000 PUSH1 0x0 DUP3 ADD MSTORE POP JUMP JUMPDEST PUSH32 0x45434453413A20696E76616C6964207369676E6174757265202776272076616C PUSH1 0x0 DUP3 ADD MSTORE PUSH32 0x7565000000000000000000000000000000000000000000000000000000000000 PUSH1 0x20 DUP3 ADD MSTORE POP JUMP JUMPDEST PUSH32 0x53616665436173743A2076616C756520646F65736E27742066697420696E2036 PUSH1 0x0 DUP3 ADD MSTORE PUSH32 0x3420626974730000000000000000000000000000000000000000000000000000 PUSH1 0x20 DUP3 ADD MSTORE POP JUMP JUMPDEST PUSH32 0x476F7665726E6F723A2070726F706F73616C206E6F7420737563636573736675 PUSH1 0x0 DUP3 ADD MSTORE PUSH32 0x6C00000000000000000000000000000000000000000000000000000000000000 PUSH1 0x20 DUP3 ADD MSTORE POP JUMP JUMPDEST PUSH32 0x476F7665726E6F723A20756E6B6E6F776E2070726F706F73616C206964000000 PUSH1 0x0 DUP3 ADD MSTORE POP JUMP JUMPDEST PUSH32 0x476F7665726E6F72566F74696E6753696D706C653A20696E76616C6964207661 PUSH1 0x0 DUP3 ADD MSTORE PUSH32 0x6C756520666F7220656E756D20566F7465547970650000000000000000000000 PUSH1 0x20 DUP3 ADD MSTORE POP JUMP JUMPDEST PUSH32 0x476F7665726E6F723A2070726F706F73616C20616C7265616479206578697374 PUSH1 0x0 DUP3 ADD MSTORE PUSH32 0x7300000000000000000000000000000000000000000000000000000000000000 PUSH1 0x20 DUP3 ADD MSTORE POP JUMP JUMPDEST PUSH32 0x416464726573733A2063616C6C20746F206E6F6E2D636F6E7472616374000000 PUSH1 0x0 DUP3 ADD MSTORE POP JUMP JUMPDEST PUSH32 0x476F7665726E6F723A2070726F706F73657220766F7465732062656C6F772070 PUSH1 0x0 DUP3 ADD MSTORE PUSH32 0x726F706F73616C207468726573686F6C64000000000000000000000000000000 PUSH1 0x20 DUP3 ADD MSTORE POP JUMP JUMPDEST PUSH1 0x8 DUP2 LT PUSH2 0x5EE9 JUMPI PUSH2 0x5EE8 PUSH2 0x5934 JUMP JUMPDEST JUMPDEST POP JUMP JUMPDEST PUSH2 0x5EF5 DUP2 PUSH2 0x569C JUMP JUMPDEST DUP2 EQ PUSH2 0x5F00 JUMPI PUSH1 0x0 DUP1 REVERT JUMPDEST POP JUMP JUMPDEST PUSH2 0x5F0C DUP2 PUSH2 0x56C0 JUMP JUMPDEST DUP2 EQ PUSH2 0x5F17 JUMPI PUSH1 0x0 DUP1 REVERT JUMPDEST POP JUMP JUMPDEST PUSH2 0x5F23 DUP2 PUSH2 0x56CC JUMP JUMPDEST DUP2 EQ PUSH2 0x5F2E JUMPI PUSH1 0x0 DUP1 REVERT JUMPDEST POP JUMP JUMPDEST PUSH2 0x5F3A DUP2 PUSH2 0x56D6 JUMP JUMPDEST DUP2 EQ PUSH2 0x5F45 JUMPI PUSH1 0x0 DUP1 REVERT JUMPDEST POP JUMP JUMPDEST PUSH2 0x5F51 DUP2 PUSH2 0x5702 JUMP JUMPDEST DUP2 EQ PUSH2 0x5F5C JUMPI PUSH1 0x0 DUP1 REVERT JUMPDEST POP JUMP JUMPDEST PUSH2 0x5F68 DUP2 PUSH2 0x5751 JUMP JUMPDEST DUP2 EQ PUSH2 0x5F73 JUMPI PUSH1 0x0 DUP1 REVERT JUMPDEST POP JUMP JUMPDEST PUSH2 0x5F7F DUP2 PUSH2 0x576F JUMP JUMPDEST DUP2 EQ PUSH2 0x5F8A JUMPI PUSH1 0x0 DUP1 REVERT JUMPDEST POP JUMP INVALID COINBASE PUSH5 0x6472657373 GASPRICE KECCAK256 PUSH13 0x6F772D6C6576656C2063616C6C KECCAK256 PUSH24 0x6974682076616C7565206661696C6564A264697066735822 SLT KECCAK256 CALLER PUSH5 0xFE093D1841 SELFBALANCE 0xE9 0xB5 LOG2 0xDE SAR PUSH26 0xF186EFDCD07DA225BF7E89E78D9C2B38172E64736F6C63430008 DIV STOP CALLER "
		},
		"gasEstimates": {
			"creation": {
				"codeDepositCost": "4911200",
				"executionCost": "infinite",
				"totalCost": "infinite"
			},
			"external": {
				"BALLOT_TYPEHASH()": "373",
				"COUNTING_MODE()": "infinite",
				"EXTENDED_BALLOT_TYPEHASH()": "397",
				"castVote(uint256,uint8)": "infinite",
				"castVoteBySig(uint256,uint8,uint8,bytes32,bytes32)": "infinite",
				"castVoteWithReason(uint256,uint8,string)": "infinite",
				"castVoteWithReasonAndParams(uint256,uint8,string,bytes)": "infinite",
				"castVoteWithReasonAndParamsBySig(uint256,uint8,string,bytes,uint8,bytes32,bytes32)": "infinite",
				"execute(address[],uint256[],bytes[],bytes32)": "infinite",
				"getVotes(address,uint256)": "infinite",
				"getVotesWithParams(address,uint256,bytes)": "infinite",
				"hasVoted(uint256,address)": "1885",
				"hashProposal(address[],uint256[],bytes[],bytes32)": "infinite",
				"name()": "infinite",
				"onERC1155BatchReceived(address,address,uint256[],uint256[],bytes)": "infinite",
				"onERC1155Received(address,address,uint256,uint256,bytes)": "infinite",
				"onERC721Received(address,address,uint256,bytes)": "infinite",
				"proposalDeadline(uint256)": "infinite",
				"proposalEta(uint256)": "infinite",
				"proposalSnapshot(uint256)": "infinite",
				"proposalThreshold()": "440",
				"proposalVotes(uint256)": "infinite",
				"propose(address[],uint256[],bytes[],string)": "infinite",
				"queue(address[],uint256[],bytes[],bytes32)": "infinite",
				"quorum(uint256)": "infinite",
				"quorumDenominator()": "449",
				"quorumNumerator()": "1182",
				"relay(address,uint256,bytes)": "infinite",
				"s_votingDelay()": "1197",
				"s_votingPeriod()": "1175",
				"state(uint256)": "infinite",
				"supportsInterface(bytes4)": "1034",
				"timelock()": "1333",
				"token()": "infinite",
				"updateQuorumNumerator(uint256)": "infinite",
				"updateTimelock(address)": "infinite",
				"version()": "infinite",
				"votingDelay()": "1227",
				"votingPeriod()": "1206"
			},
			"internal": {
				"_cancel(address[] memory,uint256[] memory,bytes memory[] memory,bytes32)": "infinite",
				"_execute(uint256,address[] memory,uint256[] memory,bytes memory[] memory,bytes32)": "infinite",
				"_executor()": "894"
			}
		},
		"methodIdentifiers": {
			"BALLOT_TYPEHASH()": "deaaa7cc",
			"COUNTING_MODE()": "dd4e2ba5",
			"EXTENDED_BALLOT_TYPEHASH()": "2fe3e261",
			"castVote(uint256,uint8)": "56781388",
			"castVoteBySig(uint256,uint8,uint8,bytes32,bytes32)": "3bccf4fd",
			"castVoteWithReason(uint256,uint8,string)": "7b3c71d3",
			"castVoteWithReasonAndParams(uint256,uint8,string,bytes)": "5f398a14",
			"castVoteWithReasonAndParamsBySig(uint256,uint8,string,bytes,uint8,bytes32,bytes32)": "03420181",
			"execute(address[],uint256[],bytes[],bytes32)": "2656227d",
			"getVotes(address,uint256)": "eb9019d4",
			"getVotesWithParams(address,uint256,bytes)": "9a802a6d",
			"hasVoted(uint256,address)": "43859632",
			"hashProposal(address[],uint256[],bytes[],bytes32)": "c59057e4",
			"name()": "06fdde03",
			"onERC1155BatchReceived(address,address,uint256[],uint256[],bytes)": "bc197c81",
			"onERC1155Received(address,address,uint256,uint256,bytes)": "f23a6e61",
			"onERC721Received(address,address,uint256,bytes)": "150b7a02",
			"proposalDeadline(uint256)": "c01f9e37",
			"proposalEta(uint256)": "ab58fb8e",
			"proposalSnapshot(uint256)": "2d63f693",
			"proposalThreshold()": "b58131b0",
			"proposalVotes(uint256)": "544ffc9c",
			"propose(address[],uint256[],bytes[],string)": "7d5e81e2",
			"queue(address[],uint256[],bytes[],bytes32)": "160cbed7",
			"quorum(uint256)": "f8ce560a",
			"quorumDenominator()": "97c3d334",
			"quorumNumerator()": "a7713a70",
			"relay(address,uint256,bytes)": "c28bc2fa",
			"s_votingDelay()": "102d7f2c",
			"s_votingPeriod()": "725ae3dc",
			"state(uint256)": "3e4f49e6",
			"supportsInterface(bytes4)": "01ffc9a7",
			"timelock()": "d33219b4",
			"token()": "fc0c546a",
			"updateQuorumNumerator(uint256)": "06f3f9e6",
			"updateTimelock(address)": "a890c910",
			"version()": "54fd4d50",
			"votingDelay()": "3932abb1",
			"votingPeriod()": "02a251a3"
		}
	},
	"abi": [
		{
			"inputs": [
				{
					"internalType": "contract IVotes",
					"name": "_token",
					"type": "address"
				},
				{
					"internalType": "contract TimelockController",
					"name": "_timelock",
					"type": "address"
				},
				{
					"internalType": "uint256",
					"name": "_quorumPercentage",
					"type": "uint256"
				},
				{
					"internalType": "uint256",
					"name": "_votingPeriod",
					"type": "uint256"
				},
				{
					"internalType": "uint256",
					"name": "_votingDelay",
					"type": "uint256"
				}
			],
			"stateMutability": "nonpayable",
			"type": "constructor"
		},
		{
			"inputs": [],
			"name": "Empty",
			"type": "error"
		},
		{
			"anonymous": false,
			"inputs": [
				{
					"indexed": false,
					"internalType": "uint256",
					"name": "proposalId",
					"type": "uint256"
				}
			],
			"name": "ProposalCanceled",
			"type": "event"
		},
		{
			"anonymous": false,
			"inputs": [
				{
					"indexed": false,
					"internalType": "uint256",
					"name": "proposalId",
					"type": "uint256"
				},
				{
					"indexed": false,
					"internalType": "address",
					"name": "proposer",
					"type": "address"
				},
				{
					"indexed": false,
					"internalType": "address[]",
					"name": "targets",
					"type": "address[]"
				},
				{
					"indexed": false,
					"internalType": "uint256[]",
					"name": "values",
					"type": "uint256[]"
				},
				{
					"indexed": false,
					"internalType": "string[]",
					"name": "signatures",
					"type": "string[]"
				},
				{
					"indexed": false,
					"internalType": "bytes[]",
					"name": "calldatas",
					"type": "bytes[]"
				},
				{
					"indexed": false,
					"internalType": "uint256",
					"name": "startBlock",
					"type": "uint256"
				},
				{
					"indexed": false,
					"internalType": "uint256",
					"name": "endBlock",
					"type": "uint256"
				},
				{
					"indexed": false,
					"internalType": "string",
					"name": "description",
					"type": "string"
				}
			],
			"name": "ProposalCreated",
			"type": "event"
		},
		{
			"anonymous": false,
			"inputs": [
				{
					"indexed": false,
					"internalType": "uint256",
					"name": "proposalId",
					"type": "uint256"
				}
			],
			"name": "ProposalExecuted",
			"type": "event"
		},
		{
			"anonymous": false,
			"inputs": [
				{
					"indexed": false,
					"internalType": "uint256",
					"name": "proposalId",
					"type": "uint256"
				},
				{
					"indexed": false,
					"internalType": "uint256",
					"name": "eta",
					"type": "uint256"
				}
			],
			"name": "ProposalQueued",
			"type": "event"
		},
		{
			"anonymous": false,
			"inputs": [
				{
					"indexed": false,
					"internalType": "uint256",
					"name": "oldQuorumNumerator",
					"type": "uint256"
				},
				{
					"indexed": false,
					"internalType": "uint256",
					"name": "newQuorumNumerator",
					"type": "uint256"
				}
			],
			"name": "QuorumNumeratorUpdated",
			"type": "event"
		},
		{
			"anonymous": false,
			"inputs": [
				{
					"indexed": false,
					"internalType": "address",
					"name": "oldTimelock",
					"type": "address"
				},
				{
					"indexed": false,
					"internalType": "address",
					"name": "newTimelock",
					"type": "address"
				}
			],
			"name": "TimelockChange",
			"type": "event"
		},
		{
			"anonymous": false,
			"inputs": [
				{
					"indexed": true,
					"internalType": "address",
					"name": "voter",
					"type": "address"
				},
				{
					"indexed": false,
					"internalType": "uint256",
					"name": "proposalId",
					"type": "uint256"
				},
				{
					"indexed": false,
					"internalType": "uint8",
					"name": "support",
					"type": "uint8"
				},
				{
					"indexed": false,
					"internalType": "uint256",
					"name": "weight",
					"type": "uint256"
				},
				{
					"indexed": false,
					"internalType": "string",
					"name": "reason",
					"type": "string"
				}
			],
			"name": "VoteCast",
			"type": "event"
		},
		{
			"anonymous": false,
			"inputs": [
				{
					"indexed": true,
					"internalType": "address",
					"name": "voter",
					"type": "address"
				},
				{
					"indexed": false,
					"internalType": "uint256",
					"name": "proposalId",
					"type": "uint256"
				},
				{
					"indexed": false,
					"internalType": "uint8",
					"name": "support",
					"type": "uint8"
				},
				{
					"indexed": false,
					"internalType": "uint256",
					"name": "weight",
					"type": "uint256"
				},
				{
					"indexed": false,
					"internalType": "string",
					"name": "reason",
					"type": "string"
				},
				{
					"indexed": false,
					"internalType": "bytes",
					"name": "params",
					"type": "bytes"
				}
			],
			"name": "VoteCastWithParams",
			"type": "event"
		},
		{
			"inputs": [],
			"name": "BALLOT_TYPEHASH",
			"outputs": [
				{
					"internalType": "bytes32",
					"name": "",
					"type": "bytes32"
				}
			],
			"stateMutability": "view",
			"type": "function"
		},
		{
			"inputs": [],
			"name": "COUNTING_MODE",
			"outputs": [
				{
					"internalType": "string",
					"name": "",
					"type": "string"
				}
			],
			"stateMutability": "pure",
			"type": "function"
		},
		{
			"inputs": [],
			"name": "EXTENDED_BALLOT_TYPEHASH",
			"outputs": [
				{
					"internalType": "bytes32",
					"name": "",
					"type": "bytes32"
				}
			],
			"stateMutability": "view",
			"type": "function"
		},
		{
			"inputs": [
				{
					"internalType": "uint256",
					"name": "proposalId",
					"type": "uint256"
				},
				{
					"internalType": "uint8",
					"name": "support",
					"type": "uint8"
				}
			],
			"name": "castVote",
			"outputs": [
				{
					"internalType": "uint256",
					"name": "",
					"type": "uint256"
				}
			],
			"stateMutability": "nonpayable",
			"type": "function"
		},
		{
			"inputs": [
				{
					"internalType": "uint256",
					"name": "proposalId",
					"type": "uint256"
				},
				{
					"internalType": "uint8",
					"name": "support",
					"type": "uint8"
				},
				{
					"internalType": "uint8",
					"name": "v",
					"type": "uint8"
				},
				{
					"internalType": "bytes32",
					"name": "r",
					"type": "bytes32"
				},
				{
					"internalType": "bytes32",
					"name": "s",
					"type": "bytes32"
				}
			],
			"name": "castVoteBySig",
			"outputs": [
				{
					"internalType": "uint256",
					"name": "",
					"type": "uint256"
				}
			],
			"stateMutability": "nonpayable",
			"type": "function"
		},
		{
			"inputs": [
				{
					"internalType": "uint256",
					"name": "proposalId",
					"type": "uint256"
				},
				{
					"internalType": "uint8",
					"name": "support",
					"type": "uint8"
				},
				{
					"internalType": "string",
					"name": "reason",
					"type": "string"
				}
			],
			"name": "castVoteWithReason",
			"outputs": [
				{
					"internalType": "uint256",
					"name": "",
					"type": "uint256"
				}
			],
			"stateMutability": "nonpayable",
			"type": "function"
		},
		{
			"inputs": [
				{
					"internalType": "uint256",
					"name": "proposalId",
					"type": "uint256"
				},
				{
					"internalType": "uint8",
					"name": "support",
					"type": "uint8"
				},
				{
					"internalType": "string",
					"name": "reason",
					"type": "string"
				},
				{
					"internalType": "bytes",
					"name": "params",
					"type": "bytes"
				}
			],
			"name": "castVoteWithReasonAndParams",
			"outputs": [
				{
					"internalType": "uint256",
					"name": "",
					"type": "uint256"
				}
			],
			"stateMutability": "nonpayable",
			"type": "function"
		},
		{
			"inputs": [
				{
					"internalType": "uint256",
					"name": "proposalId",
					"type": "uint256"
				},
				{
					"internalType": "uint8",
					"name": "support",
					"type": "uint8"
				},
				{
					"internalType": "string",
					"name": "reason",
					"type": "string"
				},
				{
					"internalType": "bytes",
					"name": "params",
					"type": "bytes"
				},
				{
					"internalType": "uint8",
					"name": "v",
					"type": "uint8"
				},
				{
					"internalType": "bytes32",
					"name": "r",
					"type": "bytes32"
				},
				{
					"internalType": "bytes32",
					"name": "s",
					"type": "bytes32"
				}
			],
			"name": "castVoteWithReasonAndParamsBySig",
			"outputs": [
				{
					"internalType": "uint256",
					"name": "",
					"type": "uint256"
				}
			],
			"stateMutability": "nonpayable",
			"type": "function"
		},
		{
			"inputs": [
				{
					"internalType": "address[]",
					"name": "targets",
					"type": "address[]"
				},
				{
					"internalType": "uint256[]",
					"name": "values",
					"type": "uint256[]"
				},
				{
					"internalType": "bytes[]",
					"name": "calldatas",
					"type": "bytes[]"
				},
				{
					"internalType": "bytes32",
					"name": "descriptionHash",
					"type": "bytes32"
				}
			],
			"name": "execute",
			"outputs": [
				{
					"internalType": "uint256",
					"name": "",
					"type": "uint256"
				}
			],
			"stateMutability": "payable",
			"type": "function"
		},
		{
			"inputs": [
				{
					"internalType": "address",
					"name": "account",
					"type": "address"
				},
				{
					"internalType": "uint256",
					"name": "blockNumber",
					"type": "uint256"
				}
			],
			"name": "getVotes",
			"outputs": [
				{
					"internalType": "uint256",
					"name": "",
					"type": "uint256"
				}
			],
			"stateMutability": "view",
			"type": "function"
		},
		{
			"inputs": [
				{
					"internalType": "address",
					"name": "account",
					"type": "address"
				},
				{
					"internalType": "uint256",
					"name": "blockNumber",
					"type": "uint256"
				},
				{
					"internalType": "bytes",
					"name": "params",
					"type": "bytes"
				}
			],
			"name": "getVotesWithParams",
			"outputs": [
				{
					"internalType": "uint256",
					"name": "",
					"type": "uint256"
				}
			],
			"stateMutability": "view",
			"type": "function"
		},
		{
			"inputs": [
				{
					"internalType": "uint256",
					"name": "proposalId",
					"type": "uint256"
				},
				{
					"internalType": "address",
					"name": "account",
					"type": "address"
				}
			],
			"name": "hasVoted",
			"outputs": [
				{
					"internalType": "bool",
					"name": "",
					"type": "bool"
				}
			],
			"stateMutability": "view",
			"type": "function"
		},
		{
			"inputs": [
				{
					"internalType": "address[]",
					"name": "targets",
					"type": "address[]"
				},
				{
					"internalType": "uint256[]",
					"name": "values",
					"type": "uint256[]"
				},
				{
					"internalType": "bytes[]",
					"name": "calldatas",
					"type": "bytes[]"
				},
				{
					"internalType": "bytes32",
					"name": "descriptionHash",
					"type": "bytes32"
				}
			],
			"name": "hashProposal",
			"outputs": [
				{
					"internalType": "uint256",
					"name": "",
					"type": "uint256"
				}
			],
			"stateMutability": "pure",
			"type": "function"
		},
		{
			"inputs": [],
			"name": "name",
			"outputs": [
				{
					"internalType": "string",
					"name": "",
					"type": "string"
				}
			],
			"stateMutability": "view",
			"type": "function"
		},
		{
			"inputs": [
				{
					"internalType": "address",
					"name": "",
					"type": "address"
				},
				{
					"internalType": "address",
					"name": "",
					"type": "address"
				},
				{
					"internalType": "uint256[]",
					"name": "",
					"type": "uint256[]"
				},
				{
					"internalType": "uint256[]",
					"name": "",
					"type": "uint256[]"
				},
				{
					"internalType": "bytes",
					"name": "",
					"type": "bytes"
				}
			],
			"name": "onERC1155BatchReceived",
			"outputs": [
				{
					"internalType": "bytes4",
					"name": "",
					"type": "bytes4"
				}
			],
			"stateMutability": "nonpayable",
			"type": "function"
		},
		{
			"inputs": [
				{
					"internalType": "address",
					"name": "",
					"type": "address"
				},
				{
					"internalType": "address",
					"name": "",
					"type": "address"
				},
				{
					"internalType": "uint256",
					"name": "",
					"type": "uint256"
				},
				{
					"internalType": "uint256",
					"name": "",
					"type": "uint256"
				},
				{
					"internalType": "bytes",
					"name": "",
					"type": "bytes"
				}
			],
			"name": "onERC1155Received",
			"outputs": [
				{
					"internalType": "bytes4",
					"name": "",
					"type": "bytes4"
				}
			],
			"stateMutability": "nonpayable",
			"type": "function"
		},
		{
			"inputs": [
				{
					"internalType": "address",
					"name": "",
					"type": "address"
				},
				{
					"internalType": "address",
					"name": "",
					"type": "address"
				},
				{
					"internalType": "uint256",
					"name": "",
					"type": "uint256"
				},
				{
					"internalType": "bytes",
					"name": "",
					"type": "bytes"
				}
			],
			"name": "onERC721Received",
			"outputs": [
				{
					"internalType": "bytes4",
					"name": "",
					"type": "bytes4"
				}
			],
			"stateMutability": "nonpayable",
			"type": "function"
		},
		{
			"inputs": [
				{
					"internalType": "uint256",
					"name": "proposalId",
					"type": "uint256"
				}
			],
			"name": "proposalDeadline",
			"outputs": [
				{
					"internalType": "uint256",
					"name": "",
					"type": "uint256"
				}
			],
			"stateMutability": "view",
			"type": "function"
		},
		{
			"inputs": [
				{
					"internalType": "uint256",
					"name": "proposalId",
					"type": "uint256"
				}
			],
			"name": "proposalEta",
			"outputs": [
				{
					"internalType": "uint256",
					"name": "",
					"type": "uint256"
				}
			],
			"stateMutability": "view",
			"type": "function"
		},
		{
			"inputs": [
				{
					"internalType": "uint256",
					"name": "proposalId",
					"type": "uint256"
				}
			],
			"name": "proposalSnapshot",
			"outputs": [
				{
					"internalType": "uint256",
					"name": "",
					"type": "uint256"
				}
			],
			"stateMutability": "view",
			"type": "function"
		},
		{
			"inputs": [],
			"name": "proposalThreshold",
			"outputs": [
				{
					"internalType": "uint256",
					"name": "",
					"type": "uint256"
				}
			],
			"stateMutability": "view",
			"type": "function"
		},
		{
			"inputs": [
				{
					"internalType": "uint256",
					"name": "proposalId",
					"type": "uint256"
				}
			],
			"name": "proposalVotes",
			"outputs": [
				{
					"internalType": "uint256",
					"name": "againstVotes",
					"type": "uint256"
				},
				{
					"internalType": "uint256",
					"name": "forVotes",
					"type": "uint256"
				},
				{
					"internalType": "uint256",
					"name": "abstainVotes",
					"type": "uint256"
				}
			],
			"stateMutability": "view",
			"type": "function"
		},
		{
			"inputs": [
				{
					"internalType": "address[]",
					"name": "targets",
					"type": "address[]"
				},
				{
					"internalType": "uint256[]",
					"name": "values",
					"type": "uint256[]"
				},
				{
					"internalType": "bytes[]",
					"name": "calldatas",
					"type": "bytes[]"
				},
				{
					"internalType": "string",
					"name": "description",
					"type": "string"
				}
			],
			"name": "propose",
			"outputs": [
				{
					"internalType": "uint256",
					"name": "",
					"type": "uint256"
				}
			],
			"stateMutability": "nonpayable",
			"type": "function"
		},
		{
			"inputs": [
				{
					"internalType": "address[]",
					"name": "targets",
					"type": "address[]"
				},
				{
					"internalType": "uint256[]",
					"name": "values",
					"type": "uint256[]"
				},
				{
					"internalType": "bytes[]",
					"name": "calldatas",
					"type": "bytes[]"
				},
				{
					"internalType": "bytes32",
					"name": "descriptionHash",
					"type": "bytes32"
				}
			],
			"name": "queue",
			"outputs": [
				{
					"internalType": "uint256",
					"name": "",
					"type": "uint256"
				}
			],
			"stateMutability": "nonpayable",
			"type": "function"
		},
		{
			"inputs": [
				{
					"internalType": "uint256",
					"name": "blockNumber",
					"type": "uint256"
				}
			],
			"name": "quorum",
			"outputs": [
				{
					"internalType": "uint256",
					"name": "",
					"type": "uint256"
				}
			],
			"stateMutability": "view",
			"type": "function"
		},
		{
			"inputs": [],
			"name": "quorumDenominator",
			"outputs": [
				{
					"internalType": "uint256",
					"name": "",
					"type": "uint256"
				}
			],
			"stateMutability": "view",
			"type": "function"
		},
		{
			"inputs": [],
			"name": "quorumNumerator",
			"outputs": [
				{
					"internalType": "uint256",
					"name": "",
					"type": "uint256"
				}
			],
			"stateMutability": "view",
			"type": "function"
		},
		{
			"inputs": [
				{
					"internalType": "address",
					"name": "target",
					"type": "address"
				},
				{
					"internalType": "uint256",
					"name": "value",
					"type": "uint256"
				},
				{
					"internalType": "bytes",
					"name": "data",
					"type": "bytes"
				}
			],
			"name": "relay",
			"outputs": [],
			"stateMutability": "nonpayable",
			"type": "function"
		},
		{
			"inputs": [],
			"name": "s_votingDelay",
			"outputs": [
				{
					"internalType": "uint256",
					"name": "",
					"type": "uint256"
				}
			],
			"stateMutability": "view",
			"type": "function"
		},
		{
			"inputs": [],
			"name": "s_votingPeriod",
			"outputs": [
				{
					"internalType": "uint256",
					"name": "",
					"type": "uint256"
				}
			],
			"stateMutability": "view",
			"type": "function"
		},
		{
			"inputs": [
				{
					"internalType": "uint256",
					"name": "proposalId",
					"type": "uint256"
				}
			],
			"name": "state",
			"outputs": [
				{
					"internalType": "enum IGovernor.ProposalState",
					"name": "",
					"type": "uint8"
				}
			],
			"stateMutability": "view",
			"type": "function"
		},
		{
			"inputs": [
				{
					"internalType": "bytes4",
					"name": "interfaceId",
					"type": "bytes4"
				}
			],
			"name": "supportsInterface",
			"outputs": [
				{
					"internalType": "bool",
					"name": "",
					"type": "bool"
				}
			],
			"stateMutability": "view",
			"type": "function"
		},
		{
			"inputs": [],
			"name": "timelock",
			"outputs": [
				{
					"internalType": "address",
					"name": "",
					"type": "address"
				}
			],
			"stateMutability": "view",
			"type": "function"
		},
		{
			"inputs": [],
			"name": "token",
			"outputs": [
				{
					"internalType": "contract IVotes",
					"name": "",
					"type": "address"
				}
			],
			"stateMutability": "view",
			"type": "function"
		},
		{
			"inputs": [
				{
					"internalType": "uint256",
					"name": "newQuorumNumerator",
					"type": "uint256"
				}
			],
			"name": "updateQuorumNumerator",
			"outputs": [],
			"stateMutability": "nonpayable",
			"type": "function"
		},
		{
			"inputs": [
				{
					"internalType": "contract TimelockController",
					"name": "newTimelock",
					"type": "address"
				}
			],
			"name": "updateTimelock",
			"outputs": [],
			"stateMutability": "nonpayable",
			"type": "function"
		},
		{
			"inputs": [],
			"name": "version",
			"outputs": [
				{
					"internalType": "string",
					"name": "",
					"type": "string"
				}
			],
			"stateMutability": "view",
			"type": "function"
		},
		{
			"inputs": [],
			"name": "votingDelay",
			"outputs": [
				{
					"internalType": "uint256",
					"name": "",
					"type": "uint256"
				}
			],
			"stateMutability": "view",
			"type": "function"
		},
		{
			"inputs": [],
			"name": "votingPeriod",
			"outputs": [
				{
					"internalType": "uint256",
					"name": "",
					"type": "uint256"
				}
			],
			"stateMutability": "view",
			"type": "function"
		},
		{
			"stateMutability": "payable",
			"type": "receive"
		}
	]
}